:020000040800F2
:1000000030110020D5000008912E0008512300086F
:1000100000000000000000000000000000000000E0
:10002000000000000000000000000000454B000838
:10003000F50B00080000000061470008D15B0008D4
:10004000E9000008E9000008C5480008E9000008C8
:10005000E9000008450C0008790C0008990C00081C
:1000600000000000E9000008E9000008E9000008BD
:10007000E9000008E900000800000000E55C000855
:1000800000000000E900000800000000000000007F
:10009000E900000800000000E9000008E90000088D
:1000A000E9000008E9000008E90000086D680008A0
:1000B000E9000008E900000800000000000000005E
:1000C0000348854600F07EFB00480047ED6D0008C0
:1000D000301100200548804705480047FEE7FEE74D
:1000E000FEE7FEE7FEE7FEE7FEE700007D5C0008B6
:1000F000C100000830B50B46014600202022012433
:1001000009E00D46D5409D4205D31D469540491B4B
:100110002546954040191546521E002DF1DC30BD94
:1001200070B500242546002801DA01244042002948
:1001300001DA01254942FFF7DDFFAC4200D0404221
:10014000002C00D0494270BDF0B51FB486B000202D
:100150000090019002900698069980B2049007984A
:10016000090C02040014114307900027089D099808
:1001700006913E463C4603900398A9B20204000C47
:10018000039004982D0C154348430021224600F0AB
:1001900085FAC719714110340E46402CECDB384605
:1001A000029A00F07BFA009A019B80180090594156
:1001B00002980191103002904028CCDB00980BB0DF
:1001C000F0BD03460B439B0703D009E008C9121F8B
:1001D00008C0042AFAD203E00B780370401C491CC3
:1001E000521EF9D270470321001D401E03781202EF
:1001F0001A43491EF9D510467047034610B5083317
:100200000722040E090221435B1E1C7800022043D2
:10021000521EF6D510BD034603220870000A491C81
:10022000521EFAD51846704770B504460D4607238E
:1002300010700E06000A3043090A521C5B1EF7D5E7
:100240002046294670BD0000F0B5074608465840D4
:1002500087B0C00F049048000E4659004008490876
:10026000BC1A884105D2384631461E4617460B4611
:1002700002465800400810434CD0300D0390400512
:100280005900400D490D0590401A0290402872DA3D
:1002900018030121000B09050843019004980092FE
:1002A000002805D001995242002088410092019017
:1002B000029840210A1A0199009800F0EFF90546CA
:1002C0000C466B4607CB00F00AFAC0197141039A3D
:1002D0000E0D0023D71756401A467A40164344D0D5
:1002E000049A002A2DD0029A012A039A15DC1205DD
:1002F000C01A914101263605001C7141D20F059E9E
:10030000D2070093019202962A46234600F007FA8C
:1003100007B0F0BD38463146FAE71605224A0F46C7
:10032000B218C01AB74101210905001C4F4100183D
:100330007F41114618187941E20F10436D1964414D
:1003400013E0E2076D0815436408C2071443039ADB
:1003500001261205C01A91413605001C7141CE07D5
:10036000400830434908C01851412A46234600F04E
:10037000C9F9CDE7FFE7049801224000C117121A1E
:1003800000238B4104983146C417381AA141EEE787
:1003900030B40124E407634030BC55E730B4012495
:1003A000E407614030BC4FE70000E0FFF0B51FB448
:1003B00088B00B990998002448400999C00F49005A
:1003C00049080991C0070B990090490049080B9111
:1003D00009990898A64608431CD00B990A98084327
:1003E00018D0099801244000420D4800410D099899
:1003F00024050003000B204309900B980003000B19
:1004000020430B9050181C494018002201901446BC
:10041000104605E0002001460DB0F0BD032801DACA
:10042000034600E003239C46C11A0AAE0AE05F00BF
:1004300008ADED5B4F00F75B7D430027AA187C41B8
:10044000491C5B1E6145F2DD410004AB5A52210498
:10045000120C0A43240C401C0828DFDB0198029090
:100460000099704601910090059B049A079906989F
:1004700000F055F9D0E700000DFCFFFFF0B50C4689
:100480005C4085B0E40FE40703944C000026640848
:1004900059009446490802460296224321D06246FA
:1004A0000A431ED06200570D4A000E032303550D68
:1004B000012402462C492405781B1B0B360B4018DF
:1004C00023432643614600901C46501AB44103D38F
:1004D0000098401C009002E0921800985B410028B0
:1004E00003DA0020014605B0F0BD00200121090516
:1004F0000746864611E064461D46141BB54106D3E7
:100500006546521BB341744607430C43A646CD07CC
:1005100040084908284392185B4105460D43EAD13B
:100520001046184313D060461946504071400843A6
:1005300006D06046101AB34106D20122002306E01D
:1005400000220123DB0702E00122D243531000986E
:1005500074460105381C6141029C039D00196941E4
:1005600000F0D0F8BFE70000FD0300000EB5C21791
:10057000C10F5040CA0740180021054B0293019259
:1005800000910A460B4600F0CAF803B000BD000017
:10059000330400000EB505490291002100910A467E
:1005A0000B46019100F0BBF803B000BD330400001E
:1005B00070B5CD0F4A0009030123090B1B05194330
:1005C0000B4BED070024520D9A4201DA002070BD5A
:1005D000074B34339A4203DC9A1A00F06FF802E0BA
:1005E0000449511888402C43F1D0404270BD0000AE
:1005F000FF030000CDFBFFFF4A0009030123090BA5
:100600001B051943094B10B5520D9A4201DA00201F
:1006100010BD064B34339A4203DC9A1A00F04EF8B0
:1006200010BD03495118884010BD0000FF030000B1
:10063000CDFBFFFF4A0009030123090B1B051943EA
:100640000A4B10B5520D9A4202DA0020014610BD45
:10065000064B34339A4203DC9A1A00F02FF810BD8F
:10066000034BD21800F01AF810BD0000FF03000081
:10067000CDFBFFFF10B5002904DB0124E407404255
:100680008C412146002B04DB1C460123DB07524230
:10069000A341994200D1904210BD000010B5202A1C
:1006A00004DB0146203A9140002010BD91402023F8
:1006B0009C1A0346E3401943904010BD10B5202A10
:1006C00004DB0846203AD040002110BD0B46D34041
:1006D000D0402024A21A91400843194610BD10B5FD
:1006E000202A06DBCB170846203A1041C1170B43DE
:1006F00006E00B461341D0402024A21A9140084343
:10070000194610BD10B5002B08DA0024401C6141C9
:1007100092185B411A4301D14008400010BDF0B56A
:100720001FB482B005460C0003D0084606F02EF92F
:1007300002E006F02BF920300246009021462846C0
:10074000FFF7ACFF049B059A04460F46184311437C
:10075000084314D0184610431BD0009840210A1AB1
:1007600018460599FFF7AAFF05460E46009A059917
:100770000498FFF793FF084305D0012004E02046CA
:10078000394607B0F0BD0020C11705430E432C4386
:10079000374300990E986305401A7905E40A002250
:1007A0000C43FD0A0A3002D500200146E9E70105A5
:1007B000101969410C9C0D9D00196941FFF7A2FFBA
:1007C000DFE70000064C0125064E05E0E36807CC94
:1007D0002B430C3C98471034B442F7D3FFF774FC1A
:1007E000E87700080878000870B58C180578401C78
:1007F0006B075B0F01D10378401C2A1106D10278E8
:10080000401C03E006780E70401C491C5B1EF9D1A9
:100810002B0705D40023521E0DD40B70491CFAE798
:100820000378401CCB1A921C03E01D780D70491C04
:100830005B1C521EF9D5A142D8D3002070BD30B543
:1008400089B005460C461022002105A806F0FAFAE8
:10085000224605A905A806F0D5F86846007D802146
:10086000084000281CD000BF00200AE005A9095C50
:10087000490005AB421C9A5CD211114305AA1154E0
:10088000401C0F28F2DB08A9C97849060A0E08A9FE
:10089000CA7000BFC8788721484008A9C87016E010
:1008A00000BF00200AE005A9095C490005AB421C15
:1008B0009A5CD211114305AA1154401C0F28F2DB97
:1008C00008A9C97849060A0E08A9CA7000BFFF2006
:1008D0001530005910280FD100BF002009E0E11D9C
:1008E000FA31095C05AA125C5140E21DFA3211543A
:1008F000401C1028F3DB61E06846007D8021084041
:1009000000281CD000BF00200AE005A9095C4900AE
:1009100005AB421C9A5CD211114305AA1154401C2C
:100920000F28F2DB08A9C97849060A0E08A9CA707F
:1009300000BFC8788721484008A9C87016E000BFEA
:1009400000200AE005A9095C490005AB421C9A5C3D
:10095000D211114305AA1154401C0F28F2DB08A93B
:10096000C97849060A0E08A9CA7000BF8021FF2075
:1009700015300259E01DFA30815406E00021FF20B5
:1009800015300259E01DFA308154FF20153000590E
:10099000401CFF21153108511028EFD300BF002063
:1009A00009E0E11DFA31095C05AA125C5140E21D23
:1009B000FA321154401C1028F3DB00BF00BF0020A6
:1009C0000AE02146F131095CE21DFA32125C514025
:1009D0002246F1321154401C1028F2DB00BF1022D5
:1009E0002146F13101A806F021FA2246294601A844
:1009F00006F008F81022002105A806F023FA09B035
:100A000030BD10B50446102200212046F13006F01A
:100A100019FA0021FF2015300151F022204606F07E
:100A200011FA10BD70B504460D4622461021284625
:100A300006F016F870BD0000F0B585B004460F460C
:100A400015463C480068401C3A490860FF201530B4
:100A5000005900283ED0FF20153000591021081AF7
:100A6000A84204D2FF2015300059081A00E0284699
:100A70000646FF2115310A59E11DFA315018324658
:100A8000394606F0D3F9FF20153000598119FF20AF
:100A9000153001510059102801D3B54201D105B0DC
:100AA000F0BD00BF00200AE02146F131095CE21DE3
:100AB000FA32125C51402246F1321154401C102887
:100AC000F2DB00BF22462146F131084605F09AFFCD
:100AD000BF19AD1B21E000BF002008E02146F13125
:100AE000095C3A5C51402246F1321154401C1028F6
:100AF000F4DB00BF10222146F131684606F096F97A
:100B000022466946684605F07DFF10226946204668
:100B1000F13006F08BF91037103D102DDBD82A4646
:100B20003946E01DFA3006F081F9FF2015300551F5
:100B300000BFB4E7A801002030B50446264803787A
:100B40000078401C244D28702448C454A01E030083
:100B500005F033FF0705060F1019293233002EE088
:100B60001D4803780078401C1B4D28701B48C15459
:100B700025E024E0184803780078401C164D2870C2
:100B80001648C1541BE0144803780078401C124DED
:100B900028701248C154284603780078401C2870F9
:100BA0000E48C2540BE00C4803780078401C0A4DF4
:100BB00028700A48C15402E001E0012030BD00BFA6
:100BC000054800780F2804DC0120054B1870002030
:100BD000F4E70220F2E700006D010020C80B0020BE
:100BE0006C01002008B500220092002100926846A6
:100BF000007808BD7047F0B585B0074600BF00BF5C
:100C000038467D21C900484300210391029005F038
:100C1000B3F80191009000BF05F0AEF8019B009A77
:100C2000841A99416425002620462A4633460491B9
:100C3000FFF78AFA039B029A801A9941ECD305B018
:100C4000F0BD000010B50B484069C007C00F002878
:100C500004D004F02BF90120064948610548406999
:100C600002210840002804D004F0EEF802200149D7
:100C7000486110BD0004014010B5064840690421D8
:100C80000840002804D004F0C5F804200149486158
:100C900010BD00000004014010B50E484069FF215E
:100CA00001310840002806D0084600F015F8FF2062
:100CB000013008494861074840690121890208401C
:100CC000002805D003F07EFF012080020149486121
:100CD00010BD00000004014070470000F0B503465D
:100CE0000A460027002400200021DAE001258D407B
:100CF0002F4615683D402C46BC4276D15568022DE2
:100D000002D05568122D15D1CD08AD001E462036F3
:100D100070594D07EE0E0F25B5400646AE433046DE
:100D20004E07F60E1569B5402843CD08AE001D46A6
:100D30002035A8515568012D08D05568022D05D0E1
:100D40005568112D02D05568122D18D198684E00A3
:100D50000325B5400646AE4330464E00D568B54043
:100D600028439860586801258D400646AE433046BA
:100D70001026556835402D098D4028435860186865
:100D80004E000325B5400646AE4330461579AD0703
:100D9000AD0F4E00B54028431860D8684E000325BB
:100DA000B5400646AE4330464E009568B5402843F0
:100DB000D8600126360755683540B54270D13B4DA5
:100DC0006D6B01263543394E7563394D8E08B6007B
:100DD000A8598D072E0F0F25ED43B5402840052556
:100DE0002D07AB4202D1002515E059E0314DAB4251
:100DF00001D101250FE0304DAB4201D102250AE0BF
:100E00002E4DAB4201D1032505E02D4DAB4201D162
:100E1000042500E005258E07360FB5402843244DF4
:100E20008E08B600A851274D28680546A5432846D8
:100E30000126360455683540B54202D105462543A2
:100E40002846204D286068680546A54328460126A7
:100E5000760455683540B54202D1054625432846FB
:100E6000184D6860A8680546A54328460126360542
:100E700055683540B54202D1054625432846114DF7
:100E8000A860E8680546A54328460126760555680A
:100E90003540B54202D1054625432846094DE86054
:100EA000491C102900D221E7F0BD000000100240CB
:100EB000080001400004005000080050000C0050E1
:100EC000001C005000040140002A01D0816100E0B4
:100ED00081627047014800687047000000000020F0
:100EE00002480068401C014908607047000000206B
:100EF00070B5044600F0A2F906467D21C900FFF74F
:100F0000F9F8054601F006F900222146501E00F0CE
:100F10000FF8002070BD000000BFC206D20E0121F4
:100F20009140024A116000BF7047000000E100E0FC
:100F300070B504460D4616462946204601F0AAFF24
:100F400070BD000070B504460E460025B848006824
:100F5000C007C00FB0426ED2B548006840084000DC
:100F60003043B349086008460068C007C00FB0426C
:100F700001D0012070BD022120680840022807D15D
:100F8000AC48C068F0218843A1680843A949C860FB
:100F90002078C007C00F00284CD06068022809D113
:100FA000A4480068012149040840400C002824D1CD
:100FB0000120DFE76068002809D19E480068012110
:100FC00049020840400A002817D10120D2E7606892
:100FD000032809D197480068012149060840400EBE
:100FE00000280AD10120C5E7924800680421084082
:100FF0008008002801D10120BCE78E48C068800825
:101000008000616808438B49C860FFF763FF0546AD
:101010006068022810D107E0FFF75CFF401B86499B
:10102000884201D90320A5E78248C0680C21084006
:101030000828F1D1DAE035E0606803280FD107E035
:10104000FFF748FF401B7C49884201D9032091E704
:101050007848C0680C2108400C28F1D1C6E06068CF
:1010600000280FD107E0FFF735FF401B7249884287
:1010700001D903207EE76F48C0680C210840002892
:10108000F1D1B3E007E0FFF725FF401B6A49884232
:1010900001D903206EE76748C0680C210840042886
:1010A000F1D1A3E0022120680840022807D161485D
:1010B000C068F0218843A16808435E49C860207871
:1010C000C007C00F00284CD06068022809D15948D9
:1010D0000068012149040840400C002824D1012067
:1010E00048E76068002809D1524800680121490298
:1010F0000840400A002817D101203BE76068032818
:1011000009D14C480068012149060840400E0028DA
:101110000AD101202EE747480068042108408008D2
:10112000002801D1012025E74248C06880088000DE
:10113000616808433F49C860FFF7CCFE0546606818
:1011400002280FD107E0FFF7C5FE401B3A4988424D
:1011500001D903200EE73748C0680C210840082851
:10116000F1D134E0606803280FD107E0FFF7B2FE49
:10117000401B3149884201D90320FBE62D48C06855
:101180000C2108400C28F1D121E0606800280FD123
:1011900007E0FFF79FFE401B2749884201D9032043
:1011A000E8E62448C0680C2108400028F1D10EE090
:1011B00007E0FFF78FFE401B1F49884201D903203B
:1011C000D8E61C48C0680C2108400428F1D1184812
:1011D0000068400840003043154908600846006830
:1011E000C007C00FB04201D00120C3E6042120682F
:1011F0000840042808D10F48C06807210902884325
:10120000E16808430B49C8600821206808400828A5
:1012100009D10848C0680721C90288432169C9006B
:1012200008430449C8600020FFF762FE0020A1E6E1
:1012300000200240001002408813000010B500F0AA
:10124000CBF80649C968F02211400909044A515CEB
:10125000C840044908600846006810BD00100240FC
:101260000D000020340000203F210160474909683B
:10127000012292041140914203D1052109044160E9
:101280000AE042490968012212041140914201D149
:10129000416001E0002141603C490968FF220132C0
:1012A0001140914202D10121C16101E00021C161DF
:1012B00036490968090E0162344949680722520318
:1012C0001140490B416231498968C907C90F00299A
:1012D00002D00121816101E0002181612B4909686F
:1012E000C907C90F002902D00121C16001E0002116
:1012F000C160264949681F2212021140090A016192
:10130000224940310969012292021140914203D1E0
:101310000521090281600BE01C4940310969FF2267
:1013200001321140914201D1816001E000218160D0
:10133000164940310969C907C90F002902D00121A6
:10134000416101E000214161104909680122120652
:101350001140914202D10221816201E001218162AA
:101360000A49C968012212041140C1620749C968CB
:101370000F22920411408A0C02630449C9680322B7
:10138000920511408A0D4263704700000010024030
:1013900010B5FFF753FF0549C96807221202114033
:1013A000090A034A515CC84010BD00000010024009
:1013B0000D00002010B5FFF741FF0549C96807225D
:1013C000D2021140C90A034A515CC84010BD000056
:1013D000001002400D000020F8B500240027002076
:1013E000009000250026294840680721490308404D
:1013F000450BA80026490D582448C0680C21084018
:10140000002806D0042806D008280ED00C2838D191
:101410000DE02E4637E01D480068102108400028E6
:1014200001D01C4E00E01C4E2DE01C4E2BE0174856
:10143000C0680F218904084004461448C06803218D
:10144000890508400746A00C15490C5CB80D471CDF
:101450000E48C06801210904084000900098002847
:1014600007D10D49614308463946FEF743FE06465B
:1014700006E00A49614308463946FEF73BFE064648
:1014800001E02E4600BF00BF3046F8BD001002400C
:101490009074000800093D000024F40000127A0056
:1014A0000400002070B5044600252078C007C00F56
:1014B000002871D0FC48C0680C21084008280BD0D7
:1014C000F948C06808400C2814D1F748C0680121C9
:1014D0000904084088420DD1F348006801214904FD
:1014E0000840400C002857D049106068884253D00B
:1014F000012070BDEC480068052109048843EA49D1
:101500000860FFF7E7FC054607E0FFF7E3FC401B38
:10151000E649884201D90320EBE7E348006801214E
:1015200049040840400C0028EFD1DF48006805213D
:101530000904884361680843DB4908600121090404
:101540006068884214D1FFF7C5FC054607E0FFF745
:10155000C1FC401BD549884201D90320C9E7D248C4
:101560000068012149040840400C0028EFD013E036
:10157000FFF7B0FC054607E0FFF7ACFC401BCB498A
:10158000884201D90320B4E7C74800680121490413
:101590000840400C0028EFD10221206808400228B2
:1015A0006AD1C148C0680C21084004280BD0BE484D
:1015B000C06808400C281DD1BB48C068012109043F
:1015C0000840002816D1B848006804210840800867
:1015D000002804D0E068012801D0012089E7B24842
:1015E00040681F2109028843216909020843AE4966
:1015F000486041E0E068002824D0AB480068092139
:101600008843E1680843A8490860FFF763FC054682
:1016100006E0FFF75FFC401B642801D9032068E760
:10162000A14800680421084080080028F1D09E48A5
:1016300040681F21090288432169090208439A4929
:10164000486019E09848006809218843E168084328
:1016500095490860FFF73EFC054606E0FFF73AFCB7
:10166000401B642801D9032043E78F480068042108
:10167000084080080028F1D1102120680840102877
:101680006FD18948C0680C21084000281FD18648C6
:101690000068012149020840400A002804D0E0699E
:1016A000012801D0012024E77F4840680721490331
:1016B0008843616A08437C494860084640680002E4
:1016C000000A218C090608437749486049E0E0692F
:1016D00000282CD074480068FF210131084372496A
:1016E0000860FFF7F7FB054606E0FFF7F3FB401B3A
:1016F000642801D90320FCE66B48006801214902F7
:101700000840400A0028F0D0674840680721490394
:101710008843616A0843644948600846406800029B
:10172000000A218C090608435F49486019E05E48B9
:101730000068FF21013188435B490860FFF7CAFB5D
:10174000054606E0FFF7C6FB401B642801D90320CD
:10175000CFE655480068012149020840400A0028A8
:10176000F0D1082120680840082839D16069002894
:101770001BD04D4840300069012108434A4940319F
:101780000861FFF7A7FB054606E0FFF7A3FB401B38
:10179000642801D90320ACE64348403000690221A7
:1017A000084040080028F0D01AE03F484030006967
:1017B000400840003C4940310861FFF78BFB05467B
:1017C00006E0FFF787FB401B642801D9032090E661
:1017D0003548403000690221084040080028F0D117
:1017E000202120680840202849D1A069002826D05F
:1017F00000BF2D488068012108432B4988600846B6
:10180000406B01210843284948632948006A49146C
:1018100008432749086200BFFFF75CFB054606E066
:10182000FFF758FB401B642801D9032061E61E48DE
:1018300080680221084040080028F1D01FE000BF66
:101840001948806840084000174988601848006AB5
:10185000184908401649086200BFFFF73BFB0546E0
:1018600006E0FFF737FB401B642801D9032040E660
:101870000D4880680221084040080028F1D1042169
:1018800020680840042878D10748806B89060843FF
:1018900005498863084800688915084306490860B7
:1018A000FFF718FB054610E0001002408813000007
:1018B00000000140FEDFFFFF00700040FFF70AFB61
:1018C000401B642801D9032013E668480068FF2103
:1018D000013108400028F1D065480069052109025E
:1018E000884363490861FFF7F5FA054607E0FFF70B
:1018F000F1FA401B5F49884201D90320F9E55C48B1
:101900000069012149020840400A0028EFD15848E7
:101910000069052109028843A16808435449086108
:101920008915A068884214D1FFF7D4FA054607E06C
:10193000FFF7D0FA401B4F49884201D90320D8E570
:101940004B480069012149020840400A0028EFD0B5
:1019500013E0FFF7BFFA054607E0FFF7BBFA401BAD
:101960004449884201D90320C3E541480069012167
:1019700049020840400A0028EFD1A06A002872D02E
:101980003B484038C0680C2108400C2869D0A06A48
:10199000022848D1364840380068012109068843AA
:1019A000334940390860FFF795FA054606E0FFF72E
:1019B00091FA401B642801D903209AE52C4840384D
:1019C0000068012149060840400E0028EFD1616BF4
:1019D000206B0843E16A084325494039C968FD2264
:1019E00012049143084322494039C8600846006800
:1019F0000121090608431E4940390860FFF76AFAC9
:101A0000054606E0FFF766FA401B642801D903206B
:101A10006FE5174840380068012149060840400E2C
:101A20000028EFD01FE01248403800680121090665
:101A300088430F4940390860FFF74CFA054606E035
:101A4000FFF748FA401B642801D9032051E50848F4
:101A500040380068012149060840400E0028EFD1B7
:101A600001E0012045E5002043E500000070004052
:101A70004010024088130000704710B5044602F081
:101A800029FF10BD10B504462068C068FF21013150
:101A90000840000A002810D020688068090108402A
:101AA00000280AD02046FFF7E8FF2068C0688021A0
:101AB0000840124908432168C8602068C0680121B5
:101AC00049020840400A002810D0206880680901B7
:101AD000084000280AD02046FFF7CEFF2068C068E3
:101AE00080210840064908432168C860012040045D
:101AF0000449486101212120015510BD7FFEFFFFEF
:101B00007FFDFFFF0004014001465120405C70470B
:101B100010B50446002C01D1012010BD5120005DFC
:101B2000002802D1204600F038F80221512001554A
:101B3000206800684021884321680860A1686068C7
:101B40000843E168084321690843616908430122A9
:101B50005202A16911400843E1690843216A084320
:101B6000A16A084321680860A069000C04210840AC
:101B7000616A0843216848602168E06A086120685A
:101B8000C069910088432168C86100215220015535
:101B90000121512001550020BFE77047F8B50446E8
:101BA0000E4615461F465120005D01287CD1002EAF
:101BB00001D0002D01D10120F8BD00BF5020005DF3
:101BC000012801D10220F7E701215020015500BF73
:101BD0001221512001550021522001552663A5866E
:101BE000E5860020E064A064A087E0870121490326
:101BF000A06A88420DD100BF206800688843216830
:101C000008602068006801214903084321680860D2
:101C100000BF0121C903A068884205D1206800687F
:101C20004910084321680860206800684021084086
:101C3000402804D020680068084321680860E068F4
:101C4000002832D16068002802D0E08E012808D137
:101C5000216B481C206308782168C860E08E401E14
:101C6000E08612E03B4600220221204602F0DEFE22
:101C7000002801D003209FE7216B481C20630878CF
:101C80002168C860E08E401EE086E08E0028E9DC16
:101C900001214903A06A88423AD1206800684910AE
:101CA00008432168086033E065E06068002802D0DE
:101CB000E08E012809D1206B00882168C860206B64
:101CC000801C2063E08E401EE08613E03B4600222D
:101CD0000221204602F0AAFE002801D003206BE773
:101CE000206B00882168C860206B801C2063E08E18
:101CF000401EE086E08E0028E8DC01214903A06A4E
:101D0000884205D1206800684910084321680860AE
:101D10003B4600220221204602F088FE002807D020
:101D20005220005D2021084352210855032043E73B
:101D30003B4601228021204602F078FE002807D091
:101D40005220005D2021084352210855032033E72B
:101D5000A068002805D100BF2068C068206880689E
:101D600000BF01215120015500BF00215020015525
:101D700000BF002020E702201EE7FEB504460E4605
:101D800017461D460020019000905120005D0190F3
:101D90000198012802D00198222875D1002E03D085
:101DA000002F01D0002D01D10120FEBD00BF502029
:101DB000005D012801D10220F7E7012150200155E3
:101DC00000BF5120005D012802D132215120015570
:101DD000002152200155A763A587E5872663A586C4
:101DE000E5860020A064E06401214903A06A8842DE
:101DF0000DD100BF20680068884321680860206812
:101E000000680121490308432168086000BF206879
:101E1000006840210840402804D02068006808433A
:101E2000216808600121C902E06888427DD16068AC
:101E3000002807D0FF210531606888420CD1E08E70
:101E4000012809D1206B00882168C860206B801CA4
:101E50002063E08E401EE086E08E002820D1012124
:101E60004903A06A884205D12068006849100843E8
:101E700021680860002201212046089B02F0D6FD5F
:101E8000002802D0032090E742E12068C068A16BDF
:101E90000880A06B801CA063E08F401EE087D7E025
:101EA00035E0002202212046089B02F0BFFD0028F9
:101EB00001D0032079E7206B00882168C860206B7F
:101EC000801C2063E08E401EE086E08E00280AD150
:101ED00001214903A06A884205D1206800684910A1
:101EE000084321680860002201212046089B02F077
:101EF0009DFD002801D0032057E72068C068A16B32
:101F00000880A06B801CA063E08F401EE087E08EFD
:101F10000028C6DC60680028C1D1002201212046CB
:101F2000089B02F083FD002800E00DE001D00320B3
:101F30003BE72068C068A16B0880A06B801CA06391
:101F4000E08F401EE08783E06068002807D0FF2113
:101F50000531606888420BD1E08E012808D1216BE1
:101F6000481C206308782168C860E08E401EE08627
:101F7000E08E00281CD101214903A06A884205D1C6
:101F80002068006849100843216808600022012188
:101F90002046089B02F04AFD002801D0032004E7F8
:101FA0002068C068A16B0870E08F401EE0874FE09A
:101FB00034E0002202212046089B02F037FD002871
:101FC00001D00320F1E6216B481C206308782168CA
:101FD000C860E08E401EE086E08E00280AD1012114
:101FE0004903A06A884205D1206800684910084367
:101FF00021680860002201212046089B02F016FD9E
:10200000002801D00320D0E62068C068C1B2A26BCE
:10201000501CA0631170E08F401EE087E08E002806
:10202000C7DC6068002813D1002201212046089BEC
:1020300002F0FCFC002801D00320B6E62068C0684E
:10204000C1B2A26B501CA0631170E08F401EE087EC
:1020500001214903A06A884213D1002201212046B0
:10206000089B02F0E3FC002807D05220005D02210B
:10207000084352210855032097E62068C06880B2C3
:102080000290012280212046089B02F0CFFC00280C
:1020900007D05220005D202108435221085503201B
:1020A00083E60121512001552068806810210840F5
:1020B000000900904902A06A884222D100980028B5
:1020C0001FD05220005D02210843522108550121F2
:1020D0004903A06A88420DD100BF20680068884388
:1020E00021680860206800680121490308432168CD
:1020F000086000BF00BF00215020015500BF012033
:1021000053E600BF00215020015500BF00204CE6DF
:1021100002204AE670B504462546681E09498842F1
:1021200001D901200CE0681E074948610321081FFE
:1021300000F0B0FE002004498861072008610020FB
:1021400070BD0000FFFFFF0000E000E010B5044696
:10215000002C01D1012010BD3520005D002802D1E6
:10216000204600F00DF8022135200155211D206880
:1021700003F01AFE0121352001550020EBE7000095
:1021800010B504460748806B012108430549886360
:10219000002211460F20FEF7CBFE0F20FEF7BCFEFB
:1021A00010BD00000010024001460868C06801220E
:1021B00010430A68D06008680068012210430A686A
:1021C000106000207047704710B504462068006911
:1021D00002210840400800281CD02068C068084040
:1021E0004008002816D0481F21680861012020758A
:1021F000206880698007800F002803D02046FFF701
:10220000E2FF05E0204600F09DF8204600F09BF834
:1022100000202075206800690421084080080028FB
:102220001DD02068C06808408008002817D0C84327
:102230002168086102202075206880690321090255
:102240000840002803D02046FFF7BDFF05E02046E8
:1022500000F078F8204600F076F80020207520681D
:10226000006908210840C00800281CD02068C06808
:102270000840C008002816D0C8432168086104201F
:1022800020752068C0698007800F002803D0204691
:10229000FFF799FF05E0204600F054F8204600F0D3
:1022A00052F80020207520680069102108400009BC
:1022B00000281DD02068C06808400009002817D0F9
:1022C000C84321680861082020752068C06903217F
:1022D00009020840002803D02046FFF774FF05E0FC
:1022E000204600F02FF8204600F02DF80020207541
:1022F00020680069C007C00F0121484048400028FD
:102300000CD02068C068084048404840002805D0EC
:10231000C81E21680861204600F016F82068006990
:1023200040210840800900280BD02068C068084080
:102330008009002805D0C84321680861204600F0C4
:1023400004F810BD7047704770477047704770477A
:1023500000BFFEE710B502F0FDFE0020294908602D
:102360002949086007202949088001202849087068
:102370000020284908702849087001202749087062
:102380000020274908702749087001202649088045
:102390000021264A11605160254A1160516025498B
:1023A00008702549254803F0D3FE2549254803F048
:1023B000CFFE2549254803F0CBFE2549254803F0EB
:1023C000C7FE2549254803F0C3FE2549254803F0EB
:1023D000BFFE0320244908700120244908700C49DD
:1023E0000870FF2009490880012021490870002059
:1023F000084908700849087000BF1C480078002888
:10240000FBD010BDFC000020480100200A01002084
:102410006000002061000020620000200C0100200C
:102420000D010020150100201601002018010020D8
:102430002001002014010020ED2F00088809002051
:10244000A12F0008000900204947000828090020A2
:102450002546000850090020C546000864090020F0
:10246000852F00083C0900200E0100200F010020EC
:102470000101002033B58DB05D485E4900228A56C7
:10248000805C5D4948705B480078062822D15B4833
:1024900000785B495B4A0023089309920A910B90EC
:1024A0000122049306930821514807930592514B4A
:1024B00000241C57005D0092029203910190524843
:1024C000524B00241C570257002301200D9903F0A2
:1024D00053F922E04948007849494A4A00230893C1
:1024E00009920A910B900122049306930821404817
:1024F000079305923F4B00241C57005D0023009377
:102500000292039101904048404B00241C5702570F
:10251000002301200D9903F02FF93D480078FF2892
:1025200002D106200FB030BD39480078002803D111
:102530000021384A11605160374800680121084382
:10254000354908603549364803F00AFE344803F03F
:102550005FFC03F01DFC04460D4608A9497E1322CA
:102560005143304A891808460B30FDF746FE294B87
:102570000CCB101A8B410AD208A9497E1322514371
:10258000284A891808460B30FDF737FE01E021493B
:1025900003C9201A8D4124D208A9497E1322514330
:1025A000204A891808460B30FDF727FE194B0CCB43
:1025B000101A8B410AD208A9497E13225143194AA5
:1025C000891808460B30FDF718FE01E0114903C9D0
:1025D00004462146144803F0C3FD134803F018FCD9
:1025E00004E006480178114803F040F8002099E71C
:1025F000B27400086100002078090020FA00002071
:10260000F0000020C0C62D00AC740008600000205F
:1026100015010020200100204801002060AE0A00C2
:1026200088090020D500002028090020800700200C
:10263000F0B587B0002400200690924800780590FD
:10264000002703F0A5FB039102900322002104A8B8
:1026500004F0F8FB8C4B029903980CCB8A1A984132
:102660008A4B0ACB891A834103D20021874A116021
:1026700051600020C0430090019000245CE0844839
:102680000078012849D113216143824A89180846FC
:102690000B30FDF7B2FD05460E46132161437D4A1E
:1026A0008918C81CFDF7A9FD039B029A101A8B41DB
:1026B000281A9E4109D213206043764940180246E9
:1026C0000B3200200146FDF7AFFD13216143714A33
:1026D000891808460B30FDF790FD002358405940FB
:1026E000084327D0132161436A4A891808460B30F2
:1026F000FDF783FD009B019AC01A914108D2132176
:102700006143644A891808460B30FDF776FD01E005
:1027100001990098019100900CE000210091019135
:10272000132060435B49401802460B3200200146EB
:10273000FDF77AFD601CC4B2012CA0DB002451E03F
:102740000120A040544909880840002847D00621AC
:102750006143524A8818FDF746FD002800D13FE04A
:10276000062060434D4940180079000700174C4986
:1027700000228A5690420DDC0620604347494018EB
:10278000042141560811464900228A56904201DB35
:10279000012000E00020002800D121E00621614353
:1027A0003E4A89184979132251433A4A8918084602
:1027B0000B30FDF722FD002358405940084300D05C
:1027C0000EE0324801684068002251405040014309
:1027D00000D005E03846791CCFB204A90C5400BFE4
:1027E000601CC4B2032CABDB002F35DD0024791E46
:1027F000002004F08BFCC0B206902BE004A90698E0
:10280000095C059139460698401CFDF789FCC8B261
:102810000690062205995143204A8818FDF7E3FCEB
:1028200005465922D2432946012002F08DF900289D
:102830000ED01449059808701A4800681021884382
:1028400018490860184803F0D1FB002007B0F0BD1C
:10285000601CC4B2032CD1DB124800681021084070
:1028600000280CD11048009903F07AFC0E4803F0C0
:10287000CFFA0C480068102108430A49086001207B
:10288000E4E700000E0100201801002020010020D4
:1028900014010020D50000200A010020AC00002017
:1028A000610000204801002000090020F7B59CB01D
:1028B0001E98002805D140201A900020FD4908707C
:1028C00004E080201A900120FA4908700020199035
:1028D00019981890F848008880B217900020169038
:1028E0000220159000201490461E3746F3490880B8
:1028F00003F04EFA139112900020119001201090D5
:10290000EF4800687D21C900401AEE490860EE4892
:1029100000687D21C900401AEC490860E7490A882F
:102920000988491CE54B1A981980E9498854E948F7
:102930000178184602880088401C1880E4488154B9
:10294000E44800880004010E184602880088401CF4
:102950001880DF488154DF4800680002010E1846E5
:1029600002880088401C1880D9488154D9480068E2
:10297000000E19460A880988491C1980D4498854D0
:1029800019460A880988491C19981980D049885421
:102990001798C1B2184602880088401C1880CC489D
:1029A00081541798001219460A880988491C198011
:1029B000C74988541698002810D000200BE01699BB
:1029C0000A5CBE490B880988491CBC4C2180C0495F
:1029D000CA54411CC8B218998842F0DBB7490A882A
:1029E0000988491CB54B15981980B9498854F022BB
:1029F0000021B94804F026FAB74A1021B74804F07C
:102A00002FF80020B6494871B24800788871B14863
:102A100000880004000EC871AE4800680002000E75
:102A20000872AC480068000E4872A34800788872AB
:102A3000A14800880004000EC8729F480068000288
:102A4000000E08739C480068000E487324E0A449F7
:102A50001098C8731098401C80B210909E4AA149EB
:102A60009F4803F0CFFF00200CE011990A181C9931
:102A7000895C9C4A125C5140119A12189A4B9954E5
:102A8000411C88B21028F0DB1D98103880B21D90D0
:102A900011981030C0B211901D981028D7DA1D98E7
:102AA000002819DD8E491098C8738B4A8D498C48CF
:102AB00003F0A8FF00200CE011990A181C99895C0A
:102AC000884A125C5140119A1218874B9954411C44
:102AD00088B21D998842EFDB7D49784A12888818B0
:102AE00081491D9A04F0A2F9744801881D980818BC
:102AF0007249088000207D494871764800788871C5
:102B0000744800880004000EC87172480068000212
:102B1000000E08726F480068000E48726648007820
:102B20008872654800880004000EC8726248006818
:102B30000002000E087360480068000E48735F488A
:102B40000078C8736A48FDF75CFF6A496848FDF77A
:102B500069FF102265496648FDF76EFF5748027805
:102B60005B496348FDF768FF61496348FDF767FE0D
:102B70006148C078000660498978090408435E49C5
:102B80004978090208435C4909780843149014986D
:102B9000C1B24A4802880088401C484B18804C4803
:102BA000815414980004010E184602880088401CC5
:102BB00018804748815414980002020E1846018874
:102BC0000088401C1880424842541498000E194650
:102BD0000A880988491C19803D498854474800786B
:102BE000FF2801D11FB0F0BD44480078002803D170
:102BF0000021434A11605160424B139912980CCB4B
:102C0000841A99413E4802684068A21A81417FD3E4
:102C100000213B4A1160516000200D9093E03A483A
:102C2000007801287ED113220D995143374A891823
:102C300008460B30FDF7E1FA04460D4613220D99C4
:102C40005143324A8918C81CFDF7D7FA139B129AD0
:102C5000101A8B41201A9D410AD213210D98484326
:102C60002A49401802460B3200200146FDF7DCFAE3
:102C700013220D995143254A891808460B30FDF758
:102C8000BCFA002358405940084358D013220D99EC
:102C900051431E4A891808460B30FDF7AEFA801BD7
:102CA000B9413AD213220D995143184A891808465E
:102CB0000B302FE00201002010010020FA0000205C
:102CC00030010020340100203C01002040010020A0
:102CD0008007002064000020BC090020780000204C
:102CE0005C010020AC090020000800204C010020FD
:102CF000B00A0020680000209C0900201501002077
:102D0000200100201801002014010020D50000201F
:102D10007AE007E0FDF771FA01E0304639460646F1
:102D20000F460CE00026374613210D9848434449CE
:102D3000401802460B3200200146FDF775FA0D9847
:102D4000401CC0B20D900D98012800DA67E70221FF
:102D5000002004F0DBF93B4908703B480068102173
:102D6000884339490860394803F040F9354800780C
:102D700006225043364A811806220EA8FDF721FA92
:102D8000002034490870344908703448344900221E
:102D90008A56805C2F494870324800783249334A5D
:102DA0000023089309920A910B9001220493069341
:102DB00008212A4807930592294B00241C57005DDF
:102DC000002300930292039101902948294B00248B
:102DD0001C570257002301200E9902F0CDFC1A481F
:102DE000006801210843184908602349234803F07B
:102DF000B7F91C480178224802F038FC21480068E5
:102E0000401C2049086019E00F4800681021084064
:102E1000002813D11C4912980968411A1B48006800
:102E2000461A3146094803F09BF9084802F0F0FFC2
:102E300005480068102108430349086000BFD1E637
:102E4000D50000200E0100204801002000090020CC
:102E5000AC0000207809002028010020B27400088E
:102E600061000020FA000020F0000020C0C62D0004
:102E7000AC7400086000002060AE0A0088090020E1
:102E800080070020100100201801002020010020F0
:102E90007047000010B5002819DA1A4A03071B0F03
:102EA000083B9B089B00D2588307DC0EFF23A340FE
:102EB0009A438B071B0E8407E40EA3401A43114B61
:102EC0000407240F083CA408A4001A5118E00E4A75
:102ED00003231B02D21883089B00D2588307DC0E01
:102EE000FF23A3409A438B071B0E8407E40EA340E5
:102EF0001A43054B032424021B198408A4001A5109
:102F000010BD00001CED00E000E100E010B500285D
:102F100019DA1A4A03071B0F083B9B089B00D2587B
:102F20008307DC0EFF23A3409A438B071B0E840705
:102F3000E40EA3401A43114B0407240F083CA408D5
:102F4000A4001A5118E00E4A03231B02D21883086A
:102F50009B00D2588307DC0EFF23A3409A438B07C4
:102F60001B0E8407E40EA3401A43054B03242402DE
:102F70001B198408A4001A5110BD00001CED00E0CC
:102F800000E100E0012004490870044800680421C1
:102F900088430249086070472B0100204801002047
:102FA0001CB50F480068102188430D490860FFF7E1
:102FB0003FFB002813D10A480078C007C00F002843
:102FC0000DD00848007806225043074A811806228F
:102FD0006846FDF7F6F801990098FFF74BFA1CBD1B
:102FE000480100200E010020AC0000201CB57348F1
:102FF0000078C007C00F00287ED0714800780028F4
:1030000041D16E480078C009002806D06D4800788C
:103010006D49087000206D4908606B480078694967
:103020000978884217DB0020674908706848006803
:10303000401C6749086067480078002804D163484D
:103040000068401C6149086063480068400840000F
:103050006149086017E05948007840084000574926
:103060000870FFF7E5FA00280DD15C4800780622C9
:1030700050435B4A811806226846FDF7A2F8019981
:103080000098FFF7F7F94D4800788007C00F002837
:103090001FD054480078012805D053480078534980
:1030A0000978884215DD00205149087049480078A8
:1030B000002804D145480068401C444908604A483B
:1030C00000784C4908704448006840084000424974
:1030D000086047480078012856D13F480068102111
:1030E0000840002850D1424908703F4800783F49C5
:1030F0000978884235DA00E032E03B480078401C2D
:10310000394908700878C10F091849104900411A57
:1031100001290DD1384900200856401E002803DD42
:1031200000200856401E00E0002040B232490870DE
:10313000224800784008400020490870FFF778FADC
:10314000002821D12548007806225043244A8118BE
:1031500006226846FDF735F801990098FFF78AF9CD
:1031600012E02648008807210843244908801A48AD
:10317000006840084000184908600020194908709C
:10318000194800781B49087013480068022108405C
:10319000022804D11048006888430F4908600E488F
:1031A0000068002802D10549087006E01449154856
:1031B00002F0D6FF134802F02BFE1CBD4401002094
:1031C000020100200C0100200D0100201001002050
:1031D0000401002000010020480100200E01002011
:1031E000AC000020280100202A0100202901002035
:1031F0002B01002078090020610000200A01002036
:1032000060AE0A008809002070477047FFB59BB088
:1032100004460F460020159000251490139012903C
:10322000FF201190002010900F900E900D90FE48FE
:103230000C90FE480B90002600200A9001F05AFFE7
:10324000FB4802F0D3FE1599481C1590605C1A905B
:103250001A98401119901998012808D003287DD098
:1032600005287CD0072801D001F0BEF8FDE3F14825
:103270000078012800D1F9E3F0220021EE4803F0A4
:10328000E1FDED4A1021ED4803F0EAFBEA4AEC4982
:10329000601C03F0B7FB781E102806DBE64AE849FD
:1032A00010312046113003F0ADFBE549491E1A9854
:1032B0000870E448FDF7A5FBE049E248FDF7B2FBE2
:1032C000381FC2B2DE49491EDE48FDF7B5FBDD49B5
:1032D000DD48FDF7B4FADC48C0780006DA498978A1
:1032E00009040843D849497809020843D6490978AE
:1032F00008430F90381FD249491E085C0E990843B5
:103300000E90F81ECE49491E085C00020E99084333
:103310000E90B81ECA49491E085C00040E99084365
:103320000E90781EC649491E085C00060E99084397
:103330000E900F990E9888427ED1C44800780221E1
:103340008843801CC1490870C1491E9888721D9825
:103350000881C0480590F022002101E0C0E0BEE0F5
:10336000B54803F06FFDB44A1021B44803F078FB70
:103370001022002106A803F065FD012168460176B0
:103380000622AF49193003F051FD022207A803308D
:10339000059903F04BFDA84AA34906A803F032FBA8
:1033A0001022002106A803F04DFD02216846017697
:1033B0000622A349193003F039FD022207A8033081
:1033C000059903F033FD9C4A06A80B9903F01AFBFC
:1033D0009B48401E0079A04908609948401E4079EA
:1033E0000002096808439C4908609548401E80799E
:1033F000000409680843984908609148401EC07954
:10340000964908608E48401E007A00020968084309
:10341000924908608A48401E407A000409680843BF
:103420008E4908608648401E807A00060968084375
:103430008A490860824800E049E0401EC07A4006A0
:10344000400F874908707E48401EC07A0007000F71
:10345000844908717A48401E007B0007000F8249AA
:10346000086008460068002801D1012008607E48F5
:103470000068FDF78FF800227C4B01910090FCF76B
:1034800095FF03910290FDF7B7F877490860084669
:103490000068FDF77FF80022744B01910090FCF763
:1034A000D3FE03910290FDF7A7F8714908606748C1
:1034B00000788021884380306449087001205D498C
:1034C00008706C49002008566B49087000BF5F48BF
:1034D000007840084000401C5C490870CBE600BF03
:1034E0001598411CC9B21591255C1598411CC9B2AB
:1034F0001591205C000205431598411CC9B2159135
:10350000205C000405431598411CC9B21591205C4C
:103510000006054351480068854239D05748006885
:103520000D901CE00D98FCF75EFEA84212D14748B2
:103530000078082188430830444908700D98001D20
:103540000C900D9814300B900D982430FCF74BFE26
:10355000064607E00D982830FCF745FE0D900D98C3
:103560000028DFD100BF394800780007C00F0028CD
:103570001AD13648007840084000401C3349087092
:103580003F480068400840003D4908601FB0F0BD5A
:103590002E480078082188432C49087022480C9056
:1035A00022480B90374806681598411CC9B21591FE
:1035B000205C189018980007000F17902021189889
:1035C0000840401116901598411CC9B21591205C15
:1035D0001499084314901598411CC9B21591205CA8
:1035E0000002149908431490179808301290381F5D
:1035F000205C0E9908430E90F81E205C00020E9984
:1036000008430E90B81E205C00040E9908430E90EB
:10361000781E205C00060E9908430E90B1B21498F3
:10362000401A139013982FE06800002078000020C3
:10363000640900200F010020BC0900209800002030
:1036400081080020B00A00209C09002044010020CD
:1036500078090020F8000020A80000206400002065
:1036600008010020D00000203001002080842E417D
:103670003C0100206200002061000020E8000020E2
:1036800048010020FC00002000287DDA300C0004F6
:103690000122120414998918084306460120F449AE
:1036A00048718D712804000EC8712802000E08723E
:1036B000280E48728E723004000EC8723002000E5E
:1036C0000873300E4873381FC873EA48FDF799F93C
:1036D000E8480C99FDF7A6F91022E549E548FDF701
:1036E000ABF9FAB22146E348FDF7A6F9E149E24811
:1036F000FDF7A5F8E048C0780006DF49897809049D
:103700000843DD49497809020843DB490978084341
:103710000F900F990E98884202D101200A9091E0F3
:1037200000200A90D54800780007C00F002807D075
:1037300014990E4608460D992431FCF76CFD03E000
:1037400014980646CE4908600120C94948718D7118
:103750002804000EC8712802000E0872280E487254
:103760008E723004000EC8723002000E0873300EE4
:103770004873381FC873BF48FDF743F9BD480C991B
:10378000FDF750F9102200E01CE0B949B948FDF7F7
:1037900053F9FAB22146B748FDF74EF9B549B64894
:1037A000FDF74DF8B448C0780006B349897809049C
:1037B0000843B149497809020843AF4909780843E9
:1037C0000F903FE0300C0004149908430646012096
:1037D000A74948718D712804000EC8712802000E97
:1037E0000872280E48728E723004000EC8723002C1
:1037F000000E0873300E4873381FC8739D48FDF7DC
:1038000000F99C480C99FDF70DF910229849994848
:10381000FDF712F9FAB221469648FDF70DF99549E0
:103820009548FDF70CF89448C078000692498978CD
:103830000904084390494978090208438E490978E8
:1038400008430F900A98012803D00F990E988842D8
:103850007ED18A48007802218843801C87490870FD
:1038600088491E9888721D9808810020C871864971
:103870000860824800780007C00F002805D00D9925
:1038800024313046FCF7C7FC01E07D4806601998FA
:10389000052803D101207D49087002E000207B4902
:1038A00008701698012805D179490870794802F006
:1038B0009DFB0BE000207649087077480078774937
:1038C0000978884202DD734802F090FB17980028BF
:1038D0007ADD15E2207A801E030003F06EF80705FA
:1038E00012F2F0EFEEEDC800644800784021884302
:1038F000403062490870607A62494873A07A8873E0
:10390000FDE10720089000200790069005900490A4
:103910000390E07A40B2059005980007000F0690EA
:1039200005980006000F05905D480078002813D127
:103930005C48002141560598814205D15A48002132
:1039400041560698814207D000221146032000E02C
:10395000FEE3FDF7F1F8D2E1207B0790607B0002E7
:10396000079908430790A07B049004984006400FF5
:10397000039004980007000F04900498002801D1D8
:10398000012004900398002807D10798002804D14B
:10399000FE2108980840089032E0002009902CE0B1
:1039A0000398062811D10622099951433F4A8818E5
:1039B000FCF719FC00281CD00120099988400799C0
:1039C000084380B2079014E09EE1012009998840E5
:1039D0000799084000280CD0062209995143334A20
:1039E0008818FCF700FC002803D1FE210898084045
:1039F00008900998401CC0B2099009980328CFDBB1
:103A00000598002802DB0598072801DD012000E069
:103A10000020012803D1FD2108980840089006984D
:103A2000002804DB0698052801DC012000E00020C6
:103A3000002803D1FB210898084008900898400707
:103A4000400F07280BD117490598087016490698AA
:103A500008701749079808801649049808700022D2
:103A600003200899FDF768F849E1EEE3EEE345E14C
:103A70004C010020B00A00209C09002044010020D5
:103A8000FC00002078090020040100200301002030
:103A9000280100203C0900202A01002029010020E3
:103AA000010100206100002060000020AC00002027
:103AB0000A0100200C010020F0E06CE061E00FE062
:103AC000FFE7E07BF849087008460178012088404C
:103AD000F6490880002211460420FDF72DF80EE17A
:103AE0000720099000BF00BF00BF207C0790079807
:103AF0000007000F089007980006000F0790607CF1
:103B00000690A07C0002069908430690E07C000421
:103B10000699084306906421069848430690089841
:103B2000002802DB0898072801DD012000E00020C2
:103B3000012803D1FD210998084009900798002821
:103B400002DB0798052801DD012000E000200128A4
:103B500003D1FB2109980840099009984007400FBC
:103B6000072808D1D249089808710698FCF753FB3A
:103B7000D04907980870002205200999FCF7DCFF5E
:103B8000BDE0FDF72FF80990CB48827A062009990D
:103B9000FCF7D2FFB3E00320099000BF207D40B2C4
:103BA0000890607D0690A17D090206980843069062
:103BB000E17D09040698084306906421069848436D
:103BC0000690207E41B2684601770898032802DB00
:103BD0000898032803DDFE210998084009906846EB
:103BE000007F0007011768461C228256101181428F
:103BF00020DC6846007F00070017002807DB6846C6
:103C0000007F00070017072801DC012000E00020EA
:103C100000280FD069461C2008560011002806DB3A
:103C20001C2008560011072801DC012000E00020BC
:103C3000002803D1FD2109980840099009988007C0
:103C4000800F032824D1002069464877062208996E
:103C500051439A4A8818062206A9FCF7B2FA0120B5
:103C600008998840964909880843954908800622A2
:103C700008995143914A8818FCF7B5FA002807D1F2
:103C80000121089881408E48008888438C4908802B
:103C9000002207200999FCF74FFF30E0607E000703
:103CA000000F09900998002803D10998401CC0B260
:103CB00009900998FCF76EFC0022824B0591049054
:103CC000FCF774FB07910690FCF796FC7E490860B0
:103CD00008460068FCF75EFC00227A4B05910490D0
:103CE000FCF7B2FA07910690FCF786FC774908606A
:103CF000002211460820FCF71FFF00E046E400BF49
:103D00001298082800DDE5E5381F1299401A0028AE
:103D10007EDD1298411CC9B21291205C1190381FAF
:103D20001299401AC0B210901198002871D10890D1
:103D300001200790F0220021654803F083F8644ACF
:103D400010210C9802F08CFE0120624948718D719F
:103D50002804000EC8712802000E0872280E48724E
:103D60008E723004000EC8723002000E0873300EDE
:103D700048732CE057490798C8730798401C80B2D5
:103D80000790534A5449534802F03CFE00200990E2
:103D900012E012982118089809180998085C4E4AF0
:103DA0000999515C4840099A089989184B4A50541E
:103DB0000998401C80B2099009981028E9DB1098F6
:103DC0001038C0B2109008981030C0B20890109807
:103DD0001028CFDA1098002824DD3E490798C873D0
:103DE0003B4A3D493B4802F00DFE0020099015E09A
:103DF00012982118089809180998085C364A0999F8
:103E0000515C4840099A08998918344A505401E095
:103E100022E222E20998401C80B209901099099888
:103E20008842E5DB14E22078801E030002F0C5FD25
:103E3000070512E8FCFAF9F8F70029480078402154
:103E4000884340302649087060781B494873A07841
:103E50008873FCE1072005900020049003900290F5
:103E600001900090E07840B2029002980007000FA5
:103E7000039002980006000F02901A48007800286C
:103E800036D11948002141560298814205D1174880
:103E900000214156039881422AD000221146032076
:103EA000FCF74AFED3E100001501002016010020B6
:103EB000D00000200801002078090020AC0000207C
:103EC0000A01002080842E41300100203C010020A6
:103ED000BC0900205C010020AC0900208008002003
:103EE000440100200101002061000020600000204A
:103EF0002079049060790002049908430490A07925
:103F0000019001984006400F009001980007000FB3
:103F100001900198002801D101200190009800280B
:103F200007D10498002804D1FE2105980840059087
:103F300031E0002006902BE00098062810D10622E0
:103F400006995143FE4A8818FCF74DF900281BD00A
:103F50000120069988400499084380B2049013E038
:103F60000120069988400499084000280CD00622B8
:103F700006995143F24A8818FCF735F9002803D115
:103F8000FE210598084005900698401CC0B2069096
:103F900006980328D0DB0298002802DB0298072845
:103FA00001DD012000E00020012803D1FD2105985A
:103FB000084005900398002804DB0398052801DCDD
:103FC000012000E00020002803D1FB2105980840D3
:103FD000059005984007400F07280BD1D949029852
:103FE0000870D94903980870D84904980880D849BE
:103FF00001980870002203200599FCF79DFD26E139
:10400000E079D44908700846017801208840D249F7
:104010000880002211460420FCF78EFD17E113E111
:10402000E2E05CE051E0FFE70720069000BF00BF40
:1040300000BF207A049004980007000F05900498B0
:104040000006000F0490607A0390A07A00020399A2
:1040500008430390E07A0004039908430390642125
:104060000398484303900598002802DB0598072829
:1040700001DD012000E00020012803D1FD21069888
:10408000084006900498002802DB0498052801DD0A
:10409000012000E00020012803D1FB210698084000
:1040A000069006984007400F072808D1AB490598AD
:1040B00008710398FCF7AFF8A9490498087000222A
:1040C00005200699FCF738FDC1E0FCF78BFD069052
:1040D000A448827A06200699FCF72EFDB7E003205B
:1040E000069000BF207B40B20590607B0390A17BCF
:1040F0000902039808430390E17B090403980843ED
:1041000003906421039848430390207C41B26846A1
:1041100001740598032802DB0598032803DDFE21BE
:104120000698084006906846007C0007011768461C
:10413000102282561011814222DC6846007C000762
:104140000017002809DB6846007C0007001700E024
:1041500039E1072801DC012000E0002000280FD011
:104160006946102008560011002806DB102008566A
:104170000011072801DC012000E00020002803D105
:10418000FD2106980840069006988007800F0328B6
:1041900024D1002069464874062205995143684A93
:1041A0008818062203A9FCF70CF80120059988401D
:1041B00066490988084365490880062205995143E4
:1041C0005F4A8818FCF70FF8002807D101210598ED
:1041D00081405E48008888435C49088000220720AF
:1041E0000699FCF7A9FC32E0607C0007000F0690FE
:1041F0000698002803D10698401CC0B20690069885
:10420000FCF7C8F90022584B03910290FCF7CEF856
:1042100005910490FCF7F0F95449086008460068DD
:10422000FCF7B8F90022504B03910290FCF70CF810
:1042300005910490FCF7E0F94D4908600022114611
:104240000820FCF779FC02E058E5CEE0DBE000BF97
:104250001098002800DDE6E5ADE000200890012080
:104260000790F0220021434802F0ECFD414A102162
:104270000B9802F0F5FB01203F4948718D7128042D
:10428000000EC8712802000E0872280E48728E7245
:104290003004000EC8723002000E0873300E4873EE
:1042A0002CE035490798C8730798401C80B20790E6
:1042B000304A3249304802F0A5FB0020099012E054
:1042C00012982118089809180998085C2B4A09992E
:1042D000515C4840099A08998918294A505409980C
:1042E000401C80B2099009981028E9DB109810381A
:1042F000C0B2109008981030C0B2089010981028E2
:10430000CFDA1098002844DD1B490798C873194A72
:104310001A49194802F076FB0020099035E01298FE
:104320002118089809180998085C144A0999515CE1
:104330004840099A08998918114A5054099821E06F
:10434000AC00002061000020600000200A01002075
:104350000C0100201501002016010020D0000020D3
:10436000080100207809002080842E4130010020BF
:104370003C010020BC0900205C010020AC090020A9
:1043800080080020401C80B209901099099888424A
:10439000C5DB1E48007804218843001D1B490870B6
:1043A0001B4911988870C91C1A48FBF734FF18493B
:1043B0001098C87100BF1548007840084000401CA4
:1043C000124908700FE00020134908700F48007868
:1043D00040084000401C0D49087010480068400823
:1043E00040000E4908600EE000BF08480078400811
:1043F0004000401C0549087008480068400840001B
:104400000649086000BF00BF00BF77E444010020F8
:1044100078090020800800202801002048010020A1
:1044200010B500F067FE074800788006800F01286D
:1044300006D10448007840084000401C014908703B
:1044400010BD00004401002010B500F053FE0748E5
:1044500000788006800F012806D1044800784008C3
:104460004000401C0149087010BD000044010020BC
:10447000F0B589B001F08CFC05460E4600F03AFE1E
:104480004F480078062148434E494018407913218F
:1044900048434D494018C21C28463146FBF7C4FE2C
:1044A0004A480078012831D1454800780621484320
:1044B00044494018407913214843434940180B3080
:1044C00002903F480078062148433E494018407911
:1044D000132148433C4941184878097804020C43A9
:1044E00000203B4A06CA0392049105902046039B94
:1044F000049A0599FBF728FE354B0CCB801A99419D
:1045000001910090029AFBF78FFE10E02C48007892
:10451000062148432B4940184079132148432A4932
:10452000401802460B3200200146FBF77DFE294869
:1045300060C0274903C9284A1788002206920791BC
:1045400008903A46069BFBF7FFFD214B0CCB801AE7
:104550009941224B0CCB80185941204A03C2204874
:104560000168204801F0FCFD1E4801F051FC1E4886
:1045700001681E4801F0F4FD1C4801F049FC1C488C
:104580000078012810D11B49484202F0BFFD1A49AA
:1045900009681A4A8918401801460290184801F023
:1045A000DFFD174801F034FC11480078002804D1E1
:1045B00014480078401C1349087009B0F0BD000091
:1045C0000E010020AC000020D500002014010020C6
:1045D000F00000201801002016010020200100201A
:1045E000340100205009002040010020640900200F
:1045F0000201002040420F003C01002080841E0088
:104600003C0900200D01002010B500F073FD0448A6
:10461000007840084000401C0149087010BD0000AF
:1046200044010020F0B58DB00525002400261D486A
:1046300000781D490978401A44B2002C00DA0024A1
:10464000032C00DB0825062C00D101261748007832
:1046500030218843154908701548007800281FD17B
:104660001449097806225143134A8818FBF7BBFD09
:10467000074612480021012208910A9104910591F0
:104680000691099207910B900820039500920191E1
:1046900002900B48035D32463946012000F056FE79
:1046A0000DB0F0BD61000020080100204401002091
:1046B000750100200E010020BE000020C0C62D00A4
:1046C000B274000870B58CB0052400251948007933
:1046D000032800DB082417480079062800D10125AB
:1046E000154800783021884310301349087013486A
:1046F000007800281CD10F48FBF775FD06461048CE
:104700000021012208910A910491059106910992D4
:1047100007910B90082003940092019102900548A4
:10472000007908490B5C2A463146012000F00EFE54
:104730000CB070BDD00000204401002075010020A5
:10474000C0C62D00B274000810B5034801780348B4
:1047500000F08CFF10BD0000FA0000208007002050
:104760007047000010B57D20C000FCF744FA0A2114
:10477000014801F095FE10BDC401002070B5484805
:1047800000887D21C900884226DB0020444908803A
:1047900000BF1FE006214143424A89184988491C4D
:1047A0008AB2062141433F4BC9184A800621414342
:1047B0001A468918097901290AD106214143891825
:1047C0004988042904DB002206214143C9180A71E3
:1047D000411CC8B20328DDDB3FE033483349098878
:1047E000445C7D21C90031480088401CFBF798FCDF
:1047F00088B22E4908802C480988455C7D21C90073
:104800002A480088401CFBF78BFC88B227490880A7
:1048100000201FE006214143224A515CA14217D1EA
:104820000621414389184978A94211D10022062165
:1048300041431C4BC9184A80062141431A46891836
:104840000979002904D1012206214143C9180A71BE
:10485000411CC8B20328DDDB00BF1448008814499E
:1048600009888842B9D1134800881349884215DB6A
:104870000020104908800A21104801F011FE094863
:1048800000790F4908710748807A88710548007CD3
:10489000087200220A210A48FEF708F870BD0000DD
:1048A000C2010020AC0100207C0300205400002045
:1048B00052000020C001002088130000C401002025
:1048C000DC01002010B50248FDF7DCF810BD000047
:1048D0001402002010B572B601F098F902F062FCE3
:1048E00000F038FC62B610BD10B586B004461F4813
:1048F000C06A012108431D49C8622020019002209E
:1049000002900390032004900020059001A9052047
:104910000007FCF7E3F980200190002005900220B9
:10492000039001A905200007FCF7D8F94020019069
:10493000002005900220039001A905200007FCF744
:10494000CDF91020019001200290039003200490E3
:1049500001A905200007FCF7C1F90448406B0121BB
:10496000090308430149486306B010BD0010024026
:10497000F0B585B005460E4617466806400E039012
:104980000022102105200007FCF79EFA01231B03DB
:10499000012203A90F48FDF701F9002410E00020CF
:1049A0000290401E019001200003012302AA01A9E8
:1049B00000900848FDF7E1F902983055601CC4B238
:1049C000BC42ECDB0122102105200007FCF77CFA39
:1049D00005B0F0BD28030020F8B505460E46174681
:1049E0008020284300900022102105200007FCF7BA
:1049F0006BFA01231B03012269460B48FDF7CEF831
:104A0000002408E0311901231B0301220648FDF7A9
:104A1000C5F8601CC4B2BC42F4DB012210210520A1
:104A20000007FCF751FAF8BD28030020FFB581B05C
:104A300004460E461D460027FCF74CFA074603982D
:104A400000283FD133E0681C002830D0002D04D06E
:104A5000FCF740FAC01BA84229D920684068E02131
:104A600088432168486020680068402188432168A5
:104A7000086001214903A06A88420DD100BF206867
:104A800000688843216808602068006801214903A4
:104A900008432168086000BF01215120015500BF73
:104AA00000215020015500BF032005B0F0BD206853
:104AB00080683040B04201D1012000E00020002891
:104AC000C1D03DE032E0681C00282FD0002D04D07A
:104AD000FCF700FAC01BA84228D920684068E021F2
:104AE0008843216848602068006840218843216825
:104AF000086001214903A06A88420DD100BF2068E7
:104B00000068884321680860206800680121490323
:104B100008432168086000BF01215120015500BFF2
:104B200000215020015500BF0320BEE720688068A7
:104B30003040B04201D1012000E000200028C2D165
:104B40000020B2E770470000F7B584B00C46174666
:104B500000200290049800F015FA184804602046DE
:104B6000FBF718FD05460022154BFBF787FC01916A
:104B70000090FBF741FD04462002010E062000F0E4
:104B8000E1FA2004010E072000F0DCFAE1B208206F
:104B900000F0D8FA052000F035FA0120FCF72BF8D8
:104BA000049800F0BBF9029000F0A4FA0298B84211
:104BB00002DD002007B0F0BD0120FBE778010020F6
:104BC00080844E40F0B58BB000200A9000278448C6
:104BD0000078012802D002287ED1E6E04021122090
:104BE00000F0B0FA122000F08FF90A9008A9087AB4
:104BF0002021084020280ED1122000F0A3FA794885
:104C00000078002801D176490870774801F0EEF964
:104C1000FFF706FCE1E0192000F076F940B2734995
:104C200008700020085680210840002807D06F48EF
:104C30000078C043401C0006870E7F4202E06B48AC
:104C4000007887101A2000F05FF90446002F52DA2E
:104C5000674800686749884225D93846FBF786FCD3
:104C6000079106902011FBF781FC039102902046EA
:104C7000FBF77CFC054600225F4BFBF7E5FA019150
:104C80000090039B029AFBF7DFFA05910490079BC3
:104C9000069AFBF7D9FA09910890FBF789FC40B214
:104CA0005649087061E03846FBF760FC07910690B2
:104CB0002011FBF75BFC039102902046FBF756FCAA
:104CC000054600224E4BFBF7BFFA01910090039B73
:104CD000029AFBF7B9FA00E07EE005910490079B89
:104CE000069AFBF7B1FA09910890FBF761FC40B214
:104CF0004249087039E03E4800683E4988421AD966
:104D00002011FBF733FC079106902046FBF72EFCA1
:104D100005460022384BFBF797FA05910490079B54
:104D2000069AFBF791FA09910890FBF741FC40B213
:104D30003249087019E02011FBF718FC0791069022
:104D40002046FBF713FC00222D4B05910490FBF746
:104D50007BFA0546079B069AFBF776FA09910890BD
:104D6000FBF726FC40B225490870132000F0CCF870
:104D7000244908700846027823490020FFF7F8FD0F
:104D800018480078002801D115490870164801F02C
:104D90002DF916480023C356184800228256194898
:104DA00001781948FEF732FA17E0184801F01EF9A9
:104DB00017480078002807D0012804D108211220C4
:104DC00000F0C0F900BF00BF002005490870FFF7E0
:104DD0004FFB00BF00BF00E000BF00BF0BB0F0BD45
:104DE0007501002092010020040D00209801002090
:104DF0007801002040DD4A1F00A063C09901002017
:104E0000008064C09A010020F00B0020F00C00200C
:104E10007601002010B50A480078012802D0022847
:104E20000AD108E0074801F0E1F8002004490870C1
:104E3000FFF70AFB01E000E000BF00BF10BD00006B
:104E400075010020040D002010B5164800780128D7
:104E500002D0022822D110E01348007801280BD19B
:104E60000221122000F06EF91C2000F04DF884069B
:104E7000A40E2046FEF7C9F911E00B48007801287E
:104E80000BD10221122000F05DF91C2000F03CF84B
:104E90008406A40E2046FEF7B8F900E000BF00BF6C
:104EA00010BD0000750100208F01002010B51220F8
:104EB00000F02AF8C007C00F002807D005211220F3
:104EC00000F040F90120FEF79FF906E004211220CE
:104ED00000F038F90020FEF797F910BD10B5094829
:104EE0000078012802D0022809D102E0FFF7ACFACD
:104EF00006E0002003490870FFF786FB00E000BFD2
:104F000000BF10BD7501002038B504460122694676
:104F10002046FFF72DFD6846007838BDFEB500201D
:104F20000190144800681449884210D91B20FFF7EB
:104F3000EBFF0090FBF72EFB064600220F4BFBF722
:104F400083F90446FBF734FB40B201900FE01B20CD
:104F5000FFF7DAFF0090FBF71DFB04460022084B29
:104F6000FBF772F90646FBF723FB40B2019001986C
:104F7000FEBD00007801002040DD4A1F00A063C094
:104F8000008064C070B504461D480078A04200D17E
:104F900070BD1B4804700078002802D0012815D08D
:104FA00000BF002000F02EF80120FFF7ADFF4506FE
:104FB0006D0E2946012000F0C5F80021402000F0C8
:104FC000C1F83021412000F0BDF816E0002000F0CB
:104FD00019F80120FFF798FF4006400E054680357E
:104FE0002946012000F0AEF80021402000F0AAF888
:104FF0000021412000F0A6F800BF00BF00BFC7E7B6
:105000007601002030B585B00446364800788442E9
:1050100066D034480470002C1AD133480078012837
:1050200053D00120304908700220009011200190D7
:105030000020029002200390694605200007FBF73C
:105040004DFE0022022105200007FBF73DFF3CE05A
:105050002548007800281BD00020234908702348E9
:10506000C06A012108432149C86202200090012042
:105070000190029002200390694605200007FBF78B
:105080002DFE0022022105200007FBF71DFF00BFB7
:10509000032C0DD116480078012816D001201449A0
:1050A00008700022022105200007FBF70DFF0CE02D
:1050B0000F480078002808D000200D490870012210
:1050C000022105200007FBF7FFFE0120FFF71CFF70
:1050D000F8210840204305462946012000F032F817
:1050E00005B030BDA4010020740100200010024072
:1050F0009B01002010B5064800F078FF054800F03D
:1051000075FF0020FFF77EFF00200349087010BDE7
:10511000040D0020F00C00207501002010B5064899
:1051200000F064FF054800F061FF0120FFF76AFF0F
:1051300000200349087010BD040D0020F00C002071
:105140007501002013B50446012201A92046FFF78E
:1051500043FC1CBD30B58BB07148C06A02210843C6
:105160006F49C8626F4806900020079001200890A0
:105170000220099006A96C48FBF7B0FD0120C0028F
:105180000690012007900020089006A96648FBF7CA
:10519000A5FD6348C06A012108436149C862042033
:1051A00006900120079008900220099006A905208A
:1051B0000007FBF793FD0122042105200007FBF700
:1051C00083FE5A495A4800F0C3FF5849594800F035
:1051D000BFFF5649584800F0BBFF00220121C90219
:1051E0005148FBF771FE0120FBF705FD0122D102BA
:1051F0004D48FBF769FE0620FBF7FDFC19214B200B
:10520000FFF7A0FF0920FFF77FFE054600210920D8
:10521000FFF798FF3B20FFF777FEBF2108400446C9
:10522000403421463B20FFF78DFF00BF3B20FFF7B6
:105230006BFE202108402028F8D03B20FFF764FEB9
:10524000BF2108400446403421463B20FFF77AFF47
:1052500000BF3B20FFF758FE202108402028F8D04F
:1052600029460920FFF76EFF2D48C06A0221084336
:105270002B49C862314802900020039029480190D0
:105280000220049001A92848FBF728FD00220121F3
:105290000520FBF74DFE0520FBF73EFE0022012115
:1052A0000620FBF745FE0620FBF736FE0022012113
:1052B0000720FBF73DFE0720FBF72EFE002412E03F
:1052C000610061181E4A505CFFF75CFE6200A21884
:1052D0001B4BD21891786200A218D2185078FFF7B1
:1052E00031FF601CC4B20F2CEAD30020FFF74AFE46
:1052F00000201449087014490969134A5269514041
:10530000114A526A5140084601F046FF0120FFF75A
:1053100039FE34213920FFF715FF0BB030BD0000F6
:10532000001002400704000000040050DD4E000899
:10533000F00C0020040D0020180D002000001110BA
:10534000BA740008750100204000F81FFFB585B051
:105350000E4614461D46129FB44806603046FBF7C1
:1053600019F90022B24B01910090FBF787F80391E5
:105370000290FBF741F906463002010E0620FFF7C6
:10538000E1FE3004010E0720FFF7DCFEF1B2082039
:10539000FFF7D8FE0598FFF7F5FD022C01D900BFF5
:1053A000FEE7E41DA3480460A3480560A3490E98E6
:1053B0000870A3480770A34913980870A24914986D
:1053C0000870A24915980870A14916980870A1495B
:1053D00017980870A049189808700C2D01D90C2551
:1053E00002E0062D00D20625072C03D10B2D05D097
:1053F0000C2D03D0082C05D10C2D03D10120974989
:10540000087002E00020954908701D20FFF77CFD20
:105410000007000FF0210840210108430E994900C0
:1054200008433843C0B2014603901D20FFF78AFEAF
:105430001E20FFF769FD0007000FF8210840290131
:10544000084314998900084311990912FC229143D9
:105450000843C0B2014603901E20FFF773FE2620CA
:10546000FFF752FDF72108407C490978C90008433D
:10547000014603902620FFF765FE1198C1B21F2058
:10548000FFF760FE10980004010E2020FFF75AFE7F
:105490001098C1B22120FFF755FE012F03D1222021
:1054A0001399FFF74FFE6948007801280FD1442077
:1054B000FFF72AFD4006400E80300146039044204D
:1054C000FFF740FE624801782420FFF73BFE092CDD
:1054D00009D100BF02213620FFF734FE64213A20B3
:1054E000FFF730FE0EE0092C08D102213620FFF72D
:1054F00029FE7F213A20FFF725FE03E00321362015
:10550000FFF720FE062D0FD13120FFF7FDFCF8211B
:105510000840401D014603903120FFF713FE0C2187
:105520003720FFF70FFE0EE03120FFF7EDFCF821EA
:105530000840C01C014603903120FFF703FE0A21FA
:105540003720FFF7FFFD0020049042480078012833
:105550000FD13320FFF7D8FCBE210840413001466F
:1055600003903320FFF7EEFD19213B20FFF7EAFD02
:105570000EE03320FFF7C8FCBE210840401C014666
:1055800003903320FFF7DEFD1D213B20FFF7DAFDFE
:105590003148007804902D480078012810D11D2151
:1055A0001120FFF7CFFD4020FFF7AEFC8006800EF4
:1055B000F3210840014603904020FFF7C3FD0DE0B2
:1055C0001F211120FFF7BEFD4020FFF79DFC800644
:1055D000800E014603904020FFF7B4FD00210F200C
:1055E000FFF7B0FD00210D20FFF7ACFDFF220132D7
:1055F00000211B4801F026FC01201A490870199867
:10560000002806D01848199900F0AAFD164800F0A5
:10561000FFFB0498012803D10520FFF7F3FC02E00B
:105620000620FFF7EFFC09B0F0BD00007801002074
:1056300080844E40800100208401002089010020E8
:105640008C0100208D0100208E0100208F010020A0
:10565000900100209101002092010020880100208B
:10566000F00B002075010020040D0020F8B5054660
:105670000C4600263A48007801280ED13320FFF767
:1056800043FCBE210840074639463320FFF75AFD48
:1056900019213B20FFF756FD0DE03320FFF734FCC6
:1056A000BE210840471C39463320FFF74BFD1D2122
:1056B0003B20FFF747FD2B48047021462220FFF7CF
:1056C00041FD00210E20FFF73DFD00210D20FFF7D9
:1056D00039FD0120FFF718FCF8218843002804D188
:1056E000FFF71CFD0120FBF786FA22462946002021
:1056F000FFF772F91C4806681C480078012811D190
:10570000F5211120FFF71EFD4020FFF7FDFB80066D
:10571000800EF32108400746403739464020FFF706
:1057200011FD0EE0F7211120FFF70CFD4020FFF7DF
:10573000EBFB8006800E0746403739464020FFF7D6
:1057400001FD02200A49087031460A4800F008FDB0
:10575000084800F05DFB0320FFF754FCF8BD000093
:10576000910100209A010020940100208F01002067
:1057700075010020F00C0020FFB59BB01446259F5A
:10578000002019901890FA491C9808601C98FAF7A4
:1057900001FF0022F74B07910690FAF76FFE09917F
:1057A0000890FAF729FF1C901C980002010E0620B1
:1057B000FFF7C8FC1C980004010E0720FFF7C2FC8D
:1057C0001C98C1B20820FFF7BDFC1B98FFF7DAFB5D
:1057D0000920FFF799FB19904D20FFF795FB1890D2
:1057E00019984006400E803019908F211998084072
:1057F0007030199080211998084080282FD1112CE1
:1058000005DDF82118980840C01D189004E0F82123
:1058100018980840001D189018984007400F072856
:105820000ED1052C00DA0524142C00DD1424F021FF
:1058300019980840611F0907090F084319901EE0D5
:10584000022C00DA0224112C00DD1124F021199819
:105850000840A11E0907090F084319900FE0002016
:10586000C043844200DA04460E2C00DD0E24F021F1
:1058700019980840611C0907090F0843199009206D
:105880001999FFF75FFC4D201899FFF75BFCBA48A8
:1058900004702498022801D900BFFEE72498C01D97
:1058A0002490B64924980860B5480760B549269801
:1058B0000870B54927980880B44928980870B449F9
:1058C0002A980870B3492B980870B3492998087032
:1058D000B2492C980870B248B24908600C2F01D91F
:1058E0000C2702E0062F00D206272498072803D1B0
:1058F0000B2F06D00C2F04D02498082805D10C2F8C
:1059000003D10120A849087002E00020A6490870D0
:105910009F48007801280FD14420FFF7F5FA400690
:10592000400E8030014609904420FFF70BFC994857
:1059300001782420FFF706FC1D20FFF7E5FA000799
:10594000000FF021084024990901084326994900D5
:10595000084328990843C0B2014609901D20FFF76B
:10596000F1FB1E20FFF7D0FA0007000FFB210840D3
:1059700039010843299989000843C0B201460990BA
:105980001E20FFF7DFFB2620FFF7BEFAF7210840B5
:1059900085490978C9000843014609902620FFF788
:1059A000D1FB27980004010E2020FFF7CBFB27989E
:1059B000C1B22120FFF7C6FB062F0FD13120FFF720
:1059C000A3FAF8210840401D014609903120FFF755
:1059D000B9FB0C213720FFF7B5FB0EE03120FFF7B4
:1059E00093FAF8210840C01C014609903120FFF7C6
:1059F000A9FB0A213720FFF7A5FB00252E465F48AB
:105A00000068072804D0082805D0092809D105E036
:105A10000025664E05E00025654E02E00025654E36
:105A200000BF00BF56490A78012191400846FAF7A5
:105A30009DFD02460B460991089028463146FAF72B
:105A40001DFD1791169000205B49179B169AFAF7D7
:105A500015FD159114904C480088FAF79BFD002223
:105A6000564B07910690FAF7EFFB09910890159BAA
:105A7000149AFAF79BFC1391129042480078001D8B
:105A8000FAF774FD099108903D4909688900464A72
:105A90001278002A01DD082200E00022881AFAF7B5
:105AA00079FD039102902F99C900354A126892003E
:105AB000891A1C31384A127812018918334A12782F
:105AC000002A01D0142200E00022881AFAF762FDB1
:105AD00001910090039B029AFAF7D0FC0591049083
