:020000040800F2
:1000000070130020D500000881330008BD280008C7
:1000100000000000000000000000000000000000E0
:1000200000000000000000000000000081490008FE
:10003000211000080000000025460008495900086A
:10004000E9000008E900000889470008E900000805
:10005000E9000008B1100008E510000805110008CB
:1000600000000000E9000008E9000008E9000008BD
:10007000E9000008E9000008000000005D5A0008DF
:1000800000000000E900000800000000000000007F
:10009000E900000800000000E9000008E90000088D
:1000A000E9000008E9000008E9000008E56500082B
:1000B000E9000008E900000800000000000000005E
:1000C0000348854600F07EFB00480047656B00084A
:1000D000701300200548804705480047FEE7FEE70B
:1000E000FEE7FEE7FEE7FEE7FEE70000F559000841
:1000F000C100000830B50B46014600202022012433
:1001000009E00D46D5409D4205D31D469540491B4B
:100110002546954040191546521E002DF1DC30BD94
:1001200070B500242546002801DA01244042002948
:1001300001DA01254942FFF7DDFFAC4200D0404221
:10014000002C00D0494270BDF0B51FB486B000202D
:100150000090019002900698069980B2049007984A
:10016000090C02040014114307900027089D099808
:1001700006913E463C4603900398A9B20204000C47
:10018000039004982D0C154348430021224600F0AB
:1001900085FAC719714110340E46402CECDB384605
:1001A000029A00F07BFA009A019B80180090594156
:1001B00002980191103002904028CCDB00980BB0DF
:1001C000F0BD03460B439B0703D009E008C9121F8B
:1001D00008C0042AFAD203E00B780370401C491CC3
:1001E000521EF9D270470321001D401E03781202EF
:1001F0001A43491EF9D510467047034610B5083317
:100200000722040E090221435B1E1C7800022043D2
:10021000521EF6D510BD034603220870000A491C81
:10022000521EFAD51846704770B504460D4607238E
:1002300010700E06000A3043090A521C5B1EF7D5E7
:100240002046294670BD0000F0B5074608465840D4
:1002500087B0C00F049048000E4659004008490876
:10026000BC1A884105D2384631461E4617460B4611
:1002700002465800400810434CD0300D0390400512
:100280005900400D490D0590401A0290402872DA3D
:1002900018030121000B09050843019004980092FE
:1002A000002805D001995242002088410092019017
:1002B000029840210A1A0199009800F0EFF90546CA
:1002C0000C466B4607CB00F00AFAC0197141039A3D
:1002D0000E0D0023D71756401A467A40164344D0D5
:1002E000049A002A2DD0029A012A039A15DC1205DD
:1002F000C01A914101263605001C7141D20F059E9E
:10030000D2070093019202962A46234600F007FA8C
:1003100007B0F0BD38463146FAE71605224A0F46C7
:10032000B218C01AB74101210905001C4F4100183D
:100330007F41114618187941E20F10436D1964414D
:1003400013E0E2076D0815436408C2071443039ADB
:1003500001261205C01A91413605001C7141CE07D5
:10036000400830434908C01851412A46234600F04E
:10037000C9F9CDE7FFE7049801224000C117121A1E
:1003800000238B4104983146C417381AA141EEE787
:1003900030B40124E407634030BC55E730B4012495
:1003A000E407614030BC4FE70000E0FFF0B51FB448
:1003B00088B00B990998002448400999C00F49005A
:1003C00049080991C0070B990090490049080B9111
:1003D00009990898A64608431CD00B990A98084327
:1003E00018D0099801244000420D4800410D099899
:1003F00024050003000B204309900B980003000B19
:1004000020430B9050181C494018002201901446BC
:10041000104605E0002001460DB0F0BD032801DACA
:10042000034600E003239C46C11A0AAE0AE05F00BF
:1004300008ADED5B4F00F75B7D430027AA187C41B8
:10044000491C5B1E6145F2DD410004AB5A52210498
:10045000120C0A43240C401C0828DFDB0198029090
:100460000099704601910090059B049A079906989F
:1004700000F055F9D0E700000DFCFFFFF0B50C4689
:100480005C4085B0E40FE40703944C000026640848
:1004900059009446490802460296224321D06246FA
:1004A0000A431ED06200570D4A000E032303550D68
:1004B000012402462C492405781B1B0B360B4018DF
:1004C00023432643614600901C46501AB44103D38F
:1004D0000098401C009002E0921800985B410028B0
:1004E00003DA0020014605B0F0BD00200121090516
:1004F0000746864611E064461D46141BB54106D3E7
:100500006546521BB341744607430C43A646CD07CC
:1005100040084908284392185B4105460D43EAD13B
:100520001046184313D060461946504071400843A6
:1005300006D06046101AB34106D20122002306E01D
:1005400000220123DB0702E00122D243531000986E
:1005500074460105381C6141029C039D00196941E4
:1005600000F0D0F8BFE70000FD0300000EB5C21791
:10057000C10F5040CA0740180021054B0293019259
:1005800000910A460B4600F0CAF803B000BD000017
:10059000330400000EB505490291002100910A467E
:1005A0000B46019100F0BBF803B000BD330400001E
:1005B00070B5CD0F4A0009030123090B1B05194330
:1005C0000B4BED070024520D9A4201DA002070BD5A
:1005D000074B34339A4203DC9A1A00F06FF802E0BA
:1005E0000449511888402C43F1D0404270BD0000AE
:1005F000FF030000CDFBFFFF4A0009030123090BA5
:100600001B051943094B10B5520D9A4201DA00201F
:1006100010BD064B34339A4203DC9A1A00F04EF8B0
:1006200010BD03495118884010BD0000FF030000B1
:10063000CDFBFFFF4A0009030123090B1B051943EA
:100640000A4B10B5520D9A4202DA0020014610BD45
:10065000064B34339A4203DC9A1A00F02FF810BD8F
:10066000034BD21800F01AF810BD0000FF03000081
:10067000CDFBFFFF10B5002904DB0124E407404255
:100680008C412146002B04DB1C460123DB07524230
:10069000A341994200D1904210BD000010B5202A1C
:1006A00004DB0146203A9140002010BD91402023F8
:1006B0009C1A0346E3401943904010BD10B5202A10
:1006C00004DB0846203AD040002110BD0B46D34041
:1006D000D0402024A21A91400843194610BD10B5FD
:1006E000202A06DBCB170846203A1041C1170B43DE
:1006F00006E00B461341D0402024A21A9140084343
:10070000194610BD10B5002B08DA0024401C6141C9
:1007100092185B411A4301D14008400010BDF0B56A
:100720001FB482B005460C0003D0084605F0EAFF6E
:1007300002E005F0E7FF20300246009021462846FF
:10074000FFF7ACFF049B059A04460F46184311437C
:10075000084314D0184610431BD0009840210A1AB1
:1007600018460599FFF7AAFF05460E46009A059917
:100770000498FFF793FF084305D0012004E02046CA
:10078000394607B0F0BD0020C11705430E432C4386
:10079000374300990E986305401A7905E40A002250
:1007A0000C43FD0A0A3002D500200146E9E70105A5
:1007B000101969410C9C0D9D00196941FFF7A2FFBA
:1007C000DFE70000064C0125064E05E0E36807CC94
:1007D0002B430C3C98471034B442F7D3FFF774FC1A
:1007E000D4720008F472000870B58C180578401CAB
:1007F0006B075B0F01D10378401C2A1106D10278E8
:10080000401C03E006780E70401C491C5B1EF9D1A9
:100810002B0705D40023521E0DD40B70491CFAE798
:100820000378401CCB1A921C03E01D780D70491C04
:100830005B1C521EF9D5A142D8D3002070BDFFB574
:10084000CDB01F46569D1022002145A806F0A4F900
:10085000F022002108A806F09FF9002408AA102120
:100860004D9805F0B9FF19E000BF002007E045A949
:100870000A5C4E99095C4A4045A90A54401C10285C
:10088000F5DB00BF08AA45A945A805F077FF4E98FB
:1008900010304E904F981038C0B24F904F9810289B
:1008A000E2DC49A84F9A4E9906F06AF94F9C102055
:1008B000001BA84202DA1020001B00E02846C6B246
:1008C00049A908193246394606F05AF9A019C4B2A6
:1008D000102C01DBB54201D151B0F0BD00BF0020AA
:1008E00007E045A9095C49AA125C514045AA115488
:1008F000401C1028F5DB00BF08AA45A945A805F053
:100900003DFFBF19A81BC5B215E000BF002006E0DF
:1009100045A9095C3A5C514045AA1154401C102875
:10092000F6DB00BF08AA45A945A805F027FF103748
:1009300028461038C5B2102DE7DC2A46394649A8AA
:1009400006F01EF92C4610220021684606F024F914
:1009500008AA6946684605F011FF684600788021BC
:10096000084000281CD000BF00200AE06946095C4E
:1009700049006A46431CD25CD21111436A461154A5
:10098000401C0F28F2DB6946C97B49060A0E6946FE
:10099000CA7300BFC87B872148406946C87316E008
:1009A00000BF00200AE06946095C49006A46431C12
:1009B000D25CD21111436A461154401C0F28F2DB5D
:1009C0006946C97B49060A0E6946CA7300BF102CE6
:1009D0000DD100BF002007E049A9095C6A46125CFE
:1009E000514049AA1154401C1028F5DB53E06846D9
:1009F00000788021084000281CD000BF00200AE0B9
:100A00006946095C49006A46431CD25CD211114315
:100A10006A461154401C0F28F2DB6946C97B49061F
:100A20000A0E6946CA7300BFC87B872148406946E1
:100A3000C87316E000BF00200AE06946095C49005F
:100A40006A46431CD25CD21111436A461154401CC1
:100A50000F28F2DB6946C97B49060A0E6946CA734C
:100A600000BF802049A9085502E0002049A9085587
:100A7000601CC0B204461028F7DB00BF002007E06E
:100A800049A9095C6A46125C514049AA1154401CAC
:100A90001028F5DB00BF00BF002007E045A9095C76
:100AA00049AA125C514045AA1154401C1028F5DB9C
:100AB00000BF08AA04A945A805F060FE6946C87CE5
:100AC0000006897C090408436946497C09020843F9
:100AD0006946097C08435799086000BFFCE6FFB5EA
:100AE000CDB00E4614461F461022002145A806F040
:100AF00053F8F022002108A806F04EF8002508AAB5
:100B000010214D9805F068FE15E000BF002006E0BA
:100B100045A9095C325C514045AA1154401C10287B
:100B2000F6DB00BF08AA45A945A805F027FE103648
:100B300020461038C4B2102CE7DC2246314649A8C2
:100B400006F01EF825461022002104A806F024F81D
:100B500008AA04A904A805F011FE6846007C8021BB
:100B6000084000281CD000BF00200AE004A9095C4E
:100B7000490004AA431CD25CD211114304AA1154A7
:100B8000401C0F28F2DB6946C97F49060A0E6946F8
:100B9000CA7700BFC87F872148406946C87716E0FA
:100BA00000BF00200AE004A9095C490004AA431C14
:100BB000D25CD211114304AA1154401C0F28F2DB5D
:100BC0006946C97F49060A0E6946CA7700BF102DDB
:100BD0000DD100BF002007E049A9095C04AA125CFE
:100BE000514049AA1154401C1028F5DB53E06846D7
:100BF000007C8021084000281CD000BF00200AE0B3
:100C000004A9095C490004AA431CD25CD211114317
:100C100004AA1154401C0F28F2DB6946C97F49061B
:100C20000A0E6946CA7700BFC87F872148406946D7
:100C3000C87716E000BF00200AE004A9095C49005B
:100C400004AA431CD25CD211114304AA1154401CC3
:100C50000F28F2DB6946C97F49060A0E6946CA7742
:100C600000BF802049A9485502E0002049A9485505
:100C7000681CC0B205461028F7DB00BF002007E063
:100C800049A9095C04AA125C514049AA1154401CAC
:100C90001028F5DB00BF00BF002007E045A9095C74
:100CA00049AA125C514045AA1154401C1028F5DB9A
:100CB00000BF08AA694645A805F060FD6946C878E6
:100CC00000068978090408436946497809020843FF
:100CD000694609780843386051B0F0BD30B5044624
:100CE000264803780078401C244D28702448C454BA
:100CF000A01E030005F01DFD0705060F101929327F
:100D000033002EE01D4803780078401C1B4D2870EE
:100D10001B48C15425E024E0184803780078401CA3
:100D2000164D28701648C1541BE01448037800780B
:100D3000401C124D28701248C15428460378007890
:100D4000401C28700E48C2540BE00C480378007811
:100D5000401C0A4D28700A48C15402E001E00120FD
:100D600030BD00BF054800780F2804DC0120054B8A
:100D700018700020F4E70220F2E700007D01002057
:100D80000D0E00207C01002008B5002200920021F9
:100D900000926846007808BD10B594B09448006889
:100DA0004021084392490860084600680221084330
:100DB0008F490860002000F051FB00F0C3F98D4816
:100DC000806B0121090708438A4988638A480068C3
:100DD0000321C90288430121C902401886490860DD
:100DE00002200190002002900120049002200B902C
:100DF00000210C9141040D9141050E9110200590A8
:100E000001A800F005FE0F200F9003201090002095
:100E100011901290139001210FA800F049FB7D2141
:100E2000C90076480068FFF765F90446601E7449FA
:100E3000884201D901200CE0601E724948610321FB
:100E4000081F02F0DBFA00206E4988610720086164
:100E50000020002801D000BFFEE70021481E02F05C
:100E6000CDFA012080076849086068496648C1607A
:100E7000002065494860002163480161816001F0FC
:100E80001BFC614801F046FC00220121052000F016
:100E900005FB052000F0F6FA00220121062000F0F3
:100EA000FDFA062000F0EEFA00220121072000F0F2
:100EB000F5FA072000F0E6FA554856490860E120A7
:100EC00040024860002153488160C1600161816136
:100ED0000C2141618069002800D000E000BF4D482E
:100EE0006030407A00280ED14248406B01218903CE
:100EF000084340494863012200211B2000F0CEFA3C
:100F00001B2000F0BFFA0221424860304172603875
:100F100000680068400840003E49096808603D4894
:100F200005F090F93B48406A002802D0394805F0A6
:100F300079F83848006840680921C9028843354972
:100F4000096848603348006880682A21884331492D
:100F5000096888602F4800680068012108432D490E
:100F6000096808602B4805F0D5F82A480068006831
:100F7000FF210131084327490968086025480068B6
:100F80008068012108432349096888602148006876
:100F90000068202188431F49096808601E4801F045
:100FA00069F8002822D11D481B490860FF20053040
:100FB00048600021184881601021C1610021C16092
:100FC0004161016101620121490281610021816267
:100FD0000721C162002141620648406B01210903DB
:100FE0000843044948630C4801F048F814B010BDA8
:100FF000002002400010024000700040200000204D
:10100000FFFFFF0000E000E0100300207F0C000065
:101010000038014050020020BC0200200030014096
:101020007047F0B5BDB007460C4615461E46F02287
:101030000021684605F0B0FD6A461021384605F0EB
:10104000CBFB6A462946204605F098FB102E06DBAE
:101050006A46294610312046103005F08FFB3DB01E
:10106000F0BDF0B585B0074600BF00BF38467D2112
:10107000C900484300210391029004F039FD019119
:10108000009000BF04F034FD019B009A841A99413E
:101090006425002620462A4633460491FFF754F87B
:1010A000039B029A801A9941ECD305B0F0BD000071
:1010B00010B50B484069C007C00F002804D003F0EA
:1010C00013FE012006494861054840690221084095
:1010D000002804D003F0D6FD02200149486110BD6C
:1010E0000004014010B5064840690421084000286A
:1010F00004D003F0ADFD04200149486110BD00009B
:101100000004014010B50E484069FF21013108403C
:10111000002806D0084600F095F8FF200130084965
:10112000486107484069012189020840002805D02C
:1011300003F066FC012080020149486110BD0000F7
:101140000004014000B585B03A48C06A0121084357
:101150003849C8620846C06A022108433549C86256
:10116000C814009001200190002002906946324886
:1011700000F06AF804200090012001900290022003
:10118000039069460520000700F05EF82B480190A7
:10119000002002902A4800900220039069462648C9
:1011A00000F052F8402000900220019001200290AF
:1011B000022003900020049069461F4800F044F884
:1011C000802000900020049069461B4800F03CF805
:1011D0002020009002200190029003200390002024
:1011E000049069460520000700F02EF8802000904A
:1011F000002004900220029069460520000700F0BC
:1012000023F84020009000200490022002906946BC
:101210000520000700F018F8102000900120019030
:1012200002900320039069460520000700F00CF8A7
:1012300005B000BD00100240000400500000111075
:101240000704000070470000F0B503460A46002777
:10125000002400200021DAE001258D402F4615688A
:101260003D402C46BC4276D15568022D02D05568CF
:10127000122D15D1CD08AD001E46203670594D07F0
:10128000EE0E0F25B5400646AE4330464E07F60E2D
:101290001569B5402843CD08AE001D462035A8513C
:1012A0005568012D08D05568022D05D05568112DBF
:1012B00002D05568122D18D198684E000325B5400C
:1012C0000646AE4330464E00D568B5402843986088
:1012D000586801258D400646AE43304610265568B5
:1012E00035402D098D402843586018684E0003256D
:1012F000B5400646AE4330461579AD07AD0F4E00FA
:10130000B54028431860D8684E000325B54006460E
:10131000AE4330464E009568B5402843D86001265C
:10132000360755683540B54270D13B4D6D6B01268F
:101330003543394E7563394D8E08B600A8598D076F
:101340002E0F0F25ED43B540284005252D07AB4254
:1013500002D1002515E059E0314DAB4201D1012504
:101360000FE0304DAB4201D102250AE02E4DAB42D9
:1013700001D1032505E02D4DAB4201D1042500E04C
:1013800005258E07360FB5402843244D8E08B6003C
:10139000A851274D28680546A5432846012636044E
:1013A00055683540B54202D1054625432846204DB3
:1013B000286068680546A5432846012676045568D6
:1013C0003540B54202D1054625432846184D686090
:1013D000A8680546A54328460126360555683540C8
:1013E000B54202D1054625432846114DA860E8685C
:1013F0000546A54328460126760555683540B54281
:1014000002D1054625432846094DE860491C1029AC
:1014100000D221E7F0BD00000010024008000140AA
:101420000004005000080050000C0050001C005048
:1014300000040140002A01D0816100E08162704710
:101440000148006870470000000000200248006862
:10145000401C0149086070470000002070B5044638
:1014600000F0A2F906467D21C900FEF743FE0546BD
:1014700001F006F900222146501E00F00FF800206E
:1014800070BD000000BFC206D20E01219140024A89
:10149000116000BF7047000000E100E070B5044635
:1014A0000D4616462946204601F06CFF70BD00002F
:1014B00070B504460E460025B8480068C007C00F46
:1014C000B0426ED2B5480068400840003043B3498E
:1014D000086008460068C007C00FB04201D0012074
:1014E00070BD022120680840022807D1AC48C068BE
:1014F000F0218843A1680843A949C8602078C00743
:10150000C00F00284CD06068022809D1A4480068A8
:10151000012149040840400C002824D10120DFE7C4
:101520006068002809D19E480068012149020840EE
:10153000400A002817D10120D2E76068032809D1AA
:1015400097480068012149060840400E00280AD14A
:101550000120C5E79248006804210840800800285F
:1015600001D10120BCE78E48C06880088000616816
:1015700008438B49C860FFF763FF0546606802288F
:1015800010D107E0FFF75CFF401B8649884201D974
:101590000320A5E78248C0680C2108400828F1D143
:1015A000DAE035E0606803280FD107E0FFF748FF75
:1015B000401B7C49884201D9032091E77848C068E4
:1015C0000C2108400C28F1D1C6E0606800280FD13A
:1015D00007E0FFF735FF401B7249884201D903201D
:1015E0007EE76F48C0680C2108400028F1D1B3E0C5
:1015F00007E0FFF725FF401B6A49884201D9032015
:101600006EE76748C0680C2108400428F1D1A3E0C8
:10161000022120680840022807D16148C068F021F3
:101620008843A16808435E49C8602078C007C00F9E
:1016300000284CD06068022809D15948006801216F
:1016400049040840400C002824D1012048E7606884
:10165000002809D152480068012149020840400A87
:10166000002817D101203BE76068032809D14C48C6
:101670000068012149060840400E00280AD10120D7
:101680002EE747480068042108408008002801D15F
:10169000012025E74248C06880088000616808434F
:1016A0003F49C860FFF7CCFE0546606802280FD1AD
:1016B00007E0FFF7C5FE401B3A49884201D90320E5
:1016C0000EE73748C0680C2108400828F1D134E003
:1016D000606803280FD107E0FFF7B2FE401B3149D5
:1016E000884201D90320FBE62D48C0680C21084040
:1016F0000C28F1D121E0606800280FD107E0FFF746
:101700009FFE401B2749884201D90320E8E6244870
:10171000C0680C2108400028F1D10EE007E0FFF777
:101720008FFE401B1F49884201D90320D8E61C4880
:10173000C0680C2108400428F1D11848006840080E
:10174000400030431549086008460068C007C00FD4
:10175000B04201D00120C3E60421206808400428DB
:1017600008D10F48C068072109028843E16808438F
:101770000B49C860082120680840082809D108489A
:10178000C0680721C90288432169C9000843044988
:10179000C8600020FFF762FE0020A1E600200240A2
:1017A000001002408813000010B500F0CBF8064985
:1017B000C968F02211400909044A515CC840044933
:1017C00008600846006810BD001002400D000020AF
:1017D000200000203F21016047490968012292044E
:1017E0001140914203D10521090441600AE04249B8
:1017F0000968012212041140914201D1416001E0C7
:10180000002141603C490968FF22013211409142A8
:1018100002D10121C16101E00021C161364909689D
:10182000090E016234494968072252031140490BED
:10183000416231498968C907C90F002902D00121D5
:10184000816101E0002181612B490968C907C90F45
:10185000002902D00121C16001E00021C1602649B8
:1018600049681F2212021140090A016122494031D0
:101870000969012292021140914203D10521090216
:1018800081600BE01C4940310969FF22013211409F
:10189000914201D1816001E000218160164940310F
:1018A0000969C907C90F002902D00121416101E07E
:1018B000002141611049096801221206114091423C
:1018C00002D10221816201E0012181620A49C968D5
:1018D000012212041140C1620749C9680F22920413
:1018E00011408A0C02630449C96803229205114021
:1018F0008A0D4263704700000010024010B5FFF7E8
:1019000053FF0549C968072212021140090A034A18
:10191000515CC84010BD0000001002400D000020C6
:1019200010B5FFF741FF0549C9680722D2021140EF
:10193000C90A034A515CC84010BD000000100240B3
:101940000D000020F8B5002400270020009000259D
:10195000002629484068072149030840450BA80094
:1019600026490D582448C0680C210840002806D09C
:10197000042806D008280ED00C2838D10DE02E46B9
:1019800037E01D48006810210840002801D01C4E97
:1019900000E01C4E2DE01C4E2BE01748C0680F21C4
:1019A0008904084004461448C0680321890508409A
:1019B0000746A00C15490C5CB80D471C0E48C068C2
:1019C00001210904084000900098002807D10D4922
:1019D000614308463946FEF78DFB064606E00A4994
:1019E000614308463946FEF785FB064601E02E4670
:1019F00000BF00BF3046F8BD001002407C6F0008F9
:101A000000093D000024F40000127A0004000020C8
:101A100070B5044600252078C007C00F002871D09B
:101A2000FC48C0680C21084008280BD0F948C06861
:101A300008400C2814D1F748C06801210904084067
:101A400088420DD1F3480068012149040840400C48
:101A5000002857D049106068884253D0012070BDDB
:101A6000EC480068052109048843EA490860FFF74B
:101A7000E7FC054607E0FFF7E3FC401BE649884228
:101A800001D90320EBE7E34800680121490408403D
:101A9000400C0028EFD1DF48006805210904884385
:101AA00061680843DB4908600121090460688842D5
:101AB00014D1FFF7C5FC054607E0FFF7C1FC401B4A
:101AC000D549884201D90320C9E7D24800680121DD
:101AD00049040840400C0028EFD013E0FFF7B0FCA9
:101AE000054607E0FFF7ACFC401BCB49884201D913
:101AF0000320B4E7C7480068012149040840400CAE
:101B00000028EFD102212068084002286AD1C1488C
:101B1000C0680C21084004280BD0BE48C0680840AB
:101B20000C281DD1BB48C0680121090408400028C9
:101B300016D1B8480068042108408008002804D065
:101B4000E068012801D0012089E7B24840681F21E0
:101B500009028843216909020843AE49486041E00F
:101B6000E068002824D0AB48006809218843E16878
:101B70000843A8490860FFF763FC054606E0FFF745
:101B80005FFC401B642801D9032068E7A148006876
:101B90000421084080080028F1D09E4840681F2199
:101BA000090288432169090208439A49486019E0FB
:101BB0009848006809218843E1680843954908600E
:101BC000FFF73EFC054606E0FFF73AFC401B6428A1
:101BD00001D9032043E78F480068042108408008AA
:101BE0000028F1D110212068084010286FD18948C1
:101BF000C0680C21084000281FD1864800680121D8
:101C000049020840400A002804D0E069012801D0B8
:101C1000012024E77F484068072149038843616A1F
:101C200008437C494860084640680002000A218C4D
:101C3000090608437749486049E0E06900282CD04C
:101C400074480068FF210131084372490860FFF7BA
:101C5000F7FB054606E0FFF7F3FB401B642801D9BC
:101C60000320FCE66B480068012149020840400A55
:101C70000028F0D067484068072149038843616A1B
:101C8000084364494860084640680002000A218C05
:101C9000090608435F49486019E05E480068FF2173
:101CA000013188435B490860FFF7CAFB054606E03F
:101CB000FFF7C6FB401B642801D90320CFE6554837
:101CC0000068012149020840400A0028F0D108219B
:101CD00020680840082839D1606900281BD04D4889
:101CE00040300069012108434A4940310861FFF74B
:101CF000A7FB054606E0FFF7A3FB401B642801D9BC
:101D00000320ACE643484030006902210840400807
:101D10000028F0D01AE03F484030006940084000F9
:101D20003C4940310861FFF78BFB054606E0FFF7B1
:101D300087FB401B642801D9032090E635484030DA
:101D400000690221084040080028F0D120212068C5
:101D50000840202849D1A069002826D000BF2D487E
:101D60008068012108432B4988600846406B0121A7
:101D70000843284948632948006A49140843274909
:101D8000086200BFFFF75CFB054606E0FFF758FB63
:101D9000401B642801D9032061E61E4880680221A7
:101DA000084040080028F1D01FE000BF19488068B3
:101DB00040084000174988601848006A18490840E0
:101DC0001649086200BFFFF73BFB054606E0FFF738
:101DD00037FB401B642801D9032040E60D4880688A
:101DE0000221084040080028F1D104212068084061
:101DF000042878D10748806B890608430549886321
:101E0000084800688915084306490860FFF718FB71
:101E1000054610E000100240881300000000014059
:101E2000FEDFFFFF00700040FFF70AFB401B642845
:101E300001D9032013E668480068FF2101310840FA
:101E40000028F1D0654800690521090288436349EB
:101E50000861FFF7F5FA054607E0FFF7F1FA401BC6
:101E60005F49884201D90320F9E55C4800690121F6
:101E700049020840400A0028EFD15848006905216E
:101E800009028843A1680843544908618915A0687C
:101E9000884214D1FFF7D4FA054607E0FFF7D0FADD
:101EA000401B4F49884201D90320D8E54B480069BF
:101EB000012149020840400A0028EFD013E0FFF753
:101EC000BFFA054607E0FFF7BBFA401B44498842CA
:101ED00001D90320C3E541480069012149020840B6
:101EE000400A0028EFD1A06A002872D03B48403851
:101EF000C0680C2108400C2869D0A06A022848D18B
:101F00003648403800680121090688433349403982
:101F10000860FFF795FA054606E0FFF791FA401BC7
:101F2000642801D903209AE52C4840380068012133
:101F300049060840400E0028EFD1616B206B084332
:101F4000E16A084325494039C968FD2212049143DA
:101F5000084322494039C860084600680121090643
:101F600008431E4940390860FFF76AFA054606E053
:101F7000FFF766FA401B642801D903206FE5174874
:101F800040380068012149060840400E0028EFD083
:101F90001FE01248403800680121090688430F49B4
:101FA00040390860FFF74CFA054606E0FFF748FAAB
:101FB000401B642801D9032051E5084840380068D7
:101FC000012149060840400E0028EFD101E0012020
:101FD00045E5002043E5000000700040401002404D
:101FE00088130000704710B5044602F0D5FB10BD01
:101FF00010B504462068C068FF2101310840000A7E
:10200000002810D0206880680901084000280AD004
:102010002046FFF7E8FF2068C06880210840124989
:1020200008432168C8602068C0680121490208404F
:10203000400A002810D02068806809010840002864
:102040000AD02046FFF7CEFF2068C06880210840F4
:10205000064908432168C8600120400404494861DA
:1020600001212120015510BD7FFEFFFF7FFDFFFFF5
:102070000004014001465120405C704710B5044601
:10208000002C01D1012010BD5120005D002802D19B
:10209000204600F038F802215120015520680068E0
:1020A0004021884321680860A16860680843E168AE
:1020B0000843216908436169084301225202A1696A
:1020C00011400843E1690843216A0843A16A0843B3
:1020D00021680860A069000C04210840616A084377
:1020E000216848602168E06A08612068C069910041
:1020F00088432168C86100215220015501215120E7
:1021000001550020BFE77047F8B504460E46154656
:102110001F465120005D01287CD1002E01D0002DEA
:1021200001D10120F8BD00BF5020005D012801D180
:102130000220F7E701215020015500BF1221512054
:1021400001550021522001552663A586E586002011
:10215000E064A064A087E08701214903A06A884267
:102160000DD100BF2068006888432168086020689E
:1021700000680121490308432168086000BF01216C
:10218000C903A068884205D1206800684910084347
:10219000216808602068006840210840402804D079
:1021A00020680068084321680860E068002832D190
:1021B0006068002802D0E08E012808D1216B481CFD
:1021C000206308782168C860E08E401EE08612E037
:1021D0003B4600220221204602F046FB002801D0A7
:1021E00003209FE7216B481C206308782168C860A2
:1021F000E08E401EE086E08E0028E9DC01214903E4
:10220000A06A88423AD120680068491008432168D2
:10221000086033E065E06068002802D0E08E0128A5
:1022200009D1206B00882168C860206B801C206366
:10223000E08E401EE08613E03B460022022120464D
:1022400002F012FB002801D003206BE7206B00880E
:102250002168C860206B801C2063E08E401EE086F1
:10226000E08E0028E8DC01214903A06A884205D1FC
:102270002068006849100843216808603B46002236
:102280000221204602F0F0FA002807D05220005D1B
:102290002021084352210855032043E73B460122F1
:1022A0008021204602F0E0FA002807D05220005D8D
:1022B0002021084352210855032033E7A068002855
:1022C00005D100BF2068C0682068806800BF012178
:1022D0005120015500BF00215020015500BF0020B2
:1022E00020E702201EE7FEB504460E4617461D46AF
:1022F0000020019000905120005D0190019801287C
:1023000002D00198222875D1002E03D0002F01D0D1
:10231000002D01D10120FEBD00BF5020005D01282D
:1023200001D10220F7E701215020015500BF5120C3
:10233000005D012802D13221512001550021522097
:102340000155A763A587E5872663A586E586002056
:10235000A064E06401214903A06A88420DD100BF56
:1023600020680068884321680860206800680121AF
:10237000490308432168086000BF206800684021C5
:102380000840402804D0206800680843216808609D
:102390000121C902E06888427DD16068002807D029
:1023A000FF210531606888420CD1E08E012809D1F7
:1023B000206B00882168C860206B801C2063E08E41
:1023C000401EE086E08E002820D101214903A06A4A
:1023D000884205D1206800684910084321680860D8
:1023E000002201212046089B02F03EFA002802D07C
:1023F000032090E742E12068C068A16B0880A06BD1
:10240000801CA063E08F401EE087D7E035E000220B
:1024100002212046089B02F027FA002801D0032061
:1024200079E7206B00882168C860206B801C2063DE
:10243000E08E401EE086E08E00280AD1012149038B
:10244000A06A884205D120680068491008432168C5
:102450000860002201212046089B02F005FA0028AE
:1024600001D0032057E72068C068A16B0880A06BEB
:10247000801CA063E08F401EE087E08E0028C6DC51
:1024800060680028C1D1002201212046089B02F08B
:10249000EBF9002800E00DE001D003203BE72068C5
:1024A000C068A16B0880A06B801CA063E08F401EF9
:1024B000E08783E06068002807D0FF21053160686D
:1024C00088420BD1E08E012808D1216B481C206383
:1024D00008782168C860E08E401EE086E08E002803
:1024E0001CD101214903A06A884205D120680068F7
:1024F0004910084321680860002201212046089BFA
:1025000002F0B2F9002801D0032004E72068C06877
:10251000A16B0870E08F401EE0874FE034E000229E
:1025200002212046089B02F09FF9002801D00320D9
:10253000F1E6216B481C206308782168C860E08EB2
:10254000401EE086E08E00280AD101214903A06ADE
:10255000884205D120680068491008432168086056
:10256000002201212046089B02F07EF9002801D0BC
:102570000320D0E62068C068C1B2A26B501CA063E3
:102580001170E08F401EE087E08E0028C7DC606895
:10259000002813D1002201212046089B02F064F993
:1025A000002801D00320B6E62068C068C1B2A26B43
:1025B000501CA0631170E08F401EE0870121490389
:1025C000A06A884213D1002201212046089B02F014
:1025D0004BF9002807D05220005D02210843522108
:1025E0000855032097E62068C06880B20290012257
:1025F00080212046089B02F037F9002807D052209E
:10260000005D2021084352210855032083E6012163
:102610005120015520688068102108400009009071
:102620004902A06A884222D1009800281FD0522077
:10263000005D022108435221085501214903A06A87
:1026400088420DD100BF2068006888432168086077
:10265000206800680121490308432168086000BF21
:1026600000BF00215020015500BF012053E600BFEC
:1026700000215020015500BF00204CE602204AE610
:1026800070B504462546681E0949884201D90120D3
:102690000CE0681E074948610321081F00F072FE24
:1026A00000200449886107200861002070BD0000F7
:1026B000FFFFFF0000E000E010B50446002C01D150
:1026C000012010BD3520005D002802D1204600F019
:1026D0000DF8022135200155211D206803F020FA54
:1026E0000121352001550020EBE7000010B504461C
:1026F0000748806B01210843054988630022114681
:102700000F20FEF7CBFE0F20FEF7BCFE10BD000031
:102710000010024001460868C068012210430A68A0
:10272000D06008680068012210430A681060002029
:102730007047704710B504462068006902210840C0
:10274000400800281CD02068C068084040080028C5
:1027500016D0481F21680861012020752068806913
:102760008007800F002803D02046FFF7E2FF05E036
:10277000204600F09DF8204600F09BF800202075D0
:102780002068006904210840800800281DD02068C6
:10279000C06808408008002817D0C8432168086135
:1027A0000220207520688069032109020840002862
:1027B00003D02046FFF7BDFF05E0204600F078F883
:1027C000204600F076F80020207520680069082176
:1027D0000840C00800281CD02068C0680840C00815
:1027E000002816D0C843216808610420207520689D
:1027F000C0698007800F002803D02046FFF799FFAB
:1028000005E0204600F054F8204600F052F8002081
:1028100020752068006910210840000900281DD09B
:102820002068C06808400009002817D0C843216804
:102830000861082020752068C0690321090208404A
:10284000002803D02046FFF774FF05E0204600F083
:102850002FF8204600F02DF8002020752068006930
:10286000C007C00F01214840484000280CD0206814
:10287000C068084048404840002805D0C81E21686C
:102880000861204600F016F82068006940210840E1
:10289000800900280BD02068C06808408009002803
:1028A00005D0C84321680861204600F004F810BD37
:1028B00070477047704770477047704700BFFEE72A
:1028C00010B502F065FB002029490860294908601D
:1028D00001202949087000202849087028490870FB
:1028E00001202849087000202749087027490870EE
:1028F0000120274908800021264A11605160264A9C
:1029000011605160254908702549264803F0DCFA1A
:102910002549264803F0D8FA2549264803F0D4FA79
:102920002549264803F0D0FA2549264803F0CCFA79
:102930002549264803F0C8FA0320254908700120DC
:10294000244908700C490870FF20234908800120A1
:10295000224908700020094908700949087001E0FF
:1029600003F0D2FA1B4800780028F9D010BD00000F
:102970003801002058010020A8000020A9000020F4
:10298000AA000020EE000020EF0000201901002026
:102990001A01002020010020280100201801002039
:1029A000DD340008F80C002091340008800B002072
:1029B0000D460008280C0020E9440008D00C002037
:1029C00089450008E40C0020753400083C0C002008
:1029D000F000002000010020EC000020F1000020A9
:1029E00033B58DB05A480078062822D1594800786E
:1029F00059495A4A0023089309920A910B900122DF
:102A0000049306930821564807930592504B0024DF
:102A10001C57005D00920292039101905148524B65
:102A200000241C570257002301200D9902F060FD7D
:102A300022E0484800784849484A00230893099210
:102A40000A910B90012204930693082144480793AE
:102A500005923F4B00241C57005D00230093029217
:102A6000039101903F48404B00241C57025700231C
:102A700001200D9902F03CFD3C480078FF2802D16E
:102A800006200FB030BD39480078002803D100215E
:102A9000374A1160516037480068012108433549C1
:102AA00008603549354803F017FA344803F06CF8EC
:102AB00003F02AF804460D4608A9497E1322514323
:102AC0002F4A891808460B30FDF797FB284B0CCB93
:102AD000101A8B410AD208A9497E13225143284A71
:102AE000891808460B30FDF788FB01E0204903C92F
:102AF000201A8D4124D208A9497E13225143204A2D
:102B0000891808460B30FDF778FB194B0CCB101ACF
:102B10008B410AD208A9497E13225143184A8918C9
:102B200008460B30FDF769FB01E0114903C9044673
:102B30002146144803F0D0F9124803F025F804E0C8
:102B400004480178104802F04DFC002099E700008D
:102B5000A90000200401002010010020C0C62D00A3
:102B60009E72000898720008A80000201901002039
:102B7000280100205801002060AE0A00F80C002057
:102B8000D4000020280C0020A80B0020F0B587B04E
:102B9000002400200690914800780590002702F05C
:102BA000B3FF039102900322002104A803F0F4FF75
:102BB0008B4B029903980CCB8A1A9841894B0ACB0C
:102BC000891A834103D20021864A11605160002096
:102BD000C0430090019000245CE083480078012805
:102BE00049D113216143814A891808460B30FDF70A
:102BF00004FB05460E46132161437C4A8918C81C14
:102C0000FDF7FBFA039B029A101A8B41281A9E418A
:102C100009D2132060437549401802460B32002048
:102C20000146FDF701FB13216143704A89180846EC
:102C30000B30FDF7E2FA002358405940084327D0F3
:102C400013216143694A891808460B30FDF7D5FA0C
:102C5000009B019AC01A914108D213216143634A33
:102C6000891808460B30FDF7C8FA01E00199009871
:102C7000019100900CE0002100910191132060432C
:102C80005A49401802460B3200200146FDF7CCFAA3
:102C9000601CC4B2012CA0DB002451E00120A04044
:102CA000534909880840002847D006216143514A0A
:102CB0008818FDF798FA002800D13FE0062060430D
:102CC0004C4940180079000700174B4900228A56EA
:102CD00090420DDC062060434649401804214156CD
:102CE0000811454900228A56904201DB012000E08C
:102CF0000020002800D121E0062161433D4A8918C7
:102D0000497913225143394A891808460B30FDF797
:102D100074FA002358405940084300D00EE031486F
:102D200001684068002251405040014300D005E056
:102D30003846791CCFB204A90C5400BF601CC4B241
:102D4000032CABDB002F33DD0024791E002004F0C0
:102D500087F8C0B2069029E004A90698095C05919D
:102D600039460698401CFDF7DBF9C8B206900622EA
:102D7000059951431F4A8818FDF735FA054629463B
:102D8000012001F0FFFD00280ED0144905980870BD
:102D90001A4800681021884318490860184802F052
:102DA000E1FF002007B0F0BD601CC4B2032CD3DBF0
:102DB000124800681021084000280CD110480099E2
:102DC00003F08AF80E4802F0DFFE0C48006810217C
:102DD00008430A4908600120E4E70000F0000020F1
:102DE000200100202801002018010020D40000202C
:102DF000EC000020AB000020A900002058010020BA
:102E0000800B0020F7B59CB01E98002805D140200B
:102E10001A900020FE49087004E080201A900120DA
:102E2000FB4908700020199019981890F9480088FB
:102E300080B2179000201690022015900020149068
:102E4000461E3746F449088002F05EFE1391129048
:102E50000020119001201090F04800687D21C900E9
:102E6000401AEF490860EF4800687D21C900401A08
:102E7000ED490860E8490A880988491CE64B1A9818
:102E80001980EA498854EA4802781846018800887F
:102E9000401C1880E5484254E54800880004010EB3
:102EA000184602880088401C1880E0488154E04899
:102EB00000680002010E184602880088401C188035
:102EC000DA488154DA480068000E19460A880988F1
:102ED000491C1980D549885419460A880988491C13
:102EE00019981980D14988541798C2B21846018898
:102EF0000088401C1880CD4842541798001219468B
:102F00000A880988491C1980C849885416980028DD
:102F100010D000200BE016990A5CBF490B88098885
:102F2000491CBD4C2180C149CA54411CC8B21899E2
:102F30008842F0DBB8490A880988491CB64B1598C5
:102F40001980BA498854F0220021BA4803F024FEBF
:102F5000B84A1021B84803F03FFC0020B749487137
:102F6000B34800788871B24800880004000EC87128
:102F7000AF4800680002000E0872AD480068000EFD
:102F80004872A44800788872A24800880004000EA5
:102F9000C872A04800680002000E08739D480068CF
:102FA000000E487328E0A5491098C8731098401C7B
:102FB00080B210909F4AA249A04803F0DFFB002096
:102FC00010E011990A181C99895C9D4A125C5140C5
:102FD000914A13881288521C8F4C2280934AD154F4
:102FE000411C88B21028ECDB1D98103880B21D906F
:102FF00011981030C0B211901D981028D3DA1D9886
:1030000000281DDD8D491098C8738A4A8C498B4869
:1030100003F0B4FB002010E011990A181C99895C98
:10302000874A125C51407C4A13881288521C7A4CA1
:1030300022807E4AD154411C88B21D998842EBDB24
:103040000020804948717A48007888717848008863
:103050000004000EC871764800680002000E087275
:1030600073480068000E48726A48007888726948A0
:1030700000880004000EC872664800680002000E56
:10308000087364480068000E487363480078C8738A
:1030900014A961480078654B10220191009069499C
:1030A0006948FDF7CCFB1498C2B25B4801880088E0
:1030B000401C594B18805D48425414980004010E7E
:1030C000184602880088401C18805848815414987B
:1030D0000002010E184602880088401C18805348E0
:1030E00081541498000E19460A880988491C1980D1
:1030F0004E49885455480078FF2801D11FB0F0BDD3
:1031000052480078002803D10021514A11605160D3
:10311000504B139912980CCB821A99414C48036872
:103120004068D21A814171D30021494A116051602F
:1031300000200D9062E04848007801284DD113220C
:103140000D995143454A891808460B30FDF755F84B
:1031500004460D4613220D995143404A8918C81C54
:10316000FDF74BF8139B129A101A8B41201A9D41C0
:103170000AD213210D9848433849401802460B32B1
:1031800000200146FDF750F813220D995143334AB0
:10319000891808460B30FDF730F800235840594095
:1031A000084327D013220D9951432C4A8918084609
:1031B0000B30FDF722F8801BB94109D213220D997B
:1031C0005143264A891808460B30FDF716F801E0EE
:1031D0003046394606460F460CE000263746132196
:1031E0000D9848431D49401802460B320020014605
:1031F000FDF71AF80D98401CC0B20D900D980128EB
:1032000099DB0221002003F02BFE29E078E000008A
:1032100031010020080100200401002040010020AD
:103220004C0100204401002050010020A80B002088
:10323000600000201C0D0020740000206C010020A4
:103240000C0D00205C01002064000020190100200A
:10325000280100202001002018010020D4000020B7
:1032600035490870354800681021884333490860A3
:10327000334802F077FD3048007806225043314A47
:10328000811806220EA8FCF79CFF00202E4908702A
:103290002E4800782E492F4A0023089309920A915C
:1032A0000B9001220493069308212B480793059263
:1032B0002A4B00241C57005D0023009302920391C7
:1032C00001902748274B00241C5702570023012058
:1032D0000E9902F00DF919480068012108431749B9
:1032E00008602149214802F0F7FD1848017820487C
:1032F00002F078F81F480068401C1E49086019E079
:103300000E48006810210840002813D11A4912986D
:103310000968401A194909680E1A3146084802F02E
:10332000DBFD074802F030FC044800681021084328
:103330000249086000BFE1E6F000002058010020CB
:10334000800B0020AB000020300100200401002091
:1033500010010020C0C62D009E720008A9000020A8
:1033600098720008A800002060AE0A00F80C002047
:10337000A80B0020080100202001002028010020C7
:103380007047000010B5002819DA1A4A03071B0F0E
:10339000083B9B089B00D2588307DC0EFF23A34009
:1033A0009A438B071B0E8407E40EA3401A43114B6C
:1033B0000407240F083CA408A4001A5118E00E4A80
:1033C00003231B02D21883089B00D2588307DC0E0C
:1033D000FF23A3409A438B071B0E8407E40EA340F0
:1033E0001A43054B032424021B198408A4001A5114
:1033F00010BD00001CED00E000E100E010B5002869
:1034000019DA1A4A03071B0F083B9B089B00D25886
:103410008307DC0EFF23A3409A438B071B0E840710
:10342000E40EA3401A43114B0407240F083CA408E0
:10343000A4001A5118E00E4A03231B02D218830875
:103440009B00D2588307DC0EFF23A3409A438B07CF
:103450001B0E8407E40EA3401A43054B03242402E9
:103460001B198408A4001A5110BD00001CED00E0D7
:1034700000E100E0012004490870044800680421CC
:103480008843024908607047340100205801002039
:103490001CB50F480068102188430D490860FFF7EC
:1034A00075FB002813D10A480078C007C00F002818
:1034B0000DD00848007806225043074A811806229A
:1034C0006846FCF77EFE01990098FFF789FA1CBD5B
:1034D00058010020F0000020AB0000201CB56F4810
:1034E0000078C007C00F00287ED06D480078002803
:1034F00041D16A480078C009002806D069480078A0
:103500006949087000206949086067480078654982
:103510000978884217DB0020634908706448006816
:10352000401C6349086063480078002804D15F4864
:103530000068401C5D4908605F4800684008400022
:103540005D49086017E0554800784008400053493D
:103550000870FFF71BFB00280DD1584800780622A1
:103560005043574A811806226846FCF72AFE019903
:103570000098FFF735FA494800788007C00F002807
:103580001BD050480078012805D04F4800784F499B
:103590000978884211DD00204D49087045480078BF
:1035A000002804D141480068401C40490860424856
:1035B00000684008400040490860454800780128FC
:1035C00052D13D4800681021084000284CD14049A4
:1035D00008703D4800783D490978884235DA3A4814
:1035E0000078401C384900E02EE008700878C10FD0
:1035F000091849104900411A01290DD13549002007
:103600000856401E002803DD00200856401E00E03A
:10361000002040B22F490870204800784008400040
:103620001E490870FFF7B2FA00281DD12348007820
:1036300006225043224A811806226846FCF7C1FD43
:1036400001990098FFF7CCF90EE023480088072184
:10365000084321490880184800684008400016497E
:1036600008600020174908701348006802210840CC
:10367000022804D11048006888430F4908600E48AA
:103680000068002802D10549087006E01349144873
:1036900002F022FC124802F077FA1CBD540100200F
:1036A00031010020EE000020EF0000200801002082
:1036B000F40000200C01002058010020F000002040
:1036C000AB00002030010020330100203201002037
:1036D00034010020A9000020EC00002060AE0A00A8
:1036E000F80C002070477047FFB59BB005460E46AA
:1036F00028781990199840111890002700201490EC
:10370000FF20139000201290119010900F900E90B7
:103710000D900C900B90FC480A90FC4809900024F6
:1037200001F006FCFA4802F01DFB1898012806D0AB
:1037300003287DD005287CD007287BD1FBE3F54802
:103740000078012800D1F7E3701E83B2F24A691CA9
:10375000F248FDF766FCF049491E19980870301FC1
:10376000C2B210ABED48FDF7BAF9701EEA49491E26
:10377000085C0106B01EE84A521E105C00040843B3
:10378000F11E515C09020843311F515C084311903E
:103790001099119888427DD1E14800780221884330
:1037A000801CDF490870DF491E980870DE480490CD
:1037B000F0220021DD4803F0EFF9DC4A1021D74860
:1037C00003F00AF81022002105A803F0E5F9012111
:1037D000684601750622D049153003F0D1F902225E
:1037E00006A80330049903F0CBF9D04AC64905A8CE
:1037F00002F0C4FF1022002105A803F0CDF9022138
:10380000684601750622C449153003F0B9F9022251
:1038100006A80330049903F0B3F9C44A05A809992E
:1038200002F0ACFFBC48401E0079C149086002E0CC
:1038300084E082E0FEE3B848401E40790002096857
:103840000843BB490860B448401E807900040968F9
:103850000843B7490860B048401EC079B5490860C0
:10386000AD48401E007A000209680843B14908606B
:10387000A948401E407A000409680843AD49086021
:10388000A548401E807A000609680843A9490860D7
:10389000A14800E049E0401EC07A4006400FA6491A
:1038A00008709D48401EC07A0007000FA3490871A8
:1038B0009948401E007B0007000FA1490860084698
:1038C0000068002801D1012008609D480068FCF7CD
:1038D00061FE00229B4B01910090FCF767FD039174
:1038E0000290FCF789FE9649086008460068FCF7DC
:1038F00051FE0022934B01910090FCF7A5FC03912F
:103900000290FCF779FE9049086085480078802194
:1039100088438030824908708C49002008568C49C1
:10392000087001207B49087000BF7D48007840087E
:103930004000401C7A49087005E700BF287900065E
:10394000E97809040843A97809020843697808431B
:10395000074678480068874239D07E4800680B9057
:103960001CE00B98FCF73FFCB84212D16C48007881
:103970000821884308306A4908700B98001D0A9096
:103980000B98143009900B982430FCF72CFC04465B
:1039900007E00B982830FCF726FC0B900B980028CA
:1039A000DFD100BF5E4800780007C00F00281AD1A1
:1039B0005B48007840084000401C59490870664840
:1039C000006840084000644908601FB0F0BD5448DA
:1039D000007808218843524908704B480A904B48A8
:1039E00009905E480468687917902021179808406C
:1039F0004011169017980007000F1590A879149998
:103A000008431490E8790002149908431490701E3A
:103A1000285C0106B01E285C00040843F11E695CA6
:103A200009020843311F695C08431190A1B2149840
:103A3000401A0C900C98002865DA200C0004012232
:103A40001204149989180843044601204449487116
:103A50008F713804000EC8713802000E0872380EDB
:103A600048728C722004000EC8722002000E087387
:103A7000200E4873301FC87310A9C0B22B46102205
:103A80000191009036490A98FCF7D9FE10991198D7
:103A9000884202D101200F908AE000200F90204838
:103AA00000780007C00F002807D014990C4608467C
:103AB0000B992431FCF7AFFB03E014980446274927
:103AC00008600120264948718F713804000EC871C2
:103AD0003802000E0872380E48728C722004000EF4
:103AE000C8722002000E0873200E4873301FC8737E
:103AF00010A9C0B22B4610220191009018490A98D3
:103B0000FCF79DFE54E02DE06400002074000020CE
:103B1000E40C002000010020510C00209400002043
:103B20005401002055010020020100201C0D00203E
:103B3000A40000206000002048010020CF000020E9
:103B40004001002080842E4144010020AA00002072
:103B5000A9000020E80000205801002038010020C2
:103B60005C010020200C0004149908430446012045
:103B7000F54948718F713804000EC8713802000E83
:103B80000872380E48728C722004000EC87220022F
:103B9000000E0873200E4873301FC87310A9C0B2FE
:103BA0002B46102201910090E7490A98FCF747FE46
:103BB0000F98012803D01099119888427BD1E348CF
:103BC000007802218843801CE0490870E0491E9873
:103BD00008700020DF490860DC4800780007C00F4B
:103BE000002805D00B9924312046FCF714FB01E096
:103BF000D94804601898052803D10120D7490870D6
:103C000002E00020D54908701698012805D1D44952
:103C10000870D44802F0A6F80BE00020D0490870E4
:103C2000D1480078D1490978884202DDCD4802F0B8
:103C300099F81598002807DD29460831CC48159ACF
:103C400002F09EFF15980D90304608381599401ADD
:103C5000001F002877DD0120079015980830285CA8
:103C60001390304608381599401A401FC0B2129080
:103C70000120C04948718F713804000EC8713802A4
:103C8000000E0872380E48728C722004000EC87242
:103C90002002000E0873200E4873F0220021B6485F
:103CA00002F07AFF1398002806D1B34A10210A982F
:103CB00002F092FD05E0D5E2AF4A1021099802F02A
:103CC0008BFD2FE0AB490798C8730798401C80B262
:103CD0000790A94AA949A74802F050FD0020089082
:103CE00015E02846083015994018401C0D994118D8
:103CF0000898085CA14A0899515C4840089A0D99B7
:103D000089189B4A50540898401C80B20890089823
:103D10001028E6DB12981038C0B212900D981030BF
:103D2000C0B20D9012981028CCDA1298002824DD29
:103D300090490798C873904A90498E4802F01EFD3A
:103D40000020089015E019E0284608301599401821
:103D5000401C0D99415C894A0898105C41400D98BF
:103D6000421CD2B20D92824A11540898401C80B273
:103D70000890129908988842E6DB00BF65E20E9829
:103D8000411CC9B20E917A49085C801E030002F002
:103D9000D0FC07050DD9D8D7D6D5D4006B4800780C
:103DA000402188434030694908704DE20720079060
:103DB0000020069005900490039002900E98411CFC
:103DC000C9B20E916A49085C40B204900498000799
:103DD000000F059004980006000F049068480078D2
:103DE000002811D16748002141560498814205D12D
:103DF0006548002141560598814205D000221146B0
:103E00000320FCF76BFF1FE20E98411CC9B20E9114
:103E10005749085C06900E98411CC9B20E9154494E
:103E2000085C00020699084306900E98411CC9B22E
:103E30000E914F49085C039003984006400F029092
:103E400003980007000F03900398002801D1012078
:103E500003900298002807D10698002804D1FE217B
:103E600007980840079031E0002008902BE0029866
:103E7000062810D1062208995143444A8818FCF7B5
:103E8000B2F900281BD00120089988400699084300
:103E900080B2069013E001200899884006990840F6
:103EA00000280CD0062208995143384A8818FCF79C
:103EB0009AF9002803D1FE21079808400790089836
:103EC000401CC0B2089008980328D0DB0498002852
:103ED00002DB0498072801DD012000E00020012812
:103EE00003D1FD210798084007900598002804DBBE
:103EF0000598052801DC012000E00020002803D1FE
:103F0000FB2107980840079007984007400F0728B3
:103F10000BD11C49049808701B49059808701C496E
:103F2000069808801B49039808700022032007990F
:103F3000FCF7D4FE88E1A7E1B4E183E14DE1B0E014
:103F4000A5E03DE028E000005C01002054010020D5
:103F500055010020F4000020380100203C01002021
:103F6000300100203C0C00203301002032010020F1
:103F7000500C00206C0100201C0D00200C0D0020B6
:103F8000F1000020A9000020A8000020AB000020C4
:103F9000EC000020EE0000200E98411CC9B20E91EA
:103FA000C249085CC249087008460178012088406F
:103FB000C0490880002211460420FCF78FFE43E12F
:103FC0000720089000BF00BF00BF0E98411CC9B277
:103FD0000E91B649085C069006980007000F0790FE
:103FE00006980006000F06900E98411CC9B20E916B
:103FF000AE49085C05900E98411CC9B20E91AB49C0
:10400000085C00020599084305900E98411CC9B24E
:104010000E91A649085C00040599084305906421A7
:104020000598484305900798002802DB0798072861
:1040300003DD00E027E1012000E00020012803D19A
:10404000FD210898084008900698002802DB069891
:10405000052801DD012000E00020012803D1FB211B
:1040600008980840089008984007400F072808D192
:104070009149079808710598FCF7CDF88F49069883
:104080000870002205200899FCF728FEDCE0FCF708
:104090007BFE08908A48027806200899FCF71EFEED
:1040A000D2E00320089000BF0E98411CC9B20E91C7
:1040B0007E49085C40B207900E98411CC9B20E912F
:1040C0007A49085C05900E98421CD2B205990E926E
:1040D000764A105C0002014305910E98421CD2B250
:1040E00005990E92714A105C000401430591642108
:1040F0000598484305900E98411CC9B20E9111468F
:10410000085C40B2694608760798032802DB0798E6
:10411000032803DDFE210898084008906846007EC9
:10412000000701176846182282561011814220DCD0
:104130006846007E00070017002807DB6846007EFF
:1041400000070017072801DC012000E000200028FC
:104150000FD06946182008560011002806DB1820E9
:1041600008560011072801DC012000E0002000288B
:1041700003D1FD2108980840089008988007800F17
:10418000032824D100206946487606220799514326
:104190004C4A8818062205A9FCF713F80120079954
:1041A00088404949098808434749088006220799F9
:1041B0005143444A8818FCF716F8002807D101211A
:1041C000079881404048008888433F490880002282
:1041D00007200899FCF782FD36E00E98411CC9B211
:1041E0000E913249085C0007000F089008980028DB
:1041F00003D10898401CC0B208900898FCF7CAF98F
:104200000022324B05910490FCF7D0F807910690FC
:10421000FCF7F2F92E49086008460068FCF7BAF985
:1042200000222A4B05910490FCF70EF807910690A6
:10423000FCF7E2F927490860002211460820FCF744
:104240004DFD01E0FFF7C1FB00BF0D990E988842BC
:1042500000DA94E52048007840084000401C1E49E0
:1042600008700FE000201D4908701B4800784008C6
:104270004000401C18490870194800684008400078
:10428000174908600EE000BF13480078400840005E
:10429000401C11490870124800684008400010494D
:1042A000086000BF00BF00BFCCE70000500C00203A
:1042B000190100201A010020CF0000204801002031
:1042C00055010020AB000020EC00002080842E412E
:1042D0004001002044010020540100203001002052
:1042E0005801002010B500F023FE07480078800632
:1042F000800F012806D10448007840084000401C87
:104300000149087010BD00005401002010B500F0F4
:104310000FFE074800788006800F012806D1044868
:10432000007840084000401C0149087010BD0000A2
:1043300054010020F0B589B001F0E6FB05460E46B9
:1043400000F0F6FD4F480078062148434E494018DA
:104350004079132148434D494018C21C2846314634
:10436000FBF762FF4A480078012831D145480078C0
:1043700006214843444940184079132148434349A2
:1043800040180B3002903F480078062148433E49D0
:1043900040184079132148433C494118487809782E
:1043A00004020C4300203B4A06CA03920491059084
:1043B0002046039B049A0599FBF7C6FE354B0CCBB0
:1043C000801A994101910090029AFBF72DFF10E0AD
:1043D0002C480078062148432B4940184079132186
:1043E00048432A49401802460B3200200146FBF799
:1043F0001BFF294860C0274903C9284A17880022A3
:104400000692079108903A46069BFBF79DFE214BCA
:104410000CCB801A9941224B0CCB80185941204A71
:1044200003C220480168204801F056FD1E4801F0F3
:10443000ABFB1E4801681E4801F04EFD1C4801F010
:10444000A3FB1C480078012810D11B49484202F008
:1044500007FD1A4909681A4A89184018014602904E
:10446000184801F039FD174801F08EFB114800781B
:10447000002804D114480078401C1349087009B082
:10448000F0BD0000F0000020AB000020D4000020B0
:104490001801002010010020200100201A01002036
:1044A000280100204C010020D00C002050010020E9
:1044B000E40C00203101002040420F0044010020A4
:1044C00080841E003C0C0020EF00002010B500F09E
:1044D0002FFD0448007840084000401C0149087046
:1044E00010BD000054010020F0B58DB0052500245A
:1044F00000261D4800781D490978401A44B2002C56
:1045000000DA0024032C00DB0825062C00D101264C
:1045100017480078302188431549087015480078FD
:1045200000281FD11449097806225143134A8818DC
:10453000FBF759FE074612480021012208910A9113
:10454000049105910691099207910B90082003951B
:104550000092019102900B48035D324639460120DA
:1045600000F0B0FD0DB0F0BDA90000204801002012
:104570005401002089010020F0000020BD0000202F
:10458000C0C62D009E72000870B58CB005240025B1
:1045900019480079032800DB082417480079062809
:1045A00000D1012515480078302188431030134987
:1045B00008701348007800281CD10F48FBF713FE41
:1045C000064610480021012208910A9104910591A4
:1045D0000691099207910B90082003940092019193
:1045E00002900548007908490B5C2A4631460120B3
:1045F00000F068FD0CB070BDCF0000205401002019
:1046000089010020C0C62D009E72000810B5034825
:104610000178034800F0E6FE10BD00000401002010
:10462000A80B00207047000010B57D20C000FCF7EB
:1046300018FD0A21014801F0EFFD10BD060200201F
:1046400070B5484800887D21C900884226DB0020DB
:104650004449088000BF1FE006214143424A8918AF
:104660004988491C8AB2062141433F4BC9184A80F8
:10467000062141431A468918097901290AD10621E0
:10468000414389184988042904DB0022062141435B
:10469000C9180A71411CC8B20328DDDB3FE033486A
:1046A00033490988445C7D21C90031480088401C99
:1046B000FBF736FD88B22E4908802C480988455CF6
:1046C0007D21C9002A480088401CFBF729FD88B2DB
:1046D0002749088000201FE006214143224A515CFF
:1046E000A14217D10621414389184978A94211D125
:1046F0000022062141431C4BC9184A800621414330
:104700001A4689180979002904D10122062141435A
:10471000C9180A71411CC8B20328DDDB00BF144868
:104720000088144909888842B9D113480088134980
:10473000884215DB0020104908800A21104801F04A
:104740006BFD094800790F4908710748807A887124
:104750000548007C087200220A210A48FEF752FB35
:1047600070BD000004020020E80100207C0700204A
:104770005A00002058000020020200208813000088
:10478000060200201E02002010B50248FDF730FC92
:1047900010BD00002C02002010B572B601F0F2F836
:1047A000FCF7FAFA00F0F4FB62B610BDF0B585B084
:1047B00005460E4617466806400E0390002210215B
:1047C00005200007FCF736FE01231B03012203A985
:1047D0000F48FDF799FC002410E000200290401ED5
:1047E000019001200003012302AA01A900900848BA
:1047F000FDF779FD02983055601CC4B2BC42ECDB79
:104800000122102105200007FCF714FE05B0F0BDC1
:10481000BC020020F8B505460E4617468020284306
:1048200000900022102105200007FCF703FE012361
:104830001B03012269460B48FDF766FC002408E0D3
:10484000311901231B0301220648FDF75DFC601CA2
:10485000C4B2BC42F4DB0122102105200007FCF7A2
:10486000E9FDF8BDBC020020FFB581B004460E464C
:104870001D460027FCF7E4FD0746039800283FD1BA
:1048800033E0681C002830D0002D04D0FCF7D8FDA0
:10489000C01BA84229D920684068E02188432168CC
:1048A0004860206800684021884321680860012131
:1048B0004903A06A88420DD100BF20680068884380
:1048C00021680860206800680121490308432168C5
:1048D000086000BF01215120015500BF0021502078
:1048E000015500BF032005B0F0BD2068806830404E
:1048F000B04201D1012000E000200028C1D03DE0FD
:1049000032E0681C00282FD0002D04D0FCF798FD61
:10491000C01BA84228D920684068E021884321684C
:1049200048602068006840218843216808600121B0
:104930004903A06A88420DD100BF206800688843FF
:104940002168086020680068012149030843216844
:10495000086000BF01215120015500BF00215020F7
:10496000015500BF0320BEE7206880683040B04298
:1049700001D1012000E000200028C2D10020B2E7D0
:1049800070470000F3B583B00C460027039800F091
:1049900017FA194804602046FBF7FCFD0546002283
:1049A000164BFBF76BFD01910090FBF725FE0446CB
:1049B0002002010E062000F0E3FA2004010E072079
:1049C00000F0DEFAE1B2082000F0DAFA052000F08B
:1049D00037FA0120FCF745FB039800F0BDF90746C4
:1049E00000F0A6FA5920C043874202DD002005B03E
:1049F000F0BD0120FBE700008C01002080844E40C8
:104A0000F0B58BB000200A90002784480078012878
:104A100002D002287ED1E6E04021122000F0B0FA58
:104A2000122000F08FF90A9008A9087A2021084086
:104A300020280ED1122000F0A3FA7948007800282F
:104A400001D176490870774801F08CF9FFF74AFCEC
:104A5000E1E0192000F076F940B2734908700020B7
:104A6000085680210840002807D06F480078C043CE
:104A7000401C0006870E7F4202E06B4800788710DA
:104A80001A2000F05FF90446002F52DA67480068E8
:104A90006749884225D93846FBF768FD079106909B
:104AA0002011FBF763FD039102902046FBF75EFDAA
:104AB000054600225F4BFBF7C7FB01910090039B6B
:104AC000029AFBF7C1FB05910490079B069AFBF73E
:104AD000BBFB09910890FBF76BFD40B2564908708B
:104AE00061E03846FBF742FD079106902011FBF785
:104AF0003DFD039102902046FBF738FD054600225C
:104B00004E4BFBF7A1FB01910090039B029AFBF730
:104B10009BFB00E07EE005910490079B069AFBF763
:104B200093FB09910890FBF743FD40B2424908709E
:104B300039E03E4800683E4988421AD92011FBF707
:104B400015FD079106902046FBF710FD0546002253
:104B5000384BFBF779FB05910490079B069AFBF70E
:104B600073FB09910890FBF723FD40B232490870AE
:104B700019E02011FBF7FAFC079106902046FBF79D
:104B8000F5FC00222D4B05910490FBF75DFB0546DB
:104B9000079B069AFBF758FB09910890FBF708FD65
:104BA00040B225490870132000F0CCF82449087061
:104BB0000846027823490020FFF7F8FD18480078DE
:104BC000002801D115490870164801F0CBF81648A5
:104BD0000023C35618480022825619480178194804
:104BE000FEF782FD17E0184801F0BCF8174800787E
:104BF000002807D0012804D10821122000F0C0F9B4
:104C000000BF00BF002005490870FFF793FB00BFFD
:104C100000BF00E000BF00BF0BB0F0BD8901002065
:104C2000A6010020440F0020AC0100208C010020D0
:104C300040DD4A1F00A063C0AD010020008064C0B9
:104C4000AE010020300E0020300F00208A0100202D
:104C500010B50A480078012802D002280AD108E0DD
:104C6000074801F07FF8002004490870FFF74EFB69
:104C700001E000E000BF00BF10BD0000890100207E
:104C8000440F002010B516480078012802D00228F1
:104C900022D110E01348007801280BD10221122004
:104CA00000F06EF91C2000F04DF88406A40E20469A
:104CB000FEF719FD11E00B48007801280BD1022105
:104CC000122000F05DF91C2000F03CF88406A40ED0
:104CD0002046FEF708FD00E000BF00BF10BD000049
:104CE00089010020A301002010B5122000F02AF84D
:104CF000C007C00F002807D00521122000F040F99E
:104D00000120FEF7EFFC06E00421122000F038F944
:104D10000020FEF7E7FC10BD10B509480078012817
:104D200002D0022809D102E0FFF7F0FA06E00020E5
:104D300003490870FFF7CAFB00E000BF00BF10BDC9
:104D40008901002038B50446012269462046FFF754
:104D50002DFD6846007838BDFEB50020019014484E
:104D600000681449884210D91B20FFF7EBFF009020
:104D7000FBF710FC064600220F4BFBF765FA0446D2
:104D8000FBF716FC40B201900FE01B20FFF7DAFFA3
:104D90000090FBF7FFFB04460022084BFBF754FA98
:104DA0000646FBF705FC40B201900198FEBD0000ED
:104DB0008C01002040DD4A1F00A063C0008064C059
:104DC00070B504461D480078A04200D170BD1B4854
:104DD00004700078002802D0012815D000BF002000
:104DE00000F02EF80120FFF7ADFF45066D0E2946B5
:104DF000012000F0C5F80021402000F0C1F830216A
:104E0000412000F0BDF816E0002000F019F8012064
:104E1000FFF798FF4006400E0546803529460120E1
:104E200000F0AEF80021402000F0AAF80021412057
:104E300000F0A6F800BF00BF00BFC7E78A0100204E
:104E400030B585B0044636480078844266D0344890
:104E50000470002C1AD133480078012853D0012067
:104E6000304908700220009011200190002002902B
:104E700002200390694605200007FCF7E5F90022AF
:104E8000022105200007FCF7D5FA3CE02548007810
:104E900000281BD00020234908702348C06A012144
:104EA00008432149C862022000900120019002902D
:104EB00002200390694605200007FCF7C5F900228F
:104EC000022105200007FCF7B5FA00BF032C0DD125
:104ED00016480078012816D00120144908700022D5
:104EE000022105200007FCF7A5FA0CE00F48007826
:104EF000002808D000200D49087001220221052059
:104F00000007FCF797FA0120FFF71CFFF821084083
:104F1000204305462946012000F032F805B030BD97
:104F2000B80100208801002000100240AF010020DD
:104F300010B5064800F016FF054800F013FF0020EA
:104F4000FFF77EFF00200349087010BD440F0020CA
:104F5000300F00208901002010B5064800F002FF44
:104F6000054800F0FFFE0120FFF76AFF002003491B
:104F7000087010BD440F0020300F00208901002070
:104F800013B50446012201A92046FFF743FC1CBDCE
:104F900070B50122042105200007FCF74BFA4149B6
:104FA000414800F091FF3F49404800F08DFF3D49E6
:104FB0003F4800F089FF00220121C9023D48FCF76B
:104FC00039FA0120FCF74DF80122D1023948FCF7EB
:104FD00031FA0620FCF745F819214B20FFF7D0FFE6
:104FE0000920FFF7AFFE054600210920FFF7C8FFA3
:104FF0003B20FFF7A7FEBF2108400446403421466E
:105000003B20FFF7BDFF00BF3B20FFF79BFE2021A9
:1050100008402028F8D03B20FFF794FEBF2108402D
:105020000446403421463B20FFF7AAFF00BF3B2047
:10503000FFF788FE202108402028F8D029460920C3
:10504000FFF79EFF002412E0610061181A4A505CCD
:10505000FFF7B6FE6200A218174BD21891786200D3
:10506000A218D2185078FFF78BFF601CC4B20F2C27
:10507000EAD30020FFF7A4FE002010490870104971
:1050800009690F4A526951400D4A526A5140084617
:1050900001F02CFF0120FFF793FE34213920FFF7A8
:1050A0006FFF70BD194D0008300F0020440F002025
:1050B000580F002000040050A6720008890100204B
:1050C0004000F81FFFB585B00E4614461D46129FDE
:1050D000B44806603046FBF75DFA0022B24B0191FE
:1050E0000090FBF7CBF903910290FBF785FA064697
:1050F0003002010E0620FFF743FF3004010E0720A7
:10510000FFF73EFFF1B20820FFF73AFF0598FFF7DF
:1051100057FE022C01D900BFFEE7E41DA34804603E
:10512000A3480560A3490E980870A3480770A349D7
:1051300013980870A24914980870A249159808702D
:10514000A14916980870A14917980870A0491898A5
:1051500008700C2D01D90C2502E0062D00D2062581
:10516000072C03D10B2D05D00C2D03D0082C05D115
:105170000C2D03D101209749087002E000209549C9
:1051800008701D20FFF7DEFD0007000FF02108402A
:10519000210108430E99490008433843C0B2014633
:1051A00003901D20FFF7ECFE1E20FFF7CBFD00074C
:1051B000000FF82108402901084314998900084389
:1051C00011990912FC2291430843C0B20146039091
:1051D0001E20FFF7D5FE2620FFF7B4FDF72108407B
:1051E0007C490978C9000843014603902620FFF74F
:1051F000C7FE1198C1B21F20FFF7C2FE109800042D
:10520000010E2020FFF7BCFE1098C1B22120FFF74D
:10521000B7FE012F03D122201399FFF7B1FE694891
:10522000007801280FD14420FFF78CFD4006400E86
:105230008030014603904420FFF7A2FE62480178C7
:105240002420FFF79DFE092C09D100BF0221362042
:10525000FFF796FE64213A20FFF792FE0EE0092C3C
:1052600008D102213620FFF78BFE7F213A20FFF77D
:1052700087FE03E003213620FFF782FE062D0FD1C3
:105280003120FFF75FFDF8210840401D01460390E3
:105290003120FFF775FE0C213720FFF771FE0EE07D
:1052A0003120FFF74FFDF8210840C01C0146039054
:1052B0003120FFF765FE0A213720FFF761FE00204D
:1052C00004904248007801280FD13320FFF73AFDBF
:1052D000BE2108404130014603903320FFF750FEC5
:1052E00019213B20FFF74CFE0EE03320FFF72AFD8B
:1052F000BE210840401C014603903320FFF740FECA
:105300001D213B20FFF73CFE3148007804902D48DA
:105310000078012810D11D211120FFF731FE402017
:10532000FFF710FD8006800EF32108400146039030
:105330004020FFF725FE0DE01F211120FFF720FE82
:105340004020FFF7FFFC8006800E014603904020BE
:10535000FFF716FE00210F20FFF712FE00210D209F
:10536000FFF70EFEFF22013200211B4801F014FC62
:1053700001201A4908701998002806D01848199970
:1053800000F0AAFD164800F0FFFB0498012803D1A5
:105390000520FFF755FD02E00620FFF751FD09B09B
:1053A000F0BD00008C01002080844E40940100205C
:1053B000980100209D010020A0010020A1010020F3
:1053C000A2010020A3010020A4010020A5010020CB
:1053D000A60100209C010020300E00208901002041
:1053E000440F0020F8B505460C4600263A480078E0
:1053F00001280ED13320FFF7A5FCBE210840074647
:1054000039463320FFF7BCFD19213B20FFF7B8FDDB
:105410000DE03320FFF796FCBE210840471C3946BB
:105420003320FFF7ADFD1D213B20FFF7A9FD2B48E1
:10543000047021462220FFF7A3FD00210E20FFF774
:105440009FFD00210D20FFF79BFD0120FFF77AFC57
:10545000F8218843002804D1FFF77EFD0120FBF7E7
:1054600000FE224629460020FFF7D4F91C480668B2
:105470001C480078012811D1F5211120FFF780FD8B
:105480004020FFF75FFC8006800EF32108400746AE
:10549000403739464020FFF773FD0EE0F721112019
:1054A000FFF76EFD4020FFF74DFC8006800E07469B
:1054B000403739464020FFF763FD02200A49087053
:1054C00031460A4800F008FD084800F05DFB032063
:1054D000FFF7B6FCF8BD0000A5010020AE010020DA
:1054E000A8010020A301002089010020300F002026
:1054F000FFB59BB01446259F002019901890FA49DB
:105500001C9808601C98FBF745F80022F74B0791A0
:105510000690FAF7B3FF09910890FBF76DF81C901D
:105520001C980002010E0620FFF72AFD1C980004BB
:10553000010E0720FFF724FD1C98C1B20820FFF7D9
:105540001FFD1B98FFF73CFC0920FFF7FBFB1990A0
:105550004D20FFF7F7FB189019984006400E803059
:1055600019908F211998084070301990802119984E
:10557000084080282FD1112C05DDF821189808400B
:10558000C01D189004E0F82118980840001D1890DC
:1055900018984007400F07280ED1052C00DA052483
:1055A000142C00DD1424F02119980840611F09070C
:1055B000090F084319901EE0022C00DA0224112C76
:1055C00000DD1124F02119980840A11E0907090FD8
:1055D000084319900FE00020C043844200DA0446DB
:1055E0000E2C00DD0E24F02119980840611C0907DB
:1055F000090F0843199009201999FFF7C1FC4D20A4
:105600001899FFF7BDFCBA4804702498022801D904
:1056100000BFFEE72498C01D2490B6492498086076
:10562000B5480760B54926980870B549279808809D
:10563000B44928980870B4492A980870B3492B983F
:105640000870B34929980870B2492C980870B2487C
:10565000B24908600C2F01D90C2702E0062F00D2B6
:1056600006272498072803D10B2F06D00C2F04D02F
:105670002498082805D10C2F03D10120A8490870CF
:1056800002E00020A64908709F48007801280FD149
:105690004420FFF757FB4006400E8030014609903A
:1056A0004420FFF76DFC994801782420FFF768FC3F
:1056B0001D20FFF747FB0007000FF0210840249949
:1056C0000901084326994900084328990843C0B2B4
:1056D000014609901D20FFF753FC1E20FFF732FB07
:1056E0000007000FFB210840390108432999890070
:1056F0000843C0B2014609901E20FFF741FC262056
:10570000FFF720FBF721084085490978C9000843C5
:10571000014609902620FFF733FC27980004010E6C
:105720002020FFF72DFC2798C1B22120FFF728FC8D
:10573000062F0FD13120FFF705FBF8210840401D4F
:10574000014609903120FFF71BFC0C213720FFF7A1
:1057500017FC0EE03120FFF7F5FAF8210840C01CD5
:10576000014609903120FFF70BFC0A213720FFF793
:1057700007FC00252E465F480068072804D008284B
:1057800005D0092809D105E00025664E05E0002571
:10579000654E02E00025654E00BF00BF56490A78FD
:1057A000012191400846FAF7E1FE02460B460991B5
:1057B000089028463146FAF761FE179116900020AE
:1057C0005B49179B169AFAF759FE159114904C48AD
:1057D0000088FAF7DFFE0022564B07910690FAF791
:1057E00033FD09910890159B149AFAF7DFFD139188
:1057F000129042480078001DFAF7B8FE099108900F
:105800003D4909688900464A1278002A01DD0822CC
:1058100000E00022881AFAF7BDFE039102902F994A
:10582000C900354A12689200891A1C31384A127828
:1058300012018918334A1278002A01D0142200E09C
:105840000022881AFAF7A6FE01910090039B029AA3
:10585000FAF714FE0591049001F04CF807910690B8
:10586000099B089AFAF7A2FD1191109000221346A5
:1058700011991098FAF7FEFE02D21199109801E0E2
:105880000020014602460B460991089000202A4953
:10589000FAF7DAFC0F910E90159B149A0F990E9857
:1058A000FAF784FD0D910C900D9B0C9A13991298A8
:1058B000FAF7CAFC0B910A900022204B0B990A9828
:1058C000FAF774FD1E4A1F4B05910490FAF7BCFCD1
:1058D0000791069001F0E2F809910890FAF7AAFE04
:1058E0002E9A03C21FB0F0BD8C01002080844E4070
:1058F0009001002094010020980100209D010020CB
:105900009E010020A0010020A3010020A40100208E
:10591000A2010020A501002000127A00A8010020A9
:105920009C0100208084FE4080840E4180841E41C2
:105930000000F03F000011400000204080842E4114
:105940002B8716D9CEF7EF3F10B50B480088401CC7
:105950000949088009480088401C08490880FBF76D
:1059600075FD07480068002804D005480068401EFF
:105970000349086010BD000002020020040200205C
:105980004C00002000B593B01848806B0121090736
:10599000084316498863164800680321C9028843F2
:1059A0000121C9024018124908606846FBF712FF3E
:1059B00002200090002001900120039002200A9014
:1059C00000210B9141040C9141050D911020049090
:1059D0006846FCF71DF801200E9003200F9001216E
:1059E0000EA8FBF765FD13B000BD000000100240DB
:1059F0000070004015480068FF2101310843134939
:105A000008600846C068124908401049C860084646
:105A10000068104908400D49086008468068400841
:105A200040008860084600680121890488430749CE
:105A300008600846C068FD21090488430349C8601E
:105A400000200861C80304498860704700100240C4
:105A50000C40FF88F6FFF6FE00ED00E010B51E4892
:105A6000FCF768FE72B61D48007800280DD11C486E
:105A70000078002804D0012040031A4988610EE014
:105A8000012040031749886209E01448007814494E
:105A90000978884203D101204003124988620F48E7
:105AA0000078401C0D49087008460078142806DB71
:105AB0000D4800780A49087000200849087062B64D
:105AC00072B60A48026840680021521C48410749E2
:105AD0000A60486062B610BD10030020E10100209A
