:020000040800F2
:1000000038130020D5000008A5340008E1290008B5
:1000100000000000000000000000000000000000E0
:10002000000000000000000000000000F94B000884
:10003000000000000000000049470008D15B0008F4
:10004000E7000008E7000008B5490008E7000008DD
:10005000E7000008B10E0008E50E0008050F0008D3
:1000600000000000E7000008E7000008E7000008C3
:10007000E7000008E700000800000000415D0008FC
:1000800000000000E7000008000000000000000081
:10009000E700000800000000E7000008E700000893
:1000A000E7000008E7000008E70000089169000881
:1000B000E7000008E7000008000000000000000062
:1000C0000348854600F0ACFB00480047E16F00089C
:1000D000381300200448804704480047FEE7FEE745
:1000E000FEE7FEE7FEE7FEE7D95C0008C100000876
:1000F00030B50B46014600202022012409E00D46C0
:10010000D5409D4205D31D469540491B2546954047
:1001100040191546521E002DF1DC30BD70B500248B
:100120002546002801DA01244042002901DA012590
:100130004942FFF7DDFFAC4200D04042002C00D026
:10014000494270BDF0B51FB40646002082B0054696
:100150004024019100901BE0019922460F46304651
:1001600000F0DAFA049A059B801A994110D31046E0
:100170001946224600F0C0FA361A8F4101972246EE
:1001800001200021009F00F0B7FA38184D4100907F
:100190002046641E0028DFDC019B00982946324679
:1001A00007B0F0BDF0B51FB486B0002000900190FC
:1001B00002900698069980B204900798090C0204F0
:1001C0000014114307900027089D099806913E46A8
:1001D0003C4603900398A9B20204000C03900498D3
:1001E0002D0C154348430021224600F085FAC7191B
:1001F000714110340E46402CECDB3846029A00F078
:100200007BFA009A019B8018009059410298019155
:10021000103002904028CCDB00980BB0F0BD0346B4
:100220000B439B0703D009E008C9121F08C0042A2A
:10023000FAD203E00B780370401C491C521EF9D21D
:1002400070470321001D401E037812021A43491E05
:10025000F9D510467047034610B508330722040E3F
:10026000090221435B1E1C7800022043521EF6D572
:1002700010BD034603220870000A491C521EFAD51D
:100280001846704770B504460D46072310700E06D9
:10029000000A3043090A521C5B1EF7D52046294646
:1002A00070BD0000F0B507460846584087B0C00F43
:1002B000049048000E46590040084908BC1A88417D
:1002C00005D2384631461E4617460B4602465800B0
:1002D000400810434CD0300D039040055900400DAC
:1002E000490D0590401A0290402872DA1803012146
:1002F000000B09050843019004980092002805D0DE
:1003000001995242002088410092019002984021B8
:100310000A1A0199009800F0EFF905460C466B4661
:1003200007CB00F00AFAC0197141039A0E0D0023A1
:10033000D71756401A467A40164344D0049A002AEA
:100340002DD0029A012A039A15DC1205C01A914198
:1003500001263605001C7141D20F059ED20700937D
:10036000019202962A46234600F007FA07B0F0BD34
:1003700038463146FAE71605224A0F46B218C01A27
:10038000B74101210905001C4F4100187F4111466A
:1003900018187941E20F10436D19644113E0E20728
:1003A0006D0815436408C2071443039A0126120519
:1003B000C01A91413605001C7141CE0740083043F8
:1003C0004908C01851412A46234600F0C9F9CDE733
:1003D000FFE7049801224000C117121A00238B4145
:1003E00004983146C417381AA141EEE730B401240D
:1003F000E407634030BC55E730B40124E4076140B2
:1004000030BC4FE70000E0FFF0B51FB488B00B9997
:100410000998002448400999C00F490049080991EA
:10042000C0070B990090490049080B910999089859
:10043000A64608431CD00B990A98084318D009987F
:1004400001244000420D4800410D09982405000395
:10045000000B204309900B980003000B20430B90E6
:1004600050181C494018002201901446104605E01F
:10047000002001460DB0F0BD032801DA034600E07C
:1004800003239C46C11A0AAE0AE05F0008ADED5B8B
:100490004F00F75B7D430027AA187C41491C5B1E77
:1004A0006145F2DD410004AB5A522104120C0A43AB
:1004B000240C401C0828DFDB01980290009970464C
:1004C00001910090059B049A0799069800F055F950
:1004D000D0E700000DFCFFFFF0B50C465C4085B096
:1004E000E40FE40703944C00002664085900944686
:1004F000490802460296224321D062460A431ED092
:100500006200570D4A000E032303550D01240246D5
:100510002C492405781B1B0B360B4018234326431C
:10052000614600901C46501AB44103D30098401C09
:10053000009002E0921800985B41002803DA002046
:10054000014605B0F0BD0020012109050746864699
:1005500011E064461D46141BB54106D36546521B87
:10056000B341744607430C43A646CD0740084908EB
:10057000284392185B4105460D43EAD110461843C3
:1005800013D06046194650407140084306D060467B
:10059000101AB34106D20122002306E000220123F3
:1005A000DB0702E00122D243531000987446010594
:1005B000381C6141029C039D0019694100F0D0F88C
:1005C000BFE70000FD0300000EB5C217C10F504089
:1005D000CA0740180021054B0293019200910A4678
:1005E0000B4600F0CAF803B000BD00003304000061
:1005F0000EB505490291002100910A460B46019172
:1006000000F0BBF803B000BD3304000070B5CD0F9F
:100610004A0009030123090B1B0519430B4BED0786
:100620000024520D9A4201DA002070BD074B34338A
:100630009A4203DC9A1A00F06FF802E0044951185C
:1006400088402C43F1D0404270BD0000FF03000001
:10065000CDFBFFFF4A0009030123090B1B051943CA
:10066000094B10B5520D9A4201DA002010BD064B1D
:1006700034339A4203DC9A1A00F04EF810BD034955
:100680005118884010BD0000FF030000CDFBFFFFA4
:100690004A0009030123090B1B0519430A4B10B536
:1006A000520D9A4202DA0020014610BD064B343347
:1006B0009A4203DC9A1A00F02FF810BD034BD218AF
:1006C00000F01AF810BD0000FF030000CDFBFFFF93
:1006D00010B5002904DB0124E40740428C41214687
:1006E000002B04DB1C460123DB075242A341994245
:1006F00000D1904210BD000010B5202A04DB014655
:10070000203A9140002010BD914020239C1A0346BE
:10071000E3401943904010BD10B5202A04DB084681
:10072000203AD040002110BD0B46D340D0402024B9
:10073000A21A91400843194610BD10B5202A06DBC5
:10074000CB170846203A1041C1170B4306E00B4671
:100750001341D0402024A21A91400843194610BDED
:1007600010B5002B08DA0024401C614192185B414F
:100770001A4301D14008400010BDF0B51FB482B04B
:1007800005460C0003D0084606F0E2F902E006F048
:10079000DFF920300246009021462846FFF7ACFFE3
:1007A000049B059A04460F4618431143084314D08E
:1007B000184610431BD0009840210A1A1846059984
:1007C000FFF7AAFF05460E46009A05990498FFF721
:1007D00093FF084305D0012004E02046394607B0C6
:1007E000F0BD0020C11705430E432C433743009949
:1007F0000E986305401A7905E40A00220C43FD0AAD
:100800000A3002D500200146E9E7010510196941C7
:100810000C9C0D9D00196941FFF7A2FFDFE7000066
:10082000064C0125064E05E0E36807CC2B430C3C43
:1008300098471034B442F7D3FFF746FC54770008CA
:100840007477000870B58C180578401C6B075B0F37
:1008500001D10378401C2A1106D10278401C03E024
:1008600006780E70401C491C5B1EF9D12B0705D47D
:100870000023521E0DD40B70491CFAE70378401C6C
:10088000CB1A921C03E01D780D70491C5B1C521E94
:10089000F9D5A142D8D3002070BDFFB5CDB01F4619
:1008A000569D1022002145A806F0B4FBF02200213D
:1008B00008A806F0AFFB002408AA10214D9806F006
:1008C000C9F919E000BF002007E045A90A5C4E996C
:1008D000095C4A4045A90A54401C1028F5DB00BFBA
:1008E00008AA45A945A806F087F94E9810304E9001
:1008F0004F981038C0B24F904F981028E2DC49A8AA
:100900004F9A4E9906F07AFB4F9C1020001BA8428C
:1009100002DA1020001B00E02846C6B249A90819D7
:100920003246394606F06AFBA019C4B2102C01DB2E
:10093000B54201D151B0F0BD00BF002007E045A98C
:10094000095C49AA125C514045AA1154401C102868
:10095000F5DB00BF08AA45A945A806F04DF9BF1967
:10096000A81BC5B215E000BF002006E045A9095C40
:100970003A5C514045AA1154401C1028F6DB00BFD8
:1009800008AA45A945A806F037F9103728461038B7
:10099000C5B2102DE7DC2A46394649A806F02EFBE1
:1009A0002C4610220021684606F034FB08AA69464E
:1009B000684606F021F96846007880210840002842
:1009C0001CD000BF00200AE06946095C49006A4665
:1009D000431CD25CD21111436A461154401C0F28AB
:1009E000F2DB6946C97B49060A0E6946CA7300BF35
:1009F000C87B872148406946C87316E000BF0020C5
:100A00000AE06946095C49006A46431CD25CD2117F
:100A100011436A461154401C0F28F2DB6946C97B1A
:100A200049060A0E6946CA7300BF102C0DD100BFDB
:100A3000002007E049A9095C6A46125C514049AAB6
:100A40001154401C1028F5DB53E0684600788021E3
:100A5000084000281CD000BF00200AE06946095C5D
:100A600049006A46431CD25CD21111436A461154B4
:100A7000401C0F28F2DB6946C97B49060A0E69460D
:100A8000CA7300BFC87B872148406946C87316E017
:100A900000BF00200AE06946095C49006A46431C21
:100AA000D25CD21111436A461154401C0F28F2DB6C
:100AB0006946C97B49060A0E6946CA7300BF802091
:100AC00049A9085502E0002049A90855601CC0B298
:100AD00004461028F7DB00BF002007E049A9095CA5
:100AE0006A46125C514049AA1154401C1028F5DB9B
:100AF00000BF00BF002007E045A9095C49AA125CBD
:100B0000514045AA1154401C1028F5DB00BF08AA2B
:100B100004A945A806F070F86946C87C0006897CDF
:100B2000090408436946497C090208436946097C6F
:100B300008435799086000BFFCE6FFB5CDB00E46EC
:100B400014461F461022002145A806F063FAF02241
:100B5000002108A806F05EFA002508AA10214D9889
:100B600006F078F815E000BF002006E045A9095C12
:100B7000325C514045AA1154401C1028F6DB00BFDE
:100B800008AA45A945A806F037F8103620461038BF
:100B9000C4B2102CE7DC2246314649A806F02EFAF2
:100BA00025461022002104A806F034FA08AA04A958
:100BB00004A806F021F86846007C8021084000283F
:100BC0001CD000BF00200AE004A9095C490004AA67
:100BD000431CD25CD211114304AA1154401C0F28AB
:100BE000F2DB6946C97F49060A0E6946CA7700BF2B
:100BF000C87F872148406946C87716E000BF0020BB
:100C00000AE004A9095C490004AA431CD25CD21181
:100C1000114304AA1154401C0F28F2DB6946C97F16
:100C200049060A0E6946CA7700BF102D0DD100BFD4
:100C3000002007E049A9095C04AA125C514049AAB6
:100C40001154401C1028F5DB53E06846007C8021DD
:100C5000084000281CD000BF00200AE004A9095C5D
:100C6000490004AA431CD25CD211114304AA1154B6
:100C7000401C0F28F2DB6946C97F49060A0E694607
:100C8000CA7700BFC87F872148406946C87716E009
:100C900000BF00200AE004A9095C490004AA431C23
:100CA000D25CD211114304AA1154401C0F28F2DB6C
:100CB0006946C97F49060A0E6946CA7700BF802087
:100CC00049A9485502E0002049A94855681CC0B20E
:100CD00005461028F7DB00BF002007E049A9095CA2
:100CE00004AA125C514049AA1154401C1028F5DB9B
:100CF00000BF00BF002007E045A9095C49AA125CBB
:100D0000514045AA1154401C1028F5DB00BF08AA29
:100D1000694645A805F070FF6946C87800068978DD
:100D20000904084369464978090208436946097875
:100D30000843386051B0F0BD30B50446264803780A
:100D40000078401C244D28702448C454A01E030081
:100D500005F02DFF0705060F1019293233002EE08C
:100D60001D4803780078401C1B4D28701B48C15457
:100D700025E024E0184803780078401C164D2870C0
:100D80001648C1541BE0144803780078401C124DEB
:100D900028701248C154284603780078401C2870F7
:100DA0000E48C2540BE00C4803780078401C0A4DF2
:100DB00028700A48C15402E001E0012030BD00BFA4
:100DC000054800780F2804DC0120054B187000202E
:100DD000F4E70220F2E7000045010020D90D0020D1
:100DE0004401002008B500220092002100926846CC
:100DF000007808BD10B50A48006802210843084978
:100E0000086003F0A3FC04F001FF05F035F800F0E2
:100E1000EFF800F0A9F805F049FB03F0DDFD10BD87
:100E200000200240F0B5BDB007460C4615461E46F0
:100E3000F0220021684606F0EDF86A461021384697
:100E400005F008FF6A462946204605F0D5FE102E1B
:100E500006DB6A46294610312046103005F0CCFEEC
:100E60003DB0F0BDF0B585B0074600BF00BF3846C5
:100E70007D21C900484300210391029004F0AAFF9C
:100E80000191009000BF04F0A5FF019B009A841A15
:100E900099416425002620462A4633460491FFF7EF
:100EA00081F9039B029A801A9941ECD305B0F0BDF9
:100EB00010B50B484069C007C00F002804D004F0EB
:100EC0004FF8012006494861054840690221084061
:100ED000002804D004F012F802200149486110BD36
:100EE0000004014010B5064840690421084000286C
:100EF00004D003F0E9FF04200149486110BD00005F
:100F00000004014008B516A000680090154840692B
:100F100020210840002806D00321684605F0F6FA93
:100F20002020104948610F484069FF2101310840E5
:100F3000002806D0084600F095F8FF200130094946
:100F4000486108484069012189020840002805D00D
:100F500003F092FE012080020249486108BD0000B2
:100F6000010203000004014000B587B000BF1C4827
:100F7000C06A022108431A49C8620846C06A0221B1
:100F80000840019000BF00BF164803900220049063
:100F900005901548029002A9144800F065F8202039
:100FA000029002A9114800F05FF8002201210520FB
:100FB00000F084F9052000F075F9002201210620D7
:100FC00000F07CF9062000F06DF9002201210720D5
:100FD00000F074F9072000F065F907B000BD0000CB
:100FE000001002400000111007040000000400502F
:100FF00000B587B000BF1948C06A012108431749EE
:10100000C8620846C06AC007C00F019000BF00BF99
:1010100000BF0846C06A022108431049C86208465A
:10102000C06A02210840019000BF00BF0120039068
:1010300002200590800202900020049002A9084836
:1010400000F012F8042002900120049002A905206B
:10105000000700F009F807B000BD000000100240D2
:10106000000400507047000070B5034600220024C1
:101070000020DAE0012696400D6835402C46002C11
:1010800077D04D68022D02D04D68122D15D1D508AC
:10109000AE001D462035A8595507EE0E0F25B54068
:1010A0000646AE4330465607F60E0D69B540284356
:1010B000D508AD001E46203670514D68012D08D070
:1010C0004D68022D05D04D68112D02D04D68122DAE
:1010D00018D1986856000325B5400646AE43304601
:1010E0005600CD68B5402843986058680125954062
:1010F0000646AE43304610264D6835402D099540D2
:1011000028435860186856000325B5400646AE438C
:1011100030460D79AD07AD0F5600B5402843186035
:10112000D86856000325B5400646AE433046560003
:101130008D68B5402843D860012636074D68354094
:10114000B54271D13C4D6D6B012635433A4E756306
:101150003A4D9608B600A85995072E0F0F25B540B1
:101160000646AE43304605252D07AB4202D1002589
:1011700015E059E0324DAB4201D101250FE0314D70
:10118000AB4201D102250AE02F4DAB4201D103252C
:1011900005E02E4DAB4201D1052500E0062596075E
:1011A000360FB5402843254D9608B600A851284D66
:1011B00028680546A5432846012636044D68354073
:1011C000B54202D1054625432846214D286068686E
:1011D0000546A5432846012676044D683540B542AC
:1011E00002D1054625432846194D6860A868054682
:1011F000A5432846012636054D683540B54202D143
:10120000054625432846124DA860E8680546A543D3
:101210002846012676054D683540B54202D105467F
:10122000254328460A4DE860521C0D68D540002D24
:1012300000D01FE770BD0000001002400800014010
:101240000004005000080050000C0050001C00502A
:1012500000040140002A01D0816100E081627047F2
:101260000148006870470000200000200248006824
:10127000401C0149086070472000002070B50446FA
:101280007D21C90006480068FEF732FF054601F0DF
:101290000BFA00222146501E00F010F8002070BD0D
:1012A0002400002000BFC206D20E01219140024A54
:1012B000116000BF7047000000E100E070B5044617
:1012C0000D4616462946204602F02AF970BD000058
:1012D000F8B5054600260027002000900024082DC0
:1012E0006FD006DC012D50D0022D7DD0042D6AD1A7
:1012F000A6E0102D68D0202DF9D187480669006935
:101300000321090408400446E802844206D1C011C2
:101310003040002802D06010009035E001204004E9
:10132000844206D102203040002802D07B48009041
:101330002AE003200004844224D177484038006822
:1013400001214904084000281CD073484038006837
:1013500021010840074601200005381A0BD0012161
:101360000905401A04D0401A08D16D48009008E0E1
:101370006C48009005E06C48009002E06B480090DB
:1013800000BF01E000200090C2E06348C06884070D
:10139000A40F002C03D100F067FA009023E0022C88
:1013A00009D15D484038006804210840002802D077
:1013B0005F48009017E0012C07D100F067FA009019
:1013C00011E070E010E0A2E092E0032C09D1524855
:1013D0000069012149020840002802D088010090DC
:1013E00001E00020009093E04B48C0680C210840C9
:1013F0000446002C03D100F025FA00901FE0082CD1
:1014000009D145484038006804210840002802D02E
:101410004748009013E0042C03D100F037FA009005
:101420000DE00C2C09D13C4800690121490208401B
:10143000002802D08801009001E00020009067E0C1
:101440003548C0680321890208400446002C03D1B6
:1014500000F0F8F9009025E00120C002844209D193
:101460002D484038006804210840002802D0304848
:10147000009017E001208002844203D100F006FAB8
:1014800000900FE003208002844209D122480069C5
:10149000012149020840002802D08801009001E0A3
:1014A0000020009034E01C48C06803210903084074
:1014B0000446002C03D100F0C5F9009017E001208C
:1014C0004003844209D11448403800680421084090
:1014D000002802D01648009009E001200003844251
:1014E00003D100F0D3F9009001E0002000900FE05C
:1014F00009484038806B012189050840884203D1A2
:1015000000F0A0F9009001E00020009000E000BF92
:1015100000BF0098F8BD0000401002408890000015
:1015200020A1070040420F0080841E0000093D00FA
:101530000024F40070B504460D4600267648006885
:10154000C007C00FA8420ED2734800684008400090
:1015500028437149086008460068C007C00FA842C8
:1015600001D0012070BD022120680840022807D167
:101570006A48C068F0218843A16808436749C86089
:101580002078C007C00F00284CD06068022809D11D
:1015900062480068012149040840400C002824D119
:1015A0000120DFE76068032809D15C480068012159
:1015B00049060840400E002817D10120D2E7606894
:1015C000012808D1554800680421084080080028F7
:1015D0000BD10120C6E751480068012149020840AB
:1015E000400A002801D10120BCE74C48C0688008AF
:1015F0008000616808434949C860FFF731FE06462C
:10160000606802280FD107E0FFF72AFE801B4449DB
:10161000884201D90320A5E74048C0680C21084052
:101620000828F1D134E0606803280FD107E0FFF704
:1016300017FE801B3A49884201D9032092E73748B8
:10164000C0680C2108400C28F1D121E06068012815
:101650000FD107E0FFF704FE801B3149884201D912
:1016600003207FE72D48C0680C2108400428F1D1F1
:101670000EE007E0FFF7F4FD801B2949884201D9FD
:1016800003206FE72548C0680C2108400028F1D1ED
:1016900021480068C007C00FA8420ED91E48006844
:1016A0004008400028431C49086008460068C007FD
:1016B000C00FA84201D0012054E70421206808404F
:1016C000042808D11548C068072109028843E16849
:1016D00008431249C860082120680840082809D139
:1016E0000E48C0680721C90288432169C900084320
:1016F0000A49C86000F0CAF80849C968F0221140D8
:101700000909084A515CC840074908600320FFF7EF
:10171000B5FD002026E70000002002400010024036
:1017200088130000F67300082400002001480068B8
:1017300070470000240000201F2101604049096813
:10174000012292041140914203D105210904416014
:101750000AE03B490968012212041140914201D17B
:10176000416001E00021416035490968C907C90F9E
:10177000002902D00121C16001E00021C16030498F
:1017800049681F2212021140090A01612C490968A7
:10179000FF2201321140914202D10121816101E019
:1017A0000021816126494968090EC16124494968BF
:1017B0000722520311400162214940310969012287
:1017C00092021140914203D10521090281600BE090
:1017D0001B4940310969FF2201321140914201D178
:1017E000816001E000218160154940310969C90724
:1017F000C90F002902D00121416101E000214161AE
:101800000F490968012212061140914202D10221BA
:10181000416201E0012141620949C96801221204C3
:10182000114081620649C9680F2292041140C162C9
:101830000349C96803229205114001637047000003
:101840000010024000B5FFF771FF0549C968072283
:1018500012021140090A034A515CC84000BD000051
:10186000001002400674000800B5FFF75FFF05494D
:10187000C9680722D2021140C90A034A515CC84014
:1018800000BD00000010024006740008FEB50025EF
:101890000026002700240020019000902F48C568F2
:1018A0000C202840002847D0042804D008280ED057
:1018B0000C2840D10EE0294800681021084000287B
:1018C00002D02748009001E02648009042E02648D8
:1018D00000903FE00F2080042840800C23490E5CDC
:1018E000032080052840800D471C1C48C06801214A
:1018F00009040840002807D01B49714308463946AF
:10190000FEF7F6FB044614E0144800681021084076
:10191000002807D01249714308463946FEF7E8FB14
:10192000044606E00F49714308463946FEF7E0FBDE
:10193000044600940EE000BF0848406807214903B0
:101940000840400B01900198401C01218140C803D0
:10195000009000BF00BF0098FEBD000000100240D4
:1019600000093D000024F40000127A000E74000803
:10197000F8B5044600252078C007C00F00287DD0A8
:10198000FE48C0680C21084008280BD0FB48C068FE
:1019900008400C2813D1F948C06801210904084007
:1019A00088420CD1F5480068012149040840400CE8
:1019B000002863D06068002860D10120F8BD00BF16
:1019C000012109046068884205D1EC480068084399
:1019D000EA49086027E005210904606888420ED1C1
:1019E000E6480068012189040843E4490860084684
:1019F0000068012109040843E049086013E0DF485A
:101A00000068012109048843DC4908600846006831
:101A1000012109040840009000BFD84800688900EF
:101A20008843D649086000BF6068002813D0FFF7DC
:101A300017FC054606E0FFF713FC401B642801D99C
:101A40000320BBE7CD480068012149040840400C51
:101A50000028F0D012E0FFF703FC054606E0FFF790
:101A6000FFFB401B642801D90320A7E7C348006897
:101A7000012149040840400C0028F0D102212068CF
:101A80000840022868D1BD48C0680C2108400428DD
:101A90000BD0BA48C06808400C281DD1B748C068B0
:101AA000012109040840002816D1B4480068042127
:101AB00008408008002804D0E068012801D00120F7
:101AC0007CE7AE4840681F2109028843216909026A
:101AD0000843AA4948603FE0E068002824D0A748AE
:101AE000006809218843E1680843A4490860FFF7BA
:101AF000B7FB054606E0FFF7B3FB401B022801D900
:101B000003205BE79D480068042108408008002806
:101B1000F1D09A4840681F210902884321690902CF
:101B200008439649486017E0944800684008400020
:101B300092490860FFF794FB054606E0FFF790FB2B
:101B4000401B022801D9032038E78C480068042193
:101B5000084080080028F1D1102120680840102892
:101B600060D18648C0680C21084000285BD18348BA
:101B70000068012149020840400A002804D0A069F9
:101B8000002801D1012019E77C48216A406807221A
:101B900052031040814219D9206A02F00FFE00283A
:101BA00001D001200AE775484068072149038843AE
:101BB000216A084371494860084640680002000AEB
:101BC000217F090608436D49486018E06B4840686A
:101BD000072149038843216A084368494860084649
:101BE00040680002000A217F0906084363494860F3
:101BF000206A02F0E3FD002801D00120DEE6206A21
:101C0000400B401C01218140C8035C49C968F02297
:101C1000114009095A4A515CC8405A4908600320DA
:101C2000FFF72CFB49E0A06900282CD0534800683E
:101C3000FF210131084351490860FFF711FB0546B8
:101C400006E0FFF70DFB401B022801D90320B5E693
:101C50004A480068012149020840400A0028F0D0A3
:101C600046484068072149038843216A084343499D
:101C70004860084640680002000A217F09060843C0
:101C80003E49486019E03D480068FF210131884322
:101C90003A490860FFF7E4FA054606E0FFF7E0FA84
:101CA000401B022801D9032088E63448006801213E
:101CB00049020840400A0028F0D108212068084065
:101CC000082839D1606900281BD02C4840300069B1
:101CD00001210843294940310861FFF7C1FA05464F
:101CE00006E0FFF7BDFA401B022801D9032065E694
:101CF0002248403000690221084040080028F0D006
:101D00001AE01E4840300069400840001B4940313D
:101D10000861FFF7A5FA054606E0FFF7A1FA401BA8
:101D2000022801D9032049E6144840300069022105
:101D3000084040080028F0D1042120680840042809
:101D400077D100260D48806B89060840002805D110
:101D50000A48806B08430949886301260A480068DD
:101D6000FF210131084000281ED1074800680843C0
:101D700005490860FFF774FA05460EE000100240BE
:101D8000F67300082400002000700040FFF768FA96
:101D9000401B642801D9032010E67A480068FF211F
:101DA000013108400028F1D000BFFF210131A068B7
:101DB000884205D17448006908437349086130E0DE
:101DC000A06800280DD170480069FF2101318843C7
:101DD0006D49086108460069091588436A49086128
:101DE0001FE005210902A06888420DD166480069FC
:101DF0000121890208436449086108460069891580
:101E00000843614908610CE05F480069FF21013126
:101E100088435D49086108460069091588435A49A5
:101E2000086100BFA068002815D0FFF719FA054621
:101E300008E02FE0FFF714FA401B5449884201D90B
:101E40000320BBE550480069012149020840400ACF
:101E50000028EFD013E0FFF703FA054607E0FFF78D
:101E6000FFF9401B4949884201D90320A6E54648AD
:101E70000069012149020840400A0028EFD1012EE3
:101E800007D141484038806B310788433E4940398B
:101E9000886300BF606A002872D03B484038C06841
:101EA0000C2108400C2869D0606A022848D13648C5
:101EB00040380068012109068843334940390860E9
:101EC000FFF7CEF9054606E0FFF7CAF9401B0228E6
:101ED00001D9032072E52C484038006801214906E9
:101EE0000840400E0028EFD1E16AA06A0843216B48
:101EF000084325494039C968FD221204914308432B
:101F000021494039C8600846006801210906084394
:101F10001D4940390860FFF7A3F9054606E0FFF7C1
:101F20009FF9401B022801D9032047E51648403895
:101F30000068012149060840400E0028EFD01FE04C
:101F40001148403800680121090688430E4940398C
:101F50000860FFF785F9054606E0FFF781F9401BA9
:101F6000022801D9032029E50748403800680121EB
:101F700049060840400E0028EFD101E001201DE590
:101F800000201BE500700040401002408813000054
:101F9000704710B5044602F015FD10BD10B504469B
:101FA00020688068012109030840000B002811D037
:101FB0002068C06809110840000A00280AD020469D
:101FC000FFF7E7FF2068C0688021084012490843F6
:101FD0002168C86020688068012149030840400BDF
:101FE000002811D02068C06809110840400A002864
:101FF0000AD02046FFF7CCFF2068C0688021084047
:10200000064908432168C86001204004044948612A
:1020100001212120015510BD7FFEFFFF7FFDFFFF45
:102020000004014001465120405C704710B5044651
:10203000002C01D1012010BD5120005D002805D1E8
:10204000002150200155204600F038F8022151208F
:102050000155206800684021884321680860A16814
:1020600060680843E16808432169084361690843DF
:1020700001225202A16911400843E1690843216A23
:102080000843A16A084321680860A069000C042184
:102090000840616A0843216848602168E06A086175
:1020A0002068C069910088432168C861002060658C
:1020B0000121512001550020BDE7000010B586B078
:1020C000044600BF2148C06A012108431F49C86275
:1020D0000846C06AC007C00F009000BF00BF084696
:1020E000406B89140843194948630220029001207B
:1020F000039002200490002005902020019001A967
:1021000005200007FEF7B0FF4020019001A905203F
:102110000007FEF7A9FF8020019001A90520000714
:10212000FEF7A2FF102001900120029001A90520D6
:102130000007FEF799FF012200211920FFF7BEF8E2
:102140001920FFF7AFF806B010BD000000100240E4
:10215000F8B504460E4615461F465120005D01287D
:102160007BD1002E01D0002D01D10120F8BD00BF90
:102170005020005D012801D10220F7E70121502005
:10218000015500BF122151200155002060652663D2
:10219000A586E586E064A064A063A087E0870121AE
:1021A0004903A06A88420DD100BF206800688843B7
:1021B00021680860206800680121490308432168FC
:1021C000086000BF0121C903A068884205D12068CA
:1021D00000684910084321680860206800684021B1
:1021E0000840402804D0206800680843216808603F
:1021F000E068002832D16068002802D0E08E012813
:1022000008D1216B481C206308782168C860E08EE3
:10221000401EE08612E03B4600220221204602F0EA
:102220005FFC002801D00320A0E7216B481C20633D
:1022300008782168C860E08E401EE086E08E0028A5
:10224000E9D101214903A06A88423AD12068006897
:10225000491008432168086033E064E060680028A2
:1022600002D0E08E012809D1206B00882168C86067
:10227000206B801C2063E08E401EE08613E03B460E
:1022800000220221204602F02BFC002801D003206E
:102290006CE7206B00882168C860206B801C20637D
:1022A000E08E401EE086E08E0028E8D1012149033F
:1022B000A06A884205D12068006849100843216857
:1022C00008603B4600220221204602F009FC00285B
:1022D00005D0606D202108436065032046E73B463A
:1022E00001228021204602F0FBFB002805D0606D12
:1022F000202108436065032038E7A068002808D142
:1023000000BF2068C068009020688068009000BF0F
:1023100000BF01215120015500BF0021502001556F
:1023200000BF002022E7022020E7F8B504460E4651
:1023300017461D46002000905120005D012803D063
:102340005120005D222873D1002E03D0002F01D030
:10235000002D01D10120F8BD00BF5020005D0128F3
:1023600001D10220F7E701215020015500BF512083
:10237000005D012802D13221512001550020606505
:10238000A763A587E5872663A586E586A064E06444
:1023900001214903A06A88420DD100BF206800686E
:1023A00088432168086020680068012149030843C8
:1023B0002168086000BF206800684021084040286C
:1023C00004D0206800680843216808600121C90220
:1023D000E06888427DD16068002807D0FF21053180
:1023E000606888420CD1E08E012809D1206B0088FA
:1023F0002168C860206B801C2063E08E401EE08650
:10240000E08E002820D101214903A06A884205D12D
:1024100020680068491008432168086000220121F3
:102420002046069B02F05CFB002802D0032092E7C6
:1024300038E12068C068A16B0880A06B801CA06395
:10244000E08F401EE087D7E035E0002202212046E1
:10245000069B02F045FB002801D003207BE7206BA0
:1024600000882168C860206B801C2063E08E401EBD
:10247000E086E08E00280AD101214903A06A884243
:1024800005D12068006849100843216808600022CF
:1024900001212046069B02F023FB002801D00320E7
:1024A00059E72068C068A16B0880A06B801CA063FE
:1024B000E08F401EE087E08E0028C6D160680028CB
:1024C000C1D1002201212046069B02F009FB002811
:1024D00000E00DE001D003203DE72068C068A16B5B
:1024E0000880A06B801CA063E08F401EE08783E023
:1024F0006068002807D0FF210531606888420BD151
:10250000E08E012808D1216B481C206308782168DF
:10251000C860E08E401EE086E08E00281CD10121BC
:102520004903A06A884205D1206800684910084321
:1025300021680860002201212046069B02F0D0FAA3
:10254000002801D0032006E72068C068A16B08704E
:10255000E08F401EE0874FE034E000220221204659
:10256000069B02F0BDFA002801D00320F3E6216BA0
:10257000481C206308782168C860E08E401EE08611
:10258000E08E00280AD101214903A06A884205D1C2
:102590002068006849100843216808600022012172
:1025A0002046069B02F09CFA002801D00320D2E6C8
:1025B0002068C068C1B2A26B501CA0631170E08F8C
:1025C000401EE087E08E0028C7D16068002813D144
:1025D000002201212046069B02F082FA002801D049
:1025E0000320B8E62068C068C1B2A26B501CA0638B
:1025F0001170E08F401EE08701214903A06A8842E4
:1026000013D1002201212046069B02F069FA00281E
:1026100005D0606D02210843606503209BE62068B9
:10262000C06881B20091684600880122802120465E
:10263000069B02F055FA002805D0606D2021084362
:102640006065032087E60121512001554903A06AF6
:10265000884220D1206880681021084000090028A5
:1026600019D0606D02210843606500BF20680068D2
:102670000903884321680860206800680121490334
:1026800008432168086000BF00BF002150200155A9
:1026900000BF01205FE600BF00215020015500BFB0
:1026A000002058E6022056E670B504462546681E0E
:1026B0000949884201D901200CE0681E0749486198
:1026C0000321081F00F02CFF002004498861072027
:1026D0000861002070BD0000FFFFFF0000E000E087
:1026E00010B50446002C01D1012010BD3520005D3D
:1026F000002805D1002134200155204600F00CF8B7
:10270000022135200155211D206803F07BFB0121AA
:10271000352001550020E8E710B504460748806BD6
:102720000121084305498863002211460F20FEF766
:10273000C5FD0F20FEF7B6FD10BD000000100240E1
:1027400001460868C068012210430A68D060086822
:102750000068012210430A6810600020704770472B
:1027600010B504462068006902210840400800288E
:102770001CD02068C06808404008002816D0481FB8
:102780002168086101202075206880698007800F1A
:10279000002803D02046FFF7E2FF05E0204600F0C6
:1027A0009DF8204600F09BF8002020752068006905
:1027B00004210840800800281DD02068C068084017
:1027C0008008002817D0C8432168086102202075BE
:1027D00020688069032109020840002803D02046B0
:1027E000FFF7BDFF05E0204600F078F8204600F036
:1027F00076F8002020752068006908210840C0088C
:1028000000281CD02068C0680840C008002816D0E6
:10281000C84321680861042020752068C0698007CA
:10282000800F002803D02046FFF799FF05E02046DF
:1028300000F054F8204600F052F80020207520687F
:10284000006910210840000900281DD02068C068D8
:1028500008400009002817D0C843216808610820F3
:1028600020752068C069032109020840002803D0B0
:102870002046FFF774FF05E0204600F02FF82046C1
:1028800000F02DF80020207520680069C007C00FF7
:1028900001214840484000280CD02068C06808400A
:1028A00048404840002805D0C81E216808612046DD
:1028B00000F016F8206800694021084080090028CF
:1028C0000BD02068C06808408009002805D0C843A4
:1028D00021680861204600F004F810BD7047704779
:1028E000704770477047704710B50446002C01D1FF
:1028F000012010BDA069002800D000E000BF6920C1
:10290000005D002805D1002168200155204600F017
:102910002DF82421692001552068006840084000F6
:1029200021680860606A002802D0204603F00CFD90
:10293000204603F001FE012800D1DAE72068406854
:102940000921C902884321684860206880682A21DB
:102950008843216888602068006801210843216855
:102960000860204603F068FDC3E7000010B586B09C
:10297000044600BF1848C06A022108431649C862CD
:102980000846C06A02210840009000BF00BF1248FC
:10299000406B49030843104948630220029001201C
:1029A000039002200490002005904020019001A98E
:1029B0000A48FEF759FB8020019001A90748FEF75D
:1029C00053FB012200211B20FEF778FC1B20FEF7A1
:1029D00069FC06B010BD0000001002400004005069
:1029E00000BFFEE710B502F017FC0020294908607F
:1029F00029490860012029490870002028490870E9
:102A000028490870012028490870002027490870CB
:102A1000274908700120274908800021264A1160B3
:102A20005160264A116051602549087025492648A1
:102A300003F0DCFB2549264803F0D8FB254926484E
:102A400003F0D4FB2549264803F0D0FB254926484E
:102A500003F0CCFB2549264803F0C8FB0320254999
:102A600008700120244908700C490870FF20234990
:102A7000088001202249087000200949087009498E
:102A8000087001E003F0D2FB1B4800780028F9D061
:102A900010BD000000010020200100207000002077
:102AA0007100002072000020B6000020B700002056
:102AB000E1000020E2000020E8000020F0000020FB
:102AC000E000002001360008C40C0020B5350008E5
:102AD0004C0B002031470008F40B00200D46000885
:102AE0009C0C0020AD460008B00C00209935000871
:102AF000080C0020B8000020C8000020B40000200E
:102B0000B900002033B58DB05A480078062822D18C
:102B10005948007859495A4A0023089309920A9162
:102B20000B900122049306930821564807930592BF
:102B3000504B00241C57005D0092029203910190BB
:102B40005148524B00241C570257002301200D9975
:102B500002F012FE22E0484800784849484A002323
:102B6000089309920A910B9001220493069308217D
:102B70004448079305923F4B00241C57005D0023F7
:102B800000930292039101903F48404B00241C5750
:102B90000257002301200D9902F0EEFD3C48007819
:102BA000FF2802D106200FB030BD39480078002838
:102BB00003D10021374A1160516037480068012174
:102BC0000843354908603549354803F017FB344858
:102BD00003F06CF903F00AF904460D4608A9497E92
:102BE000132251432F4A891808460B30FDF733FB57
:102BF000284B0CCB101A8B410AD208A9497E13220C
:102C00005143284A891808460B30FDF724FB01E0A0
:102C1000204903C9201A8D4124D208A9497E1322D4
:102C20005143204A891808460B30FDF714FB194B15
:102C30000CCB101A8B410AD208A9497E13225143AA
:102C4000184A891808460B30FDF705FB01E01149C9
:102C500003C904462146144803F0D0FA124803F091
:102C600025F904E004480178104802F0FFFC002038
:102C700099E7000071000020CC000020D80000205F
:102C8000C0C62D001D7700081777000870000020CF
:102C9000E1000020F00000202001002060AE0A00CA
:102CA000C40C00209C000020F40B0020740B0020BA
:102CB000F0B587B000240020069091480078059078
:102CC000002703F093F8039102900322002104A847
:102CD00004F0A0F98B4B029903980CCB8A1A984107
:102CE000894B0ACB891A834103D20021864A11609D
:102CF00051600020C0430090019000245CE08348B4
:102D00000078012849D113216143814A8918084676
:102D10000B30FDF7A0FA05460E46132161437C4AAD
:102D20008918C81CFDF797FA039B029A101A8B4169
:102D3000281A9E4109D21320604375494018024663
:102D40000B3200200146FDF79DFA13216143704AC2
:102D5000891808460B30FDF77EFA00235840594089
:102D6000084327D013216143694A891808460B306C
:102D7000FDF771FA009B019AC01A914108D2132104
:102D80006143634A891808460B30FDF764FA01E095
:102D900001990098019100900CE0002100910191AF
:102DA000132060435A49401802460B320020014666
:102DB000FDF768FA601CC4B2012CA0DB002451E0CE
:102DC0000120A040534909880840002847D0062127
:102DD0006143514A8818FDF734FA002800D13FE0DA
:102DE000062060434C4940180079000700174B4902
:102DF00000228A5690420DDC062060434649401866
:102E0000042141560811454900228A56904201DBAF
:102E1000012000E00020002800D121E006216143CC
:102E20003D4A8918497913225143394A891808467D
:102E30000B30FDF710FA002358405940084300D0EA
:102E40000EE0314801684068002251405040014383
:102E500000D005E03846791CCFB204A90C5400BF5D
:102E6000601CC4B2032CABDB002F33DD0024791EC1
:102E7000002004F033FAC0B2069029E004A90698B5
:102E8000095C059139460698401CFDF747F9C8B220
:102E900006900622059951431F4A8818FDF7D1F97B
:102EA00005462946012001F0A9FE00280ED014494C
:102EB000059808701A48006810218843184908606E
:102EC000184803F0E1F8002007B0F0BD601CC4B260
:102ED000032CD3DB124800681021084000280CD1D5
:102EE0001048009903F08AF90E4802F0DFFF0C4801
:102EF0000068102108430A4908600120E4E7000047
:102F0000B8000020E8000020F0000020E0000020D1
:102F10009C000020B40000207300002071000020FD
:102F2000200100204C0B0020F7B59CB01E98002813
:102F300005D140201A900020FE49087004E080204E
:102F40001A900120FB4908700020199019981890D8
:102F5000F948008880B21790002016900220159042
:102F600000201490461E3746F449088002F03EFFC8
:102F7000139112900020119001201090F0480068E9
:102F80007D21C900401AEF490860EF4800687D21A3
:102F9000C900401AED490860E8490A880988491CB7
:102FA000E64B1A981980EA498854EA48027818468C
:102FB00001880088401C1880E5484254E548008894
:102FC0000004010E184602880088401C1880E04862
:102FD0008154E04800680002010E1846028800880B
:102FE000401C1880DA488154DA480068000E1946FF
:102FF0000A880988491C1980D549885419460A88C5
:103000000988491C19981980D14988541798C2B267
:10301000184601880088401C1880CD4842541798F3
:10302000001219460A880988491C1980C849885421
:103030001698002810D000200BE016990A5CBF49B2
:103040000B880988491CBD4C2180C149CA54411CC8
:10305000C8B218998842F0DBB8490A880988491C27
:10306000B64B15981980BA498854F0220021BA4805
:1030700003F0D0FFB84A1021B84803F0EBFD002060
:10308000B7494871B34800788871B2480088000495
:10309000000EC871AF4800680002000E0872AD480B
:1030A0000068000E4872A44800788872A248008820
:1030B0000004000EC872A04800680002000E0873E9
:1030C0009D480068000E487328E0A5491098C87311
:1030D0001098401C80B210909F4AA249A04803F06B
:1030E0008BFD002010E011990A181C99895C9D4AFB
:1030F000125C5140914A13881288521C8F4C2280D6
:10310000934AD154411C88B21028ECDB1D9810382A
:1031100080B21D9011981030C0B211901D981028E7
:10312000D3DA1D9800281DDD8D491098C8738A4A8E
:103130008C498B4803F060FD002010E011990A18BB
:103140001C99895C874A125C51407C4A138812881A
:10315000521C7A4C22807E4AD154411C88B21D995F
:103160008842EBDB0020804948717A4800788871FA
:10317000784800880004000EC87176480068000294
:10318000000E087273480068000E48726A480078A2
:103190008872694800880004000EC872664800689A
:1031A0000002000E087364480068000E487363480C
:1031B0000078C87314A961480078654B102201910A
:1031C000009069496948FDF768FB1498C2B25B48F2
:1031D00001880088401C594B18805D48425414985F
:1031E0000004010E184602880088401C18805848C8
:1031F000815414980002010E184602880088401C71
:103200001880534881541498000E19460A8809887A
:10321000491C19804E49885455480078FF2801D12F
:103220001FB0F0BD52480078002803D10021514A58
:1032300011605160504B139912980CCB821A99412E
:103240004C4803684068D21A814171D30021494A31
:103250001160516000200D9062E04848007801281C
:103260004DD113220D995143454A891808460B3018
:10327000FCF7F1FF04460D4613220D995143404AD5
:103280008918C81CFCF7E7FF139B129A101A8B4190
:10329000201A9D410AD213210D98484338494018FD
:1032A00002460B3200200146FCF7ECFF13220D9979
:1032B0005143334A891808460B30FCF7CCFF0023F2
:1032C00058405940084327D013220D9951432C4AA6
:1032D000891808460B30FCF7BEFF801BB94109D2A4
:1032E00013220D995143264A891808460B30FCF7E2
:1032F000B2FF01E03046394606460F460CE0002694
:10330000374613210D9848431D49401802460B3299
:1033100000200146FCF7B6FF0D98401CC0B20D908E
:103320000D98012899DB0221002003F0D7FF29E046
:1033300078E00000F9000020D0000020CC00002040
:1033400008010020140100200C01002018010020B9
:10335000740B002028000020E80C00203C00002016
:1033600034010020D80C0020240100202C00002073
:10337000E1000020F0000020E8000020E000002034
:103380009C000020354908703548006810218843AA
:1033900033490860334802F077FE3048007806224F
:1033A0005043314A811806220EA8FCF738FF00204E
:1033B0002E4908702E4800782E492F4A0023089382
:1033C00009920A910B9001220493069308212B483D
:1033D000079305922A4B00241C57005D002300939D
:1033E0000292039101902748274B00241C57025753
:1033F000002301200E9902F0BFF91948006801214D
:103400000843174908602149214802F0F7FE18488F
:103410000178204802F02AF91F480068401C1E4924
:10342000086019E00E48006810210840002813D1F8
:103430001A4912980968401A194909680E1A314642
:10344000084802F0DBFE074802F030FD044800683F
:10345000102108430249086000BFE1E6B8000020DF
:10346000200100204C0B002073000020F8000020F9
:10347000CC000020D8000020C0C62D001D77000819
:1034800071000020177700087000002060AE0A006D
:10349000C40C0020740B0020D0000020E8000020A5
:1034A000F00000207047000010B5002819DA1A4A11
:1034B00003071B0F083B9B089B00D2588307DC0EB9
:1034C000FF23A3409A438B071B0E8407E40EA340FF
:1034D0001A43114B0407240F083CA408A4001A51F6
:1034E00018E00E4A03231B02D21883089B00D2580F
:1034F0008307DC0EFF23A3409A438B071B0E840730
:10350000E40EA3401A43054B032424021B1984082C
:10351000A4001A5110BD00001CED00E000E100E025
:1035200010B5002819DA1A4A03071B0F083B9B083D
:103530009B00D2588307DC0EFF23A3409A438B07DE
:103540001B0E8407E40EA3401A43114B0407240FFB
:10355000083CA408A4001A5118E00E4A03231B02D9
:10356000D21883089B00D2588307DC0EFF23A340A8
:103570009A438B071B0E8407E40EA3401A43054BA6
:10358000032424021B198408A4001A5110BD000052
:103590001CED00E000E100E001200449087004484F
:1035A000006804218843024908607047FC0000203D
:1035B000200100201CB50F480068102188430D49E8
:1035C0000860FFF775FB002813D10A480078C00790
:1035D000C00F00280DD00848007806225043074A43
:1035E000811806226846FCF71AFE01990098FFF739
:1035F00089FA1CBD20010020B800002073000020C3
:103600001CB56F480078C007C00F00287ED06D48F9
:103610000078002841D16A480078C009002806D007
:10362000694800786949087000206949086067485E
:10363000007865490978884217DB002063490870E3
:1036400064480068401C63490860634800780028AB
:1036500004D15F480068401C5D4908605F4800680D
:10366000400840005D49086017E055480078400870
:10367000400053490870FFF71BFB00280DD1584844
:10368000007806225043574A811806226846FCF704
:10369000C6FD01990098FFF735FA49480078800780
:1036A000C00F00281BD050480078012805D04F4893
:1036B00000784F490978884211DD00204D49087093
:1036C00045480078002804D141480068401C404922
:1036D000086042480068400840004049086045488A
:1036E0000078012852D13D48006810210840002888
:1036F0004CD1404908703D4800783D4909788842DE
:1037000035DA3A480078401C384900E02EE008706D
:103710000878C10F091849104900411A01290DD133
:10372000354900200856401E002803DD00200856B9
:10373000401E00E0002040B22F4908702048007869
:10374000400840001E490870FFF7B2FA00281DD15A
:103750002348007806225043224A811806226846F0
:10376000FCF75DFD01990098FFF7CCF90EE02348C6
:10377000008807210843214908801848006840084C
:103780004000164908600020174908701348006877
:1037900002210840022804D11048006888430F49DC
:1037A00008600E480068002802D10549087006E04C
:1037B0001349144802F022FD124802F077FB1CBDA9
:1037C0001C010020F9000020B6000020B7000020F6
:1037D000D0000020BC000020D400002020010020E8
:1037E000B800002073000020F8000020FB0000203B
:1037F000FA000020FC00002071000020B40000202E
:1038000060AE0A00C40C002070477047FFB59BB043
:1038100005460E46287819901998401118900027EF
:1038200000201490FF20139000201290119010900F
:103830000F900E900D900C900B90FC480A90FC4855
:103840000990002401F0B8FCFA4802F01DFC189819
:10385000012806D003287DD005287CD007287BD1FD
:10386000FBE3F5480078012800D1F7E3701E83B22E
:10387000F24A691CF248FDF7D5FAF049491E199839
:103880000870301FC2B210ABED48FDF756F9701E3C
:10389000EA49491E085C0106B01EE84A521E105C47
:1038A00000040843F11E515C09020843311F515CBA
:1038B000084311901099119888427DD1E148007811
:1038C00002218843801CDF490870DF491E98087078
:1038D000DE480490F0220021DD4803F09BFBDC4A27
:1038E0001021D74803F0B6F91022002105A803F0F3
:1038F00091FB0121684601750622D049153003F07D
:103900007DFB022206A80330049903F077FBD04A1E
:10391000C64905A803F070F91022002105A803F09C
:1039200079FB0221684601750622C449153003F06F
:1039300065FB022206A80330049903F05FFBC44A2A
:1039400005A8099903F058F9BC48401E0079C149FF
:10395000086002E084E082E0FEE3B848401E40795F
:10396000000209680843BB490860B448401E8079DA
:10397000000409680843B7490860B048401EC07990
:10398000B5490860AD48401E007A00020968084346
:10399000B1490860A948401E407A000409680843FC
:1039A000AD490860A548401E807A000609680843B2
:1039B000A9490860A14800E049E0401EC07A4006DD
:1039C000400FA64908709D48401EC07A0007000FAE
:1039D000A34908719948401E007B0007000FA149C8
:1039E000086008460068002801D1012008609D4851
:1039F0000068FCF7FDFD00229B4B01910090FCF755
:103A000003FD03910290FCF725FE964908600846E5
:103A10000068FCF7EDFD0022934B01910090FCF74C
:103A200041FC03910290FCF715FE9049086085481F
:103A30000078802188438030824908708C490020BA
:103A400008568C49087001207B49087000BF7D48EA
:103A5000007840084000401C7A49087005E700BF24
:103A600028790006E97809040843A978090208437F
:103A700069780843074678480068874239D07E480D
:103A800000680B901CE00B98FCF7DBFBB84212D1EE
:103A90006C4800780821884308306A4908700B9800
:103AA000001D0A900B98143009900B982430FCF7F5
:103AB000C8FB044607E00B982830FCF7C2FB0B90CC
:103AC0000B980028DFD100BF5E4800780007C00FC8
:103AD00000281AD15B48007840084000401C594932
:103AE00008706648006840084000644908601FB0DC
:103AF000F0BD5448007808218843524908704B486B
:103B00000A904B4809905E48046868791790202114
:103B1000179808404011169017980007000F15904D
:103B2000A879149908431490E8790002149908437D
:103B30001490701E285C0106B01E285C0004084327
:103B4000F11E695C09020843311F695C084311904A
:103B5000A1B21498401A0C900C98002865DA200C39
:103B60000004012212041499891808430446012014
:103B7000444948718F713804000EC8713802000E34
:103B80000872380E48728C722004000EC87220022F
:103B9000000E0873200E4873301FC87310A9C0B2FE
:103BA0002B4610220191009036490A98FCF775FEC9
:103BB00010991198884202D101200F908AE00020CC
:103BC0000F90204800780007C00F002807D01499F4
:103BD0000C4608460B992431FCF74BFB03E0149884
:103BE0000446274908600120264948718F7138042E
:103BF000000EC8713802000E0872380E48728C72BE
:103C00002004000EC8722002000E0873200E4873B4
:103C1000301FC87310A9C0B22B461022019100902A
:103C200018490A98FCF739FE54E02DE02C000020DA
:103C30003C000020B00C0020C80000201D0C00201B
:103C40005C0000201C0100201D010020CA00002093
:103C5000E80C00206C00002028000020100100204B
:103C6000970000200801002080842E410C010020D4
:103C70007200002071000020B00000202001002010
:103C80000001002024010020200C000414990843A6
:103C900004460120F54948718F713804000EC8713F
:103CA0003802000E0872380E48728C722004000E22
:103CB000C8722002000E0873200E4873301FC873AC
:103CC00010A9C0B22B46102201910090E7490A9832
:103CD000FCF7E3FD0F98012803D010991198884252
:103CE0007BD1E348007802218843801CE0490870BA
:103CF000E0491E9808700020DF490860DC48007821
:103D00000007C00F002805D00B9924312046FCF78E
:103D1000B0FA01E0D94804601898052803D10120C1
:103D2000D749087002E00020D5490870169801288C
:103D300005D1D4490870D44802F0A6F90BE0002060
:103D4000D0490870D1480078D1490978884202DD0D
:103D5000CD4802F099F91598002807DD2946083169
:103D6000CC48159A03F04AF915980D90304608385A
:103D70001599401A001F002877DD0120079015983B
:103D80000830285C1390304608381599401A401FB7
:103D9000C0B212900120C04948718F713804000EE2
:103DA000C8713802000E0872380E48728C722004F6
:103DB000000EC8722002000E0873200E4873F02215
:103DC0000021B64803F026F91398002806D1B34A1B
:103DD00010210A9802F03EFF05E0D5E2AF4A10211B
:103DE000099802F037FF2FE0AB490798C87307988E
:103DF000401C80B20790A94AA949A74802F0FCFEDE
:103E00000020089015E02846083015994018401CFD
:103E10000D9941180898085CA14A0899515C4840DE
:103E2000089A0D9989189B4A50540898401C80B2F2
:103E3000089008981028E6DB12981038C0B212904B
:103E40000D981030C0B20D9012981028CCDA12984C
:103E5000002824DD90490798C873904A90498E48FD
:103E600002F0CAFE0020089015E019E0284608304C
:103E700015994018401C0D99415C894A0898105CBE
:103E800041400D98421CD2B20D92824A11540898BA
:103E9000401C80B20890129908988842E6DB00BF67
:103EA00065E20E98411CC9B20E917A49085C801EE9
:103EB000030002F07CFE07050DD9D8D7D6D5D40073
:103EC0006B480078402188434030694908704DE2D2
:103ED0000720079000200690059004900390029020
:103EE0000E98411CC9B20E916A49085C40B2049018
:103EF00004980007000F059004980006000F049036
:103F000068480078002811D167480021415604987C
:103F1000814205D16548002141560598814205D06E
:103F2000002211460320FCF707FF1FE20E98411CF8
:103F3000C9B20E915749085C06900E98411CC9B24F
:103F40000E915449085C00020699084306900E98A9
:103F5000411CC9B20E914F49085C0390039840067A
:103F6000400F029003980007000F03900398002869
:103F700001D1012003900298002807D1069800285B
:103F800004D1FE2107980840079031E000200890F6
:103F90002BE00298062810D1062208995143444A82
:103FA0008818FCF74EF900281BD00120089988409A
:103FB0000699084380B2069013E0012008998840D2
:103FC0000699084000280CD0062208995143384A27
:103FD0008818FCF736F9002803D1FE21079808401D
:103FE00007900898401CC0B2089008980328D0DBBE
:103FF0000498002802DB0498072801DD012000E076
:104000000020012803D1FD2107980840079005985A
:10401000002804DB0598052801DC012000E00020D1
:10402000002803D1FB210798084007900798400714
:10403000400F07280BD11C49049808701B490598AC
:1040400008701C49069808801B49039808700022D4
:1040500003200799FCF770FE88E1A7E1B4E183E152
:104060004DE1B0E0A5E03DE028E0000024010020A3
:104070001C0100201D010020BC00002000010020C8
:1040800004010020F8000020080C0020FB000020A4
:10409000FA0000201C0C002034010020E80C002055
:1040A000D80C0020B9000020710000207000002012
:1040B00073000020B4000020B60000200E98411CC0
:1040C000C9B20E91C249085CC2490870084601781D
:1040D00001208840C0490880002211460420FCF7D6
:1040E0002BFE43E10720089000BF00BF00BF0E98E1
:1040F000411CC9B20E91B649085C069006980007AB
:10410000000F079006980006000F06900E98411CBD
:10411000C9B20E91AE49085C05900E98411CC9B217
:104120000E91AB49085C00020599084305900E9872
:10413000411CC9B20E91A649085C000405990843C8
:10414000059064210598484305900798002802DBF4
:104150000798072803DD00E027E1012000E00020A8
:10416000012803D1FD2108980840089006980028EE
:1041700002DB0698052801DD012000E0002001286F
:1041800003D1FB2108980840089008984007400F89
:10419000072808D19149079808710598FCF769F834
:1041A0008F4906980870002205200899FCF7C4FD85
:1041B000DCE0FCF717FE08908A4802780620089990
:1041C000FCF7BAFDD2E00320089000BF0E98411C16
:1041D000C9B20E917E49085C40B207900E98411C0E
:1041E000C9B20E917A49085C05900E98421CD2B271
:1041F00005990E92764A105C0002014305910E98D3
:10420000421CD2B205990E92714A105C000401431F
:10421000059164210598484305900E98411CC9B248
:104220000E911146085C40B269460876079803284B
:1042300002DB0798032803DDFE2108980840089058
:104240006846007E00070117684618228256101142
:10425000814220DC6846007E00070017002807DB4B
:104260006846007E00070017072801DC012000E0F7
:10427000002000280FD06946182008560011002899
:1042800006DB182008560011072801DC012000E099
:104290000020002803D1FD210898084008900898C4
:1042A0008007800F032824D1002069464876062223
:1042B000079951434C4A8818062205A9FBF7AFFF1E
:1042C00001200799884049490988084347490880DF
:1042D000062207995143444A8818FBF7B2FF002889
:1042E00007D10121079881404048008888433F4911
:1042F0000880002207200899FCF71EFD36E00E9882
:10430000411CC9B20E913249085C0007000F0890A9
:104310000898002803D10898401CC0B2089008985B
:10432000FCF766F90022324B05910490FCF76CF81B
:1043300007910690FCF78EF92E4908600846006840
:10434000FCF756F900222A4B05910490FBF7AAFFCF
:1043500007910690FCF77EF9274908600022114674
:104360000820FCF7E9FC01E0FFF7C1FB00BF0D9955
:104370000E98884200DA94E5204800784008400012
:10438000401C1E4908700FE000201D4908701B48A2
:10439000007840084000401C18490870194800681F
:1043A00040084000174908600EE000BF134800783D
:1043B00040084000401C114908701248006840083D
:1043C00040001049086000BF00BF00BFCCE70000FC
:1043D0001C0C0020E1000020E200002097000020DB
:1043E000100100201D01002073000020B4000020F7
:1043F00080842E41080100200C0100201C010020B7
:10440000F80000202001002010B500F0D5FE07487C
:1044100000788006800F012806D104480078400803
:104420004000401C0149087010BD00001C01002024
:1044300010B500F0C1FE074800788006800F012803
:1044400006D10448007840084000401C014908702B
:1044500010BD00001C010020F0B589B001F0C6FCC1
:1044600005460E4600F0A8FE4F4800780621484356
:104470004E4940184079132148434D494018C21C09
:1044800028463146FBF7FEFE4A480078012831D124
:104490004548007806214843444940184079132193
:1044A0004843434940180B3002903F4800780621AA
:1044B00048433E4940184079132148433C4941183C
:1044C0004878097804020C4300203B4A06CA03924C
:1044D000049105902046039B049A0599FBF762FE20
:1044E000354B0CCB801A994101910090029AFBF751
:1044F000C9FE10E02C480078062148432B4940189B
:104500004079132148432A49401802460B320020C3
:104510000146FBF7B7FE294860C0274903C9284A6E
:10452000178800220692079108903A46069BFBF7EF
:1045300039FE214B0CCB801A9941224B0CCB8018B1
:104540005941204A03C220480168204801F056FE24
:104550001E4801F0ABFC1E4801681E4801F04EFEEB
:104560001C4801F0A3FC1C480078012810D11B490D
:10457000484202F0B3FE1A4909681A4A89184018DD
:1045800001460290184801F039FE174801F08EFCF0
:1045900011480078002804D114480078401C1349C1
:1045A000087009B0F0BD0000B800002073000020C2
:1045B0009C000020E0000020D8000020E80000203F
:1045C000E2000020F0000020140100209C0C0020DC
:1045D00018010020B00C0020F900002040420F001C
:1045E0000C01002080841E00080C0020B700002071
:1045F00010B500F0E1FD0448007840084000401C80
:104600000149087010BD00001C010020F0B58DB0FC
:104610000525002400261D4800781D490978401A08
:1046200044B2002C00DA0024032C00DB0825062C01
:1046300000D10126174800783021884315490870B9
:104640001548007800281FD11449097806225143E3
:10465000134A8818FBF7F5FD07461248002101228E
:1046600008910A91049105910691099207910B9086
:10467000082003950092019102900B48035D324699
:104680003946012000F062FE0DB0F0BD710000203F
:10469000100100201C01002051010020B800002062
:1046A00085000020C0C62D001D77000870B58CB0B5
:1046B0000524002519480079032800DB0824174841
:1046C0000079062800D1012515480078302188435B
:1046D0001030134908701348007800281CD10F4887
:1046E000FBF7AFFD064610480021012208910A9110
:1046F000049105910691099207910B90082003946B
:104700000092019102900548007908490B5C2A4605
:104710003146012000F01AFE0CB070BD9700002059
:104720001C01002051010020C0C62D001D7700088B
:1047300010B503480178034800F098FF10BD000051
:10474000CC000020740B00207047000000B593B02F
:104750001848806B012109070843164988631648E9
:1047600000680321C90288430121C9024018124987
:104770000860022001900020029001200490022095
:104780000A9000210B9141040C9141050D911020DC
:10479000059001A8FDF7ECF80F200E9003200F9074
:1047A000002010901190129001210EA8FCF7C2FE7B
:1047B00013B000BD001002400070004010B501466B
:1047C000002300222048C068F0242040002829D17E
:1047D0001D48806B012424072040002806D01B4878
:1047E00000680324E4022040034613E01648806B6F
:1047F000012424072043144CA063144800680324B8
:10480000E402204003461048806B01242407A043A3
:104810000D4CA0630320C002834203D1C00081423B
:1048200000D101220A480068400840001043084CAB
:10483000206020460068C007C00F904201D00120D0
:1048400010BD0020FCE70000001002400070004096
:104850000020024010B57D20C000FCF703FB0A21B8
:10486000014801F053FE10BDCE01002070B548484C
:1048700000887D21C900884226DB00204449088049
:1048800000BF1FE006214143424A89184988491C5C
:104890008AB2062141433F4BC9184A800621414351
:1048A0001A468918097901290AD106214143891834
:1048B0004988042904DB002206214143C9180A71F2
:1048C000411CC8B20328DDDB3FE033483349098887
:1048D000445C7D21C90031480088401CFBF71EFC68
:1048E00088B22E4908802C480988455C7D21C90082
:1048F0002A480088401CFBF711FC88B22749088031
:1049000000201FE006214143224A515CA14217D1F9
:104910000621414389184978A94211D10022062174
:1049200041431C4BC9184A80062141431A46891845
:104930000979002904D1012206214143C9180A71CD
:10494000411CC8B20328DDDB00BF144800881449AD
:1049500009888842B9D1134800881349884215DB79
:104960000020104908800A21104801F0CFFD0948B5
:1049700000790F4908710748807A88710548007CE2
:10498000087200220A210A48FEF7CEFA70BD000024
:10499000CC010020B0010020240700201A000020D4
:1049A00018000020CA01002088130000CE0100205A
:1049B000E601002010B50248FDF7F0FA10BD000036
:1049C000280B002010B572B601F04EF9FCF712FA70
:1049D00000F022FC62B610BD10B51048FDF722FBB6
:1049E00000281AD10E480D490860FF2005304860A4
:1049F00000210A4881601021C1610021C16041612C
:104A00000161016201214902816100218162072166
:104A1000C16200214162FDF709FB10BD6402002064
:104A200000300140F0B585B005460E4617466806D1
:104A3000400E03900022102105200007FCF70AFC1D
:104A400001231B03012203A90F48FDF781FB00246A
:104A500010E000200290401E01900120000301237D
:104A600002AA01A900900848FDF75FFC02983055A2
:104A7000601CC4B2BC42ECDB0122102105200007FF
:104A8000FCF7E8FB05B0F0BD64020020F8B5054670
:104A90000E46174680202843009000221021052052
:104AA0000007FCF7D7FB01231B03012269460B48D3
:104AB000FDF74EFB002408E0311901231B030122FE
:104AC0000648FDF745FB601CC4B2BC42F4DB012282
:104AD000102105200007FCF7BDFBF8BD6402002093
:104AE000FFB581B004460E461D460027FCF7B8FB13
:104AF0000746039800283FD133E0681C002830D0D7
:104B0000002D04D0FCF7ACFBC01BA84229D92068BB
:104B10004068E0218843216848602068006840219F
:104B200088432168086001214903A06A88420DD1A9
:104B300000BF20680068884321680860206800681A
:104B40000121490308432168086000BF0121512069
:104B5000015500BF00215020015500BF032005B0C2
:104B6000F0BD206880683040B04201D1012000E0F3
:104B700000200028C1D03DE032E0681C00282FD082
:104B8000002D04D0FCF76CFBC01BA84228D920687C
:104B90004068E0218843216848602068006840211F
:104BA00088432168086001214903A06A88420DD129
:104BB00000BF20680068884321680860206800689A
:104BC0000121490308432168086000BF01215120E9
:104BD000015500BF00215020015500BF0320BEE752
:104BE000206880683040B04201D1012000E0002000
:104BF0000028C2D10020B2E770470000F3B583B0AF
:104C00000C460027039800F017FA19480460204664
:104C1000FBF7EEFC05460022164BFBF75DFC01910D
:104C20000090FBF717FD04462002010E062000F05D
:104C3000EBFA2004010E072000F0E6FAE1B20820AA
:104C400000F0E2FA052000F037FA0120FCF70AF93B
:104C5000039800F0BDF9074600F0AEFA5920C043B2
:104C6000874202DD002005B0F0BD0120FBE7000017
:104C70005401002080844E40F0B58BB000200A9093
:104C8000002784480078012802D002287ED1E6E07F
:104C90004021122000F0B8FA122000F08FF90A909B
:104CA00008A9087A2021084020280ED1122000F0FF
:104CB000ABFA79480078002801D176490870774826
:104CC00001F0E2F9FFF7A0FBE1E0192000F076F92E
:104CD00040B273490870002008568021084000281F
:104CE00007D06F480078C043401C0006870E7F4203
:104CF00002E06B48007887101A2000F05FF9044644
:104D0000002F52DA674800686749884225D938463B
:104D1000FBF75AFC079106902011FBF755FC039115
:104D200002902046FBF750FC054600225F4BFBF744
:104D3000B9FA01910090039B029AFBF7B3FA05912F
:104D40000490079B069AFBF7ADFA09910890FBF7D0
:104D50005DFC40B25649087061E03846FBF734FC10
:104D6000079106902011FBF72FFC0391029020463B
:104D7000FBF72AFC054600224E4BFBF793FA019104
:104D80000090039B029AFBF78DFA00E07EE005910C
:104D90000490079B069AFBF785FA09910890FBF7A8
:104DA00035FC40B24249087039E03E4800683E494F
:104DB00088421AD92011FBF707FC0791069020467C
:104DC000FBF702FC05460022384BFBF76BFA059116
:104DD0000490079B069AFBF765FA09910890FBF788
:104DE00015FC40B23249087019E02011FBF7ECFBCA
:104DF000079106902046FBF7E7FB00222D4B05911B
:104E00000490FBF74FFA0546079B069AFBF74AFA10
:104E100009910890FBF7FAFB40B22549087013206E
:104E200000F0CCF824490870084602782349002095
:104E3000FFF7F8FD18480078002801D115490870DF
:104E4000164801F021F916480023C35618480022DD
:104E50008256194801781948FEF7D8FC17E018481F
:104E600001F012F917480078002807D0012804D172
:104E70000821122000F0C8F900BF00BF002005493A
:104E80000870FFF7E9FA00BF00BF00E000BF00BFF5
:104E90000BB0F0BD510100206E010020100F00206A
:104EA000740100205401002040DD4A1F00A063C0AF
:104EB00075010020008064C076010020FC0D0020F8
:104EC000FC0E00205201002010B50A48007801288D
:104ED00002D002280AD108E0074801F0D5F80020E6
:104EE00004490870FFF7A4FA01E000E000BF00BF2A
:104EF00010BD000051010020100F002010B5164811
:104F00000078012802D0022822D110E0134800784E
:104F100001280BD10221122000F076F91C2000F0AC
:104F20004DF88406A40E2046FEF76FFC11E00B48F6
:104F3000007801280BD10221122000F065F91C2015
:104F400000F03CF88406A40E2046FEF75EFC00E06C
:104F500000BF00BF10BD0000510100206B01002008
:104F600010B5122000F02AF8C007C00F002807D0A3
:104F70000521122000F048F90120FEF745FC06E06B
:104F80000421122000F040F90020FEF73DFC10BD86
:104F900010B509480078012802D0022809D102E0A2
:104FA000FFF746FA06E0002003490870FFF720FBF0
:104FB00000E000BF00BF10BD5101002038B504461D
:104FC000012269462046FFF72DFD6846007838BD6E
:104FD000FEB500200190144800681449884210D999
:104FE0001B20FFF7EBFF0090FBF702FB06460022B9
:104FF0000F4BFBF757F90446FBF708FB40B2019053
:105000000FE01B20FFF7DAFF0090FBF7F1FA0446F0
:105010000022084BFBF746F90646FBF7F7FA40B2C9
:1050200001900198FEBD00005401002040DD4A1FA0
:1050300000A063C0008064C070B504461D480078BD
:10504000A04200D170BD1B4804700078002802D037
:10505000012815D000BF002000F02EF80120FFF736
:10506000ADFF45066D0E2946012000F0CDF8002168
:10507000402000F0C9F83021412000F0C5F816E0CA
:10508000002000F019F80120FFF798FF4006400EBD
:10509000054680352946012000F0B6F80021402061
:1050A00000F0B2F80021412000F0AEF800BF00BFD0
:1050B00000BFC7E75201002030B587B004463A4828
:1050C000007884426ED038480470002C1AD13748DA
:1050D000007801285BD0012034490870022002903A
:1050E00011200390002004900220059002A90520C1
:1050F0000007FBF7B9FF0022022105200007FCF79B
:10510000A9F844E029480078002823D00020274946
:10511000087000BF2648C06A012108432449C862BC
:105120000846C06AC007C00F019000BF00BF022040
:1051300002900120039004900220059002A905200E
:105140000007FBF791FF0022022105200007FCF772
:1051500081F800BF032C0DD116480078012816D025
:105160000120144908700022022105200007FCF7E5
:1051700071F80CE00F480078002808D000200D4995
:1051800008700122022105200007FCF763F80120C6
:10519000FFF714FFF8210840204305462946012067
:1051A00000F032F807B030BD80010020500100202F
:1051B000001002407701002010B5064800F064FF9F
:1051C000054800F061FF0020FFF776FF002003494B
:1051D000087010BD100F0020FC0E002051010020AF
:1051E00010B5064800F050FF054800F04DFF0120C3
:1051F000FFF762FF00200349087010BD100F002068
:10520000FC0E00205101002013B50446012201A923
:105210002046FFF73BFC1CBD70B501220421052090
:105220000007FCF717F84149414800F0DFFF3F490C
:10523000404800F0DBFF3D493F4800F0D7FF002227
:105240000121C9023D48FCF705F80120FBF70AFEE1
:105250000122D1023948FBF7FDFF0620FBF702FED1
:1052600019214B20FFF7D0FF0920FFF7A7FE0546C5
:1052700000210920FFF7C8FF3B20FFF79FFEBF2159
:1052800008400446403421463B20FFF7BDFF00BFE5
:105290003B20FFF793FE202108402028F8D03B2038
:1052A000FFF78CFEBF2108400446403421463B20D6
:1052B000FFF7AAFF00BF3B20FFF780FE2021084038
:1052C0002028F8D029460920FFF79EFF002412E08D
:1052D000610061181A4A505CFFF7AEFE6200A21826
:1052E000174BD21891786200A218D2185078FFF7A5
:1052F0008BFF601CC4B20F2CEAD30020FFF79CFE8A
:10530000002010490870104909690F4A526951403C
:105310000D4A526A5140084602F026F80120FFF774
:105320008BFE34213920FFF76FFF70BD914F0008CD
:10533000FC0E0020100F0020240F0020000400505D
:1053400025770008510100204000F81FFFB585B007
:105350000E4614461D46129FB44806603046FBF7C1
:1053600047F90022B24B01910090FBF7B5F8039189
:105370000290FBF76FF906463002010E0620FFF798
:1053800043FF3004010E0720FFF73EFFF1B2082073
:10539000FFF73AFF0598FFF74FFE022C01D900BF37
:1053A000FEE7E41DA3480460A3480560A3490E98E6
:1053B0000870A3480770A34913980870A24914986D
:1053C0000870A24915980870A14916980870A1495B
:1053D00017980870A049189808700C2D01D90C2551
:1053E00002E0062D00D20625072C03D10B2D05D097
:1053F0000C2D03D0082C05D10C2D03D10120974989
:10540000087002E00020954908701D20FFF7D6FDC6
:105410000007000FF0210840210108430E994900C0
:1054200008433843C0B2014603901D20FFF7ECFE4D
:105430001E20FFF7C3FD0007000FF82108402901D7
:10544000084314998900084311990912FC229143D9
:105450000843C0B2014603901E20FFF7D5FE262068
:10546000FFF7ACFDF72108407C490978C9000843E3
:10547000014603902620FFF7C7FE1198C1B21F20F6
:10548000FFF7C2FE10980004010E2020FFF7BCFEBB
:105490001098C1B22120FFF7B7FE012F03D12220BF
:1054A0001399FFF7B1FE6948007801280FD1442015
:1054B000FFF784FD4006400E8030014603904420F3
:1054C000FFF7A2FE624801782420FFF79DFE092C19
:1054D00009D100BF02213620FFF796FE64213A2051
:1054E000FFF792FE0EE0092C08D102213620FFF7CB
:1054F0008BFE7F213A20FFF787FE03E00321362051
:10550000FFF782FE062D0FD13120FFF757FDF8215E
:105510000840401D014603903120FFF775FE0C2125
:105520003720FFF771FE0EE03120FFF747FDF8212D
:105530000840C01C014603903120FFF765FE0A2198
:105540003720FFF761FE00200490424800780128D0
:105550000FD13320FFF732FDBE2108404130014614
:1055600003903320FFF750FE19213B20FFF74CFE3C
:105570000EE03320FFF722FDBE210840401C01460B
:1055800003903320FFF740FE1D213B20FFF73CFE38
:105590003148007804902D480078012810D11D2151
:1055A0001120FFF731FE4020FFF708FD8006800E36
:1055B000F3210840014603904020FFF725FE0DE04F
:1055C0001F211120FFF720FE4020FFF7F7FC800687
:1055D000800E014603904020FFF716FE00210F20A9
:1055E000FFF712FE00210D20FFF70EFEFF22013211
:1055F00000211B4801F00EFD01201A49087019987E
:10560000002806D01848199900F0F8FD164800F057
:105610004DFC0498012803D10520FFF74DFD02E061
:105620000620FFF749FD09B0F0BD0000540100203D
:1056300080844E405C010020600100206501002054
:1056400068010020690100206A0100206B01002030
:105650006C0100206D0100206E010020640100201B
:10566000FC0D002051010020100F0020F8B5054668
:105670000C4600263A48007801280ED13320FFF767
:105680009DFCBE210840074639463320FFF7BCFD8C
:1056900019213B20FFF7B8FD0DE03320FFF78EFC0A
:1056A000BE210840471C39463320FFF7ADFD1D21C0
:1056B0003B20FFF7A9FD2B48047021462220FFF76D
:1056C000A3FD00210E20FFF79FFD00210D20FFF715
:1056D0009BFD0120FFF772FCF8218843002804D1CC
:1056E000FFF77EFD0120FBF7BDFB22462946002087
:1056F000FFF7CCF91C4806681C480078012811D136
:10570000F5211120FFF780FD4020FFF757FC8006B0
:10571000800EF32108400746403739464020FFF706
:1057200073FD0EE0F7211120FFF76EFD4020FFF71B
:1057300045FC8006800E0746403739464020FFF77B
:1057400063FD02200A49087031460A4800F056FD00
:10575000084800F0ABFB0320FFF7AEFCF8BD0000EB
:105760006D01002076010020700100206B010020F7
:1057700051010020FC0E0020FFB59BB01446259F70
:10578000002019901890FA491C9808601C98FAF7A4
:105790002FFF0022F74B07910690FAF79DFE099123
:1057A0000890FAF757FF1C901C980002010E062083
:1057B000FFF72AFD1C980004010E0720FFF724FDC7
:1057C0001C98C1B20820FFF71FFD1B98FFF734FC9F
:1057D0000920FFF7F3FB19904D20FFF7EFFB18901E
:1057E00019984006400E803019908F211998084072
:1057F0007030199080211998084080282FD1112CE1
:1058000005DDF82118980840C01D189004E0F82123
:1058100018980840001D189018984007400F072856
:105820000ED1052C00DA0524142C00DD1424F021FF
:1058300019980840611F0907090F084319901EE0D5
:10584000022C00DA0224112C00DD1124F021199819
:105850000840A11E0907090F084319900FE0002016
:10586000C043844200DA04460E2C00DD0E24F021F1
:1058700019980840611C0907090F0843199009206D
:105880001999FFF7C1FC4D201899FFF7BDFCBA48E4
:1058900004702498022801D900BFFEE72498C01D97
:1058A0002490B64924980860B5480760B549269801
:1058B0000870B54927980880B44928980870B449F9
:1058C0002A980870B3492B980870B3492998087032
:1058D000B2492C980870B248B24908600C2F01D91F
:1058E0000C2702E0062F00D206272498072803D1B0
:1058F0000B2F06D00C2F04D02498082805D10C2F8C
:1059000003D10120A849087002E00020A6490870D0
:105910009F48007801280FD14420FFF74FFB400635
:10592000400E8030014609904420FFF76DFC9948F5
:1059300001782420FFF768FC1D20FFF73FFB0007DC
:10594000000FF021084024990901084326994900D5
:10595000084328990843C0B2014609901D20FFF76B
:1059600053FC1E20FFF72AFB0007000FFB21084015
:1059700039010843299989000843C0B201460990BA
:105980001E20FFF741FC2620FFF718FBF7210840F7
:1059900085490978C9000843014609902620FFF788
:1059A00033FC27980004010E2020FFF72DFC2798D8
:1059B000C1B22120FFF728FC062F0FD13120FFF7BD
:1059C000FDFAF8210840401D014609903120FFF7FB
:1059D0001BFC0C213720FFF717FC0EE03120FFF7EE
:1059E000EDFAF8210840C01C014609903120FFF76C
:1059F0000BFC0A213720FFF707FC00252E465F48E5
:105A00000068072804D0082805D0092809D105E036
:105A10000025664E05E00025654E02E00025654E36
:105A200000BF00BF56490A78012191400846FAF7A5
:105A3000CBFD02460B460991089028463146FAF7FD
:105A40004BFD1791169000205B49179B169AFAF7A9
:105A500043FD159114904C480088FAF7C9FD0022C7
:105A6000564B07910690FAF71DFC09910890159B7B
:105A7000149AFAF7C9FC1391129042480078001D5D
:105A8000FAF7A2FD099108903D4909688900464A44
:105A90001278002A01DD082200E00022881AFAF7B5
:105AA000A7FD039102902F99C900354A1268920010
:105AB000891A1C31384A127812018918334A12782F
:105AC000002A01D0142200E00022881AFAF790FD83
:105AD00001910090039B029AFAF7FEFC0591049055
